:100000000C945D000C94810E0C94A80E0C94850049
:100010000C9485000C9485000C9485000C9485004C
:100020000C9485000C9485000C9485000C9485003C
:100030000C9485000C9485000C9485000C9485002C
:100040000C94670D0C9485000C9485000C9485002D
:100050000C9485000C9485000C9485000C9485000C
:100060000C9485000C94850000000008000201003B
:100070000003040700000000000000000102040863
:100080001020408001020408102001020408102002
:10009000040404040404040402020202020203032E
:1000A0000303030300000000250028002B000000CC
:1000B0000000240027002A007B0E11241FBECFEF72
:1000C000D8E0DEBFCDBF12E0A0E0B1E0E0EEFDE1A0
:1000D00002C005900D92AE3AB107D9F726E0AEEA1C
:1000E000B2E001C01D92A234B207E1F710E0CDE505
:1000F000D0E004C02197FE010E94D90ECC35D10773
:10010000C9F70E946C0E0C94CF0E0C940000E6E12F
:100110000E944C010895E2E10E944C010895EAE03A
:100120000E944C010895E1E00E944C010895E3E033
:100130000E944C010895E7E00E944C010895E5E01B
:100140000E944C010895E0E00E944C010895E2E015
:100150000E944C010895E4E00E944C010895ECE0F7
:100160000E944C010895ECE10E944C010895EEE0DC
:100170000E944C010895E8E10E944C010895E0E1DD
:100180000E944C010895E8E00E944C010895E6E0C9
:100190000E944C010895EAE10E944C010895E4E1B7
:1001A0000E944C010895EEE10E944C010895E9E09F
:1001B0000E944C010895EBE00E944C010895EDE08F
:1001C0000E944C010895EFE00E944C010895E1E186
:1001D0000E944C010895E3E10E944C010895E5E17D
:1001E0000E944C010895E7E10E944C010895E9E165
:1001F0000E944C010895EBE10E944C010895EDE14D
:100200000E944C010895EFE10E944C01089521964F
:100210008A929A92AA92BA92CA92DA92EA92FA923E
:100220000A931A932197E0916A01F0916B01008083
:10023000F181E02DC083D1830895C0916C01D091EC
:100240006D01E881F981C081D181219619910991CF
:10025000F990E990D990C990B990A9909990899016
:10026000219708952F903F90E7E6F1E0CDB7DEB7F4
:10027000EDBFFEBF3F922F9208952F903F90CDBFCC
:10028000DEBF3F922F920895E0E80E944C0108954E
:10029000E0E40E944C0108952F923F924F925F92AA
:1002A0006F927F922FB62F92CF93DF937E2EF8948A
:1002B000E0910001EF5FE0930001E13011F40E9452
:1002C0003201E0E0E0937A01E72DE07849F00E9406
:1002D000F505F0917B01F17071F00E9499040BC05B
:1002E000E72DEC3140F4EE0FF0E0E259FD4F0190C4
:1002F000F081E02D0995F0917A01EF2FE17059F02E
:10030000F27011F00E9407018F938F2F0E948603D5
:100310008F910E941D012091000121502093000126
:10032000222311F40E943D01DF91CF912F902FBE27
:100330007F906F905F904F903F902F900895FC01B9
:100340004081FB013081842F8F7090E0A0E0B0E00D
:10035000B695A795979587958F539D4FFC01208162
:10036000F42FF21B2F2F21704E70242B832F8F70B0
:1003700090E0A0E0B0E0B695A795979587958F534C
:100380009D4FFC019081F32FF91B9F2F91703E70C0
:10039000932B41E050E0291710F040E050E0CA01F3
:1003A00008958F929F92AF92BF92EF92FF920F9318
:1003B0001F93CF93DF938C01CA01DB014C015D01D8
:1003C000B694A7949794879482309105A105B105BE
:1003D00080F0880F991FE801C80FD91F7401EE0C37
:1003E000FF1CE00EF11EBE01C7010E949F01892B78
:1003F00059F4DF91CF911F910F91FF90EF90BF9033
:10040000AF909F908F90089598818981F701208106
:1004100031813983288390838183D501C401D0CF72
:100420004F925F926F927F928F929F92AF92BF9204
:10043000CF92DF92EF92FF920F931F93CF93DF93B0
:1004400000D000D000D0CDB7DEB78D839E836A0187
:100450007B01AD81BE814C90842D90E0A0E0B0E0A6
:1004600089839A83AB83BC8346015701880C991C0E
:10047000AA1CBB1C89819A81AB81BC818815990516
:10048000AA05BB05B8F40F900F900F900F900F9036
:100490000F90DF91CF911F910F91FF90EF90DF9020
:1004A000CF90BF90AF909F908F907F906F905F9014
:1004B0004F900895240135019FEF491A590A690A9E
:1004C000790A89819A81AB81BC8184159505A6053D
:1004D000B70590F0B201660F771FAD81BE816A0F3C
:1004E0007B1FC401880F991F8A0F9B1F0E949F01C9
:1004F000892B11F0530142018401000F111FED817E
:10050000FE810E0F1F1FCC0CDD1CCE0EDF1EB801AE
:10051000C6010E949F01892B09F4B5CFD6019C9199
:1005200011968C911197F801208131812D933C9384
:10053000908381837501640197CFE6ECF2E04081FE
:100540004F5F408350E060E070E0E82FEE0FFF0B5C
:10055000ED5DFD4F0190F081E02D238530E0F90144
:10056000EF53FD4F908191509083FA01EE0FFF1FE2
:10057000EA53FD4F9170220F331F292B2083818373
:1005800086EC92E00C94D101E6ECF2E040814F5F02
:10059000408350E060E070E0FA01EE0FFF1FEA5385
:1005A000FD4FA82FAA0FBB0BA55EBD4F0D90BC91B0
:1005B000A02D13969C919083818386EC92E00C94FD
:1005C000D1010F931F93CF93DF93C6ECD2E08881C4
:1005D0009FEF980F98830A811B8190E0880F991FE5
:1005E000FC01EA53FD4F808191819B838A8341E026
:1005F00050E060E070E0CE010E941002C801DF917F
:10060000CF911F910F910895809172019091730184
:10061000A0917401B09175018F3F2FEF9207A2074F
:10062000B20731F00397A105B10524F082E00895E7
:1006300080E0089581E00895CF93DF93880F990BB0
:10064000FC01ED5DFD4F0190F081E02D0084F1850E
:10065000E02D3097E1F02281211119C021E02283A1
:10066000855E9D4FEC01A881B98113968C911397FB
:100670008183808190E0FC01EF53FD4F2081215068
:1006800020832170880F991F822B13968C93DF9102
:10069000CF910895CF93DF93880F990BFC01ED5D07
:1006A000FD4F0190F081E02D0084F185E02D309721
:1006B00061F02281213049F41282855E9D4FEC0168
:1006C000A881B981818113968C93DF91CF91089590
:1006D0008091760190917701A0917801B091790194
:1006E0004091720150917301609174017091750194
:1006F000481759076A077B0741F0E0917001F091B4
:10070000710121E024830C94C4020895CF93DF93F8
:10071000D0E0C0E0882389F0D0916A01C0916B01DC
:10072000E0916E01F0916F018481833031F081E0BE
:100730008483809172010E94C402E0917001F09163
:100740007101F0936F01E0936E0180916C019091C3
:100750006D0190936B0180936A01809176013091D5
:100760007701209178019091790180937201309303
:100770007301209374019093750192E094830E9419
:100780001C038D2F9C2FDF91CF910895CF92DF9284
:10079000EF92FF92C0907201D0907301E0907401CB
:1007A000F09075018C2D0E944A03E0916E01F0914A
:1007B0006F0182818823B9F085E0848382E0C816C6
:1007C000D104E104F10454F4F601EE0FFF1FE95ED9
:1007D000FD4F0190F081E02D11821082FF90EF908B
:1007E000DF90CF9008951482F9CFCF93DF93282F15
:1007F000220F330BF901E55EFD4FC081D1819A8153
:10080000F901ED5DFD4F0190F081E02D44859417D5
:10081000C8F491110EC095E09C8382303CF4295EAF
:100820003D4FD901ED91FC911182108291E090939E
:100830007B010E949D028A818F5F8A8380E0DF9125
:10084000CF91089584E0FBCFCF93E82FEE0FFF0BFD
:10085000E55EFD4F0190F081E02DC1E0C4830E9470
:100860009D02C0937B01CF910895282F220F330B57
:10087000F901E55EFD4F0190F081E02D44814423B4
:10088000A1F0295E3D4FD901ED91FC919081962B0D
:10089000908391816923611102C080E008951182E3
:1008A0004330D9F70E942404F8CF87E00895E82F59
:1008B000EE0FFF0BE55EFD4F0190F081E02D118200
:1008C00010820C941B0E1F93CF93DF930E94E102C2
:1008D000182F892F492F092E000C550B660B770B0B
:1008E000409376015093770160937801709379017A
:1008F000292F220F330BF901E55EFD4FC081D18115
:10090000D0937101C09370012D5D3D4FF90120819D
:10091000318130936D0120936C019C81953019F4E5
:100920000E9457041B8310927B01DF91CF911F918E
:100930000895E0917601F0917701EE0FFF1FE55EDB
:10094000FD4F0190F081E02D9091C80283818917BD
:1009500040F40E9468030E94630483E080937A015C
:10096000089580E0FBCF1F93CF93DF93CAE6D1E0D9
:10097000EC81FD8113E0148388850E944A03188B63
:10098000DF91CF911F910C94630481E080937A01F1
:100990000C946304EF92FF920F931F93CF93DF9316
:1009A000C1E001C0CC0F8A95EAF783E00E94F5030D
:1009B0000AE612E0D0E0F80181918F018C238823B0
:1009C00019F08D2F0E94F503DF5FD330A1F707E602
:1009D00012E086EFE82E81E0F82ED1E0F801819157
:1009E0008F018C23882339F0F70180819181FC01EC
:1009F000D6870E943305F2E0EF0EF11C82E00A3642
:100A0000180761F7DF91CF911F910F91FF90EF9041
:100A100008950E94E70781110E940708E0916E0186
:100A2000F0916F0180819181892B21F08091720179
:100A30000E94BF090C942C090E94E70781110E94B3
:100A40000708E0916E01F0916F0180819181892BFF
:100A500021F0809172010E94BF090C94170981E076
:100A60008093AE020895CF92DF92EF92FF920F93A0
:100A70001F93CF93DF93FC01A081B1810D90BC91B6
:100A8000A02D54968D919C915597009709F445C0DF
:100A9000428553856485758520E030E0EC01CA8489
:100AA000DB84EC84FD844C155D056E057F0508F044
:100AB00049C08C01138302833583248301151105FA
:100AC00019F0E801FD83EC832115310509F444C0D8
:100AD000E901FB83EA835696CD91DC9157970A850D
:100AE0001B852C853D855096CD90DD90ED90FC903A
:100AF00053970C151D052E053F0598F5C416D50610
:100B0000E606F70628F0401751076207730788F4D6
:100B10005796FC93EE9356970CC05596FC93EE9324
:100B200054975796FC93EE9356971582148213822E
:100B30001282DF91CF911F910F91FF90EF90DF9084
:100B4000CF900895EC010A811B819C0101151105CC
:100B500009F4B0CFC801A2CF5596FC93EE935497F9
:100B6000BACFC416D506E606F70618F7CCCFCF9352
:100B7000DF93FC01A081B1810D90BC91A02DC281B9
:100B8000D38154968D919C9155978E179F0721F490
:100B90005596DC93CE93549756968D919C9157978A
:100BA0008E179F0721F45796DC93CE935697209784
:100BB00021F0848195819D838C830480F581E02DD3
:100BC000309711F0D383C28356968D919C9157979D
:100BD000892B41F454968D919C91559757969C93EF
:100BE0008E935697DF91CF910895EF92FF920F93D6
:100BF0001F93CF93DF93EC018091AE02882309F419
:100C0000ADC08C859D85AE85BF850196A11DB11DAA
:100C10008C879D87AE87BF87488159816A817B8198
:100C200084179507A607B70709F098C0888999899E
:100C3000AA89BB890196A11DB11D4C815D816E8180
:100C40007F81481759076A077B0718F480E090E016
:100C5000DC01888B998BAA8BBB8B1C861D861E861C
:100C60001F860E891F890115110509F477C0F80147
:100C70004285538564857585481759076A077B0740
:100C800009F06CC09F010280F381E02D309749F09C
:100C9000428553856485758584179507A607B70730
:100CA00089F3D80114964D915C914115510529F0B5
:100CB000DA011396FC93EE9312978C899D893097F5
:100CC00041F40817190711F41D8A1C8AEC89FD8963
:100CD00007C0558344830817190711F4FD8BEC8B6B
:100CE000FF8BEE8BF901138212827801D8011296E4
:100CF0000D911C911397ED91FC910280F381E02DF1
:100D0000C7010995F70186819781A085B185009774
:100D1000A105B10551F14285538564857585840F20
:100D2000951FA61FB71F4C815D816E817F8148177B
:100D300059076A077B0738F4841B950BA60BB70B82
:100D40000197A109B109F70182879387A487B58725
:100D5000C7010E9433050115110539F6DF91CF91C6
:100D60001F910F91FF90EF9008951686F4CFFC012C
:100D700082810C94F503EF92FF920F931F93CF9310
:100D8000DF937C018B01FB01C285D385CB010A96E1
:100D90000E94BC079C018DE021153105D9F0F801B6
:100DA0009585D701822F232F980F392F381B1316C3
:100DB000C4F0F80185859881981B98839981890FE3
:100DC00089839485891708F019828A81882311F014
:100DD0001A828CE0DF91CF911F910F91FF90EF90DD
:100DE0000895E82FF22F81918D938E2F2F2FDDCF35
:100DF000382F292FCA01009749F0DA01ED91FC91B3
:100E0000309721F0AB01632F722F099481E0089590
:100E100081E00895FF920F931F93CF93DF93062FE6
:100E2000F72EDC011296CD91DC91209711F1EC8127
:100E3000FD81602F7F2DCE010995182F81110DC0E6
:100E400088819981009721F40A80DB81C02DEDCF44
:100E5000DC01ED91FC910995F7CF8E30A9F380E08C
:100E60000E947E07812FDF91CF911F910F91FF90FC
:100E7000089510E0F4CFCF92DF92EF92FF920F939C
:100E80001F93CF93DF93EC017B010A851B85C888F4
:100E9000D98848855985C6010E94F806882361F1E2
:100EA000CE010A960E9484079C01892B09F18D8549
:100EB000082E000C990BD701B601181619067CF004
:100EC000F80180819D85890F808380E0DF91CF913B
:100ED0001F910F91FF90EF90DF90CF9008954D916B
:100EE000FB014193BF01F90141939F010197E5CFB8
:100EF00081E0F8018283E9CF8EE0E8CF80917B0129
:100F000081110C9499040895CF92DF92EF92FF9291
:100F1000CF93DF93FC01C081D181288130E04281F1
:100F2000A42FB0E0BD01621B730B8381082E000C5F
:100F3000990B68177907ECF0598184819581250F09
:100F4000311D50E060E070E06901032E000CEE08F6
:100F5000FF08C416D506E606F70610F02A1B3B0B61
:100F6000820F931FDF91CF91FF90EF90DF90CF9092
:100F7000089580E090E0F6CFFC01A081B1818C91D2
:100F8000882339F011962C9184819581820F911DCF
:100F9000089580E090E008950E94E707809168013D
:100FA0000895809368010E94CA040E942F050C9442
:100FB000C5040C941A0ECF93C82F0E94040381110C
:100FC00002C00E94620E8C2FCF910C948B00209156
:100FD000BB022130D1F04091B3025091B402609134
:100FE000B5027091B6028091B7029091B802A091BB
:100FF000B902B091BA02842B952BA62BB72B21E016
:10100000892B8A2B8B2B09F420E0822F08951092D4
:10101000BB021092B7021092B8021092B90210925D
:10102000BA021092B3021092B4021092B50210925A
:10103000B6028091AF029091B002A091B102B0913E
:10104000B2028093BC029093BD02A093BE02B09303
:10105000BF0208950E94650E8091BC029091BD026E
:10106000A091BE02B091BF020196A11DB11D809357
:10107000BC029093BD02A093BE02B093BF028091C8
:10108000B7029091B802A091B902B091BA0201964C
:10109000A11DB11D8093B7029093B802A093B9022D
:1010A000B093BA0208958091B7029091B802A091CE
:1010B000B902B091BA020097A105B10569F140915A
:1010C000BC025091BD026091BE027091BF024150BE
:1010D0005109610971094093BC025093BD026093AC
:1010E000BE027093BF020197A109B1098093B702B4
:1010F0009093B802A093B902B093BA028091BC0257
:101100009091BD02A091BE02B091BF02892B8A2BA3
:101110008B2B11F40C94630E08958091B70290917B
:10112000B802A091B902B091BA024091B3025091B5
:10113000B4026091B5027091B602842B952BA62B58
:10114000B72B892B8A2B8B2B29F40E94650E81E00B
:101150008093BB0208958091BB02882321F01092F6
:10116000BB020C94630E08950E94690E8091BC022C
:101170009091BD02A091BE02B091BF020196A11D47
:10118000B11D8093BC029093BD02A093BE02B093A8
:10119000BF028091B3029091B402A091B502B091C8
:1011A000B6020196A11DB11D8093B3029093B402C3
:1011B000A093B502B093B60208958091B3029091C6
:1011C000B402A091B502B091B6020097A105B10595
:1011D00069F14091BC025091BD026091BE027091D4
:1011E000BF0241505109610971094093BC025093FB
:1011F000BD026093BE027093BF020197A109B109BD
:101200008093B3029093B402A093B502B093B60258
:101210008091BC029091BD02A091BE02B091BF022C
:10122000892B8A2B8B2B11F40C94670E08950E9446
:10123000E707811183E10895CF93C82F0E94E70744
:101240008C2F0E94F503C82F80917B0181110E9491
:1012500099048C2FCF910895CF930E94E707C82F50
:101260008111C3E1E0916E01F0916F0182818150A3
:1012700082830E94C60381E080937A010E94630406
:101280008C2FCF910895CF93C82F0E94E707E0914C
:101290006E01F0916F018281815082838C2F0E94B8
:1012A000F503C82F81110AC00E94C60381E0809314
:1012B0007A010E9463048C2FCF910895E0916E0112
:1012C000F0916F0182818F5F8283F5CFCF930E946F
:1012D000E707C82F8111C3E1809172010E944A0380
:1012E0000E9499048091720190917301A091740100
:1012F000B09175014091760150917701609178012C
:101300007091790184179507A607B70711F40E9419
:101310001C038C2FCF910895CF93DF93EC010E9493
:10132000E707811183E1409172015091730160914F
:10133000740170917501433051056105710514F018
:101340004091DB014883DF91CF9108950F931F9364
:10135000CF93C82F8B010E94E707811183E1EC2F07
:10136000EE0FFF0BE55EFD4F0190F081E02D9481C3
:101370009370F8019083CF911F910F910895E82FFA
:10138000EE0FFF0BE55EFD4FA081B181ED91FC9169
:101390001197309789F01D921C928091DB01DF013B
:1013A0000380F481E02D12968C93129714961C9270
:1013B0001E921397309799F70895CF93C82F0E94E4
:1013C000E707811183E1EC2FF0E0EE0FFF1FED59ED
:1013D000FD4F0190F081E02D909172019283A091D8
:1013E0006E01B0916F012D913C911197348323834D
:1013F0001196FC93EE9313969C9113979183208101
:101400009695921768F430E0F901EF53FD4F908103
:10141000915090839170220F331F292B13962C9398
:10142000CF910895CF93DF93C82F0E94E707D82F5D
:101430008111D3E1EC2FF0E0EE0FFF1FED59FD4FCE
:101440000190F081E02DA0916E01B0916F0181813A
:1014500013968C931397838194818D939C9314821C
:1014600013828091DB0182830E9499048D2FDF918A
:10147000CF910895CF93DF93C82FD62F0E94E7070F
:101480006D2F8C2F0E943504C82F811105C08091CB
:101490007B0181110E9499048C2FDF91CF910895D7
:1014A000CF93C82F0E94E707811183E1E091720179
:1014B000EE0FFF0BE95EFD4F0190F081E02DC0952E
:1014C00090819C239083CF9108950F931F93CF9386
:1014D000C82F8B010E94E707811183E1EC2FEE0FEB
:1014E000FF0BE95EFD4F0190F081E02D9081F80146
:1014F0009083CF911F910F9108950F931F93CF93D6
:10150000DF93C82FE0917201F0917301EE0FFF1F7E
:10151000E95EFD4F008111810E94E707D82F8111FC
:10152000D3E1F801C1838081C823C11102C00E94A8
:10153000B3048D2FDF91CF911F910F910895DC019E
:10154000ED91FC9184819581DC01ED91FC910994F0
:101550001F93CF93DF93182FEB010E94E7078111B0
:1015600083E1E12FF0E0EE0FFF1FEA50FE4F019004
:10157000F081E02D0190F081E02D0190F081E02DCF
:1015800040815181628173814C835D836E837F834F
:101590004481558166817781488359836A837B833F
:1015A0004085518562857385488759876A877B871F
:1015B000DF91CF911F9108958F929F92AF92BF922A
:1015C000CF92DF92EF92FF920F931F93CF93C82F8A
:1015D0008B010E94E707811183E1EC2FF0E0EE0F11
:1015E000FF1FEA50FE4F0190F081E02D968591306B
:1015F00081F542855385648575850190F081E02DE4
:101600000190F081E02DC088D188E288F3884C15E4
:101610005D056E057F0540F484809580A680B780C7
:10162000480D591D6A1D7B1D4C195D096E097F0906
:10163000F8014083518362837383CF911F910F918F
:10164000FF90EF90DF90CF90BF90AF909F908F90E2
:10165000089585E0F2CFAF92BF92CF92DF92EF92E2
:10166000FF920F931F93CF93DF93A82E6A017B0104
:10167000B22ED32F0E94E707C82F8111C3E1EA2DB4
:10168000F0E0EE0FFF1FEA50FE4F0190F081E02DD9
:10169000868581113CC0A081B1810D90BC91A02DA7
:1016A00050964D915D916D917C915397C40ED51ECE
:1016B000E61EF71E14968D919D910D90BC91A02D64
:1016C0008C159D05AE05BF0548F4C81AD90AEA0A6B
:1016D000FB0A81E0C81AD108E108F108C286D38666
:1016E000E486F58606831783B086D18781E08687F6
:1016F000CF010E9433058C2FDF91CF911F910F9165
:10170000FF90EF90DF90CF90BF90AF900895C7E02B
:10171000F2CFAF92BF92CF92DF92EF92FF920F93F0
:101720001F93CF93DF93C82F5A016B0179010E9459
:10173000E707D82F8111D3E1EC2FF0E0EE0FFF1F68
:10174000EA50FE4F0190F081E02D8685811119C08D
:10175000A286B386C486D58606831783E086F18683
:1017600081E08687CF010E9433058D2FDF91CF91D5
:101770001F910F91FF90EF90DF90CF90BF90AF90AF
:101780000895D7E0F2CF0F931F93CF93DF93C82F25
:101790000E94E707D82F8111D3E1EC2FF0E0EE0F84
:1017A000FF1FEA50FE4F00811181F80186858130CC
:1017B00059F4C8010E94B705F80116868D2FDF91F4
:1017C000CF911F910F910895D5E0F8CFCF93DF937C
:1017D000FC01EE0FFF1FEE51FE4F0190F081E02D56
:1017E0008585882369F0C285D385CF010A960E943A
:1017F000BC07892B49F08A81882319F08CE001C04D
:101800008AE0DF91CF9108958DE0FBCF880F991F7B
:10181000FC01E452FE4F80819181DC01ED91FC914D
:1018200009949B01FC01EE0FFF1FEE51FE4F6081FA
:101830007181DB011696ED91FC91C9010994FC01BF
:10184000EE0FFF1FE452FE4F80819181DC01ED918C
:10185000FC9160E070E0099580E00895CF92DF92FE
:10186000EF92FF92CF93DF9300D000D000D0CDB79E
:10187000DEB76E834D8326EC30E0DC010E94D20E91
:1018800069837A838B839C83442339F081E080933E
:10189000690161E087E00E94380D60E081E00E940C
:1018A000380D60E082E00E94380D60E083E00E9425
:1018B000380DC12CD12C760189819A81AB81BC81F4
:1018C000C816D906EA06FB06C9F40E94BF0D60E0FF
:1018D0008E810E94380D9D819923D1F060E087E0D0
:1018E0000F900F900F900F900F900F90DF91CF916E
:1018F000FF90EF90DF90CF900C94380D61E08E81D7
:101900000E94380D8FEFC81AD80AE80AF80AD4CF17
:101910000F900F900F900F900F900F90DF91CF913D
:10192000FF90EF90DF90CF90089561E081E00E94FA
:10193000FE0C61E082E00E94FE0C61E083E00E9408
:10194000FE0C61E087E00E94FE0C60EC72E080918A
:101950006502909166020C94F70041E061E070E04E
:1019600088EC90E00E942E0C0C94B30040E062E002
:1019700070E08CEB92E00E942E0C0C94B30040E0DF
:1019800063E070E084E690E00E942E0C41E063E0AA
:1019900070E088EC90E00E942E0C0C94B3008AEB6F
:1019A00091E00C9444010895843099F038F4823029
:1019B000C1F0833041F0813081F008958730A1F08B
:1019C0008830C1F00895809180008F7780938000E7
:1019D0000895809180008F7DF9CF84B58F7784BD85
:1019E000089584B58F7DFBCF8091B0008F77809371
:1019F000B00008958091B0008F7DF9CFCF93DF9331
:101A000090E0FC01E458FF4F249180579F4FFC0168
:101A100084918823C9F090E0880F991FFC01E2555A
:101A2000FF4FA591B491FC01EC55FF4FC591D491A6
:101A30009FB761110CC0F8948C91209582238C93F0
:101A40008881282328839FBFDF91CF91089562303A
:101A500051F4F8943C91822F809583238C93888154
:101A6000822B8883F0CFF8948C91822B8C93EBCFD0
:101A70001F93CF93DF93162F282F30E0F901E859F9
:101A8000FF4F8491F901E458FF4FD491F901E057D9
:101A9000FF4FC491CC23A1F081110E94D40CEC2FF4
:101AA000F0E0EE0FFF1FEC55FF4FA591B4919FB7EB
:101AB000F8948C91111108C0D095D823DC939FBF66
:101AC000DF91CF911F9108958D2B8C93F8CF1F92AA
:101AD0000F920FB60F9211242F933F934F935F9362
:101AE0006F937F938F939F93AF93BF93EF93FF93E6
:101AF0008091390690913A06A0913B06B0913C0640
:101B00003091380623E0230F2D3798F50196A11D5B
:101B1000B11D209338068093390690933A06A0931E
:101B20003B06B0933C0680913D0690913E06A09105
:101B30003F06B09140060196A11DB11D80933D0660
:101B400090933E06A0933F06B09340060E94CF0CB0
:101B5000FF91EF91BF91AF919F918F917F916F9185
:101B60005F914F913F912F910F900FBE0F901F905B
:101B7000189526E8230F0296A11DB11DCACFCF9359
:101B8000DF9300D000D0CDB7DEB78FB7F8942091A7
:101B9000390630913A0640913B0650913C06298324
:101BA0003A834B835C838FBF69817A818B819C816F
:101BB0000F900F900F900F90DF91CF91089584B503
:101BC000826084BD84B5816084BD85B5826085BD39
:101BD00085B5816085BDEEE6F0E08081816080831F
:101BE000E1E8F0E010828081826080838081816002
:101BF0008083E0E8F0E0808181608083E1EBF0E0C9
:101C0000808184608083E0EBF0E08081816080836C
:101C1000EAE7F0E080818460808380818260808355
:101C20008081816080838081806880831092C10080
:101C30000895FFCFFFCFCF93DF93E82FEE0FFF0B79
:101C4000ED5DFD4FA081B18114968D919C9115970A
:101C500001971296ED91FC911397E80FF91F1D96CD
:101C60008C911D972BEA30E0823011F027EC30E0A8
:101C70002083EF012197388316969C91169717962B
:101C80008C91179721979883219788839F012950DA
:101C9000310986E0E90119928A95E9F7EF012A975F
:101CA00080E888832D5031098CE0E90119928A95EA
:101CB000E9F70D90BC91A02D7797ED93FC93DF9100
:101CC000CF910895089578940895F894089578949C
:101CD0000895F894089508950E94DF0D0E946B0EF8
:101CE0000E94D30C0E94950C809141060E94DB0754
:101CF00080E090E0089580916D0280934106089500
:101D000008951F920F920FB60F9211242F933F93B5
:101D10004F935F936F937F938F939F93AF93BF93F3
:101D2000EF93FF93E091D701F091D8010995FF91CE
:101D3000EF91BF91AF919F918F917F916F915F9143
:101D40004F913F912F910F900FBE0F901F901895BC
:101D50001F920F920FB60F9211242F933F934F9320
:101D60005F936F937F938F939F93AF93BF93EF9303
:101D7000FF93E091D901F091DA010995FF91EF917C
:101D8000BF91AF919F918F917F916F915F914F9193
:101D90003F912F910F900FBE0F901F901895F894C0
:101DA0000C94EE0E0E94DF0EB7FF0895821B930B7A
:101DB0000895EE0FFF1F0590F491E02D0994A29F66
:101DC000B001B39FC001A39F700D811D1124911D0F
:101DD000B29F700D811D1124911D0895F894FFCFBD
:101DE00000000000000000000000000000000000F3
:101DF00000000000000000000000000000000000E3
:101E000000000000000000000000000000000000D2
:101E100000000000000000000000000000000000C2
:101E200000000000000000000000000000000000B2
:101E300000000000000000000000000000000000A2
:101E40000000000000000000FF010000550200003B
:101E5000E105FFFFFFFFFFFFFFFF00000807FC0198
:101E600000000000AE0A0000AE0A000002050200F9
:101E7000000000B9050000B9050000020E020000D4
:101E80000000D1030000D1030000020000000204A2
:101E90000000000304000000010401000000FFFF37
:101EA0000000010000000000000000000000000031
:101EB00000000400FF0000800E800EFFDE010A0714
:101EC000E401E401000000003B07BB067C01D002F6
:101ED0000301D402D3029C018D017E01BA019F0A45
:101EE0000202B70600BA019F0A0B02B70602BA0146
:101EF0009F0A1402B70601DD04D903B501B001AB96
:101F000001E105470239022B025502D702D902002E
:101F100001B60C000002020100DB03DD030001AD8D
:101F20000C000001030101DF04E1040001BF0C000B
:101F30000000010101E605E8055000190E0000034C
:101F4000000100D201000001010101010100DD08D2
:101F5000AB08B4088D081C052A0809055308A60912
:101F6000500AD907650A1C097D0A4309A80A8C0989
:101F7000DC0AD1072B0B120A890BCC07C30B6609AD
:0E1F8000060CDD09110C2C091F0C3A0AE60BA9
:00000001FF
