:100000000C945D000C94300D0C94570D0C948500ED
:100010000C9485000C9485000C9485000C9485004C
:100020000C9485000C9485000C9485000C9485003C
:100030000C9485000C9485000C9485000C9485002C
:100040000C94160C0C9485000C9485000C9485007F
:100050000C9485000C9485000C9485000C9485000C
:100060000C9485000C94850000000008000201003B
:100070000003040700000000000000000102040863
:100080001020408001020408102001020408102002
:10009000040404040404040402020202020203032E
:1000A0000303030300000000250028002B000000CC
:1000B0000000240027002A002A0D11241FBECFEFC4
:1000C000D8E0DEBFCDBF12E0A0E0B1E0EEE3FBE19F
:1000D00002C005900D92AE39B107D9F726E0AEE91E
:1000E000B2E001C01D92A832B207E1F710E0CDE501
:1000F000D0E004C02197FE010E94880DCC35D107C5
:10010000C9F70E941B0D0C947E0D0C940000E4E1D5
:100110000E943C010895E2E10E943C010895EAE05A
:100120000E943C010895E1E00E943C010895E3E053
:100130000E943C010895E7E00E943C010895E5E03B
:100140000E943C010895E0E00E943C010895E2E035
:100150000E943C010895E4E00E943C010895ECE017
:100160000E943C010895EBE10E943C010895EEE0FD
:100170000E943C010895E8E00E943C010895E0E1FE
:100180000E943C010895EAE10E943C010895E6E0E6
:100190000E943C010895E8E10E943C010895E9E0D5
:1001A0000E943C010895EBE00E943C010895EDE0BF
:1001B0000E943C010895EFE00E943C010895E1E1B6
:1001C0000E943C010895E3E10E943C010895E5E1AD
:1001D0000E943C010895E7E10E943C010895E9E195
:1001E0000E943C010895E6E10E943C010895219699
:1001F0008A929A92AA92BA92CA92DA92EA92FA925F
:100200000A931A932197E0916901F0916A010080A5
:10021000F181E02DC083D1830895C0916B01D0910D
:100220006C01E881F981C081D181219619910991F0
:10023000F990E990D990C990B990A9909990899036
:10024000219708952F903F90E7E6F1E0CDB7DEB714
:10025000EDBFFEBF3F922F9208952F903F90CDBFEC
:10026000DEBF3F922F920895E0E80E943C0108957E
:10027000E0E40E943C0108952F923F924F925F92DA
:100280006F927F922FB62F92CF93DF937E2EF894AA
:10029000E0910001EF5FE0930001E13011F40E9472
:1002A0002201E0E0E0937901E72DE07849F00E9437
:1002B0007405F0917A01F17071F00E942A040BC06C
:1002C000E72DEC3140F4EE0FF0E0EA59FD4F0190DC
:1002D000F081E02D0995F0917901EF2FE17059F04F
:1002E000F27011F00E94F7008F938F2F0E94760317
:1002F0008F910E940D012091000121502093000157
:10030000222311F40E942D01DF91CF912F902FBE57
:100310007F906F905F904F903F902F900895FC01D9
:100320004081FB013081842F8F7090E0A0E0B0E02D
:10033000B695A795979587958F549D4FFC01208181
:10034000F42FF21B2F2F21704E70242B832F8F70D0
:1003500090E0A0E0B0E0B695A795979587958F546B
:100360009D4FFC019081F32FF91B9F2F91703E70E0
:10037000932B41E050E0291710F040E050E0CA0113
:1003800008958F929F92AF92BF92EF92FF920F9338
:100390001F93CF93DF938C01CA01DB014C015D01F8
:1003A000B694A7949794879482309105A105B105DE
:1003B00080F0880F991FE801C80FD91F7401EE0C57
:1003C000FF1CE00EF11EBE01C7010E948F01892BA8
:1003D00059F4DF91CF911F910F91FF90EF90BF9053
:1003E000AF909F908F90089598818981F701208127
:1003F00031813983288390838183D501C401D0CF93
:100400004F925F926F927F928F929F92AF92BF9224
:10041000CF92DF92EF92FF920F931F93CF93DF93D0
:1004200000D000D000D0CDB7DEB78D839E836A01A7
:100430007B01AD81BE814C90842D90E0A0E0B0E0C6
:1004400089839A83AB83BC8346015701880C991C2E
:10045000AA1CBB1C89819A81AB81BC818815990536
:10046000AA05BB05B8F40F900F900F900F900F9056
:100470000F90DF91CF911F910F91FF90EF90DF9040
:10048000CF90BF90AF909F908F907F906F905F9034
:100490004F900895240135019FEF491A590A690ABE
:1004A000790A89819A81AB81BC8184159505A6055D
:1004B000B70590F0B201660F771FAD81BE816A0F5C
:1004C0007B1FC401880F991F8A0F9B1F0E948F01F9
:1004D000892B11F0530142018401000F111FED819E
:1004E000FE810E0F1F1FCC0CDD1CCE0EDF1EB801CF
:1004F000C6010E948F01892B09F4B5CFD6019C91CA
:1005000011968C911197F801208131812D933C93A4
:10051000908381837501640197CFE6EBF2E040811F
:100520004F5F408350E060E070E0E82FEE0FFF0B7C
:10053000E75EFD4F0190F081E02D238530E0F90169
:10054000EF54FD4F908191509083FA01EE0FFF1F01
:10055000EA54FD4F9170220F331F292B2083818392
:1005600086EB92E00C94C101E6EBF2E040814F5F34
:10057000408350E060E070E0FA01EE0FFF1FEA54A4
:10058000FD4FA82FAA0FBB0BAF5EBD4F0D90BC91C6
:10059000A02D13969C919083818386EB92E00C941E
:1005A000C1010F931F93CF93DF93C6EBD2E08881F5
:1005B0009FEF980F98830A811B8190E0880F991F05
:1005C000FC01EA54FD4F808191819B838A8341E045
:1005D00050E060E070E0CE010E940002C801DF91AF
:1005E000CF911F910F9108958091710190917201A7
:1005F000A0917301B09174018F3F2FEF9207A20772
:10060000B20731F00397A105B10524F082E0089507
:1006100080E0089581E00895CF93DF93880F990BD0
:10062000FC01E75EFD4F0190F081E02D0084F18533
:10063000E02D3097E1F02281211119C021E02283C1
:100640008F5E9D4FEC01A881B98113968C91139711
:100650008183808190E0FC01EF54FD4F2081215087
:1006600020832170880F991F822B13968C93DF9122
:10067000CF910895CF93DF93880F990BFC01E75E2C
:10068000FD4F0190F081E02D0084F185E02D309741
:1006900061F02281213049F412828F5E9D4FEC017E
:1006A000A881B981818113968C93DF91CF910895B0
:1006B0008091750190917601A0917701B0917801B8
:1006C00040917101509172016091730170917401B8
:1006D000481759076A077B0741F0E0916F01F091D5
:1006E000700121E024830C94B4020895CF93DF932A
:1006F000D0E0C0E0882389F0D0916901C0916A01FF
:10070000E0916D01F0916E018481833031F081E0E0
:100710008483809171010E94B402E0916F01F09195
:100720007001F0936E01E0936D0180916B019091E7
:100730006C0190936A0180936901809175013091F9
:100740007601209177019091780180937101309327
:100750007201209373019093740192E094830E943C
:100760000C038D2F9C2FDF91CF9108958091710103
:100770000E943A03E0916D01F0916E018281811136
:1007800085E084830895CF93DF93282F220F330BC6
:10079000F901EF5EFD4FC081D1819A81275E3D4F07
:1007A000D901ED91FC912485921780F4911105C037
:1007B00095E09C8391E090937A010E948D028A815A
:1007C0008F5F8A8380E0DF91CF91089584E0FBCF33
:1007D000E82FEE0FFF0BEF5EFD4F0190F081E02D53
:1007E000118210820C94CA0C1F93CF93DF930E9446
:1007F000D102182F892F492F092E000C550B660B9B
:10080000770B409375015093760160937701709355
:100810007801292F220F330BF901EF5EFD4FC081C4
:10082000D181D0937001C0936F01275E3D4FF901D4
:100830002081318130936C0120936B019C81953034
:1008400019F40E94E8031B8310927A01DF91CF9183
:100850001F910895E0917501F0917601EE0FFF1F51
:10086000EF5EFD4F0190F081E02D9091B802838101
:10087000891740F40E9458030E94F40383E0809398
:100880007901089580E0FBCF81E0809379010C9499
:10089000F403EF92FF920F931F93CF93DF93C1E086
:1008A00001C0CC0F8A95EAF783E00E94C30302E6F9
:1008B00012E0D0E0F80181918F018C23882319F098
:1008C0008D2F0E94C303DF5FD330A1F70FE512E045
:1008D00080EFE82E81E0F82ED1E0F80181918F01C0
:1008E0008C23882339F0F70180819181FC01D68720
:1008F0000E94B204F2E0EF0EF11C82E0023618070B
:1009000061F7DF91CF911F910F91FF90EF900895C4
:100910000E94EE0681110E940E07E0916D01F09198
:100920006E0180819181892B21F0809171010E945B
:10093000C6080C9433080E94EE0681110E940E072F
:10094000E0916D01F0916E0180819181892B21F000
:10095000809171010E94C6080C941E0881E080936A
:100960009E020895CF92DF92EF92FF920F931F9312
:10097000CF93DF93FC01A081B1810D90BC91A02D9C
:1009800054968D919C915597009709F445C04285E6
:1009900053856485758520E030E0EC01CA84DB84F2
:1009A000EC84FD844C155D056E057F0508F049C09B
:1009B0008C0113830283358324830115110519F0FB
:1009C000E801FD83EC832115310509F444C0E901F8
:1009D000FB83EA835696CD91DC9157970A851B8558
:1009E0002C853D855096CD90DD90ED90FC905397F1
:1009F0000C151D052E053F0598F5C416D506E6060F
:100A0000F70628F0401751076207730788F45796D6
:100A1000FC93EE9356970CC05596FC93EE93549727
:100A20005796FC93EE935697158214821382128286
:100A3000DF91CF911F910F91FF90EF90DF90CF90BA
:100A40000895EC010A811B819C010115110509F42F
:100A5000B0CFC801A2CF5596FC93EE935497BACF6E
:100A6000C416D506E606F70618F7CCCFCF93DF936A
:100A7000FC01A081B1810D90BC91A02DC281D381D8
:100A800054968D919C9155978E179F0721F45596FA
:100A9000DC93CE93549756968D919C9157978E17D1
:100AA0009F0721F45796DC93CE935697209721F019
:100AB000848195819D838C830480F581E02D30971E
:100AC00011F0D383C28356968D919C915797892BB1
:100AD00041F454968D919C91559757969C938E9383
:100AE0005697DF91CF910895EF92FF920F931F9346
:100AF000CF93DF93EC0180919E02882309F4ADC06F
:100B00008C859D85AE85BF850196A11DB11D8C8705
:100B10009D87AE87BF87488159816A817B81841711
:100B20009507A607B70709F098C088899989AA8907
:100B3000BB890196A11DB11D4C815D816E817F81B4
:100B4000481759076A077B0718F480E090E0DC013A
:100B5000888B998BAA8BBB8B1C861D861E861F8655
:100B60000E891F890115110509F477C0F801428526
:100B7000538564857585481759076A077B0709F00F
:100B80006CC09F010280F381E02D309749F04285CF
:100B900053856485758584179507A607B70789F37C
:100BA000D80114964D915C914115510529F0DA0157
:100BB0001396FC93EE9312978C899D89309741F49C
:100BC0000817190711F41D8A1C8AEC89FD8907C0D2
:100BD000558344830817190711F4FD8BEC8BFF8BA9
:100BE000EE8BF901138212827801D80112960D91D1
:100BF0001C911397ED91FC910280F381E02DC701C8
:100C00000995F70186819781A085B1850097A10597
:100C1000B10551F14285538564857585840F951F13
:100C2000A61FB71F4C815D816E817F8148175907D0
:100C30006A077B0738F4841B950BA60BB70B01974B
:100C4000A109B109F70182879387A487B587C701F6
:100C50000E94B2040115110539F6DF91CF911F9161
:100C60000F91FF90EF9008951686F4CFFC018281DA
:100C70000C94C303FB01428553852485022E000C8E
:100C8000330BDC011216130614F080E00895FA010C
:100C900081918D9321503109AF01F4CF382F292F45
:100CA000CA01009749F0DA01ED91FC91309721F0EB
:100CB000AB01632F722F099481E0089581E00895BC
:100CC000FF920F931F93CF93DF93062FF72EDC0134
:100CD0001296CD91DC91209711F1EC81FD81602F6E
:100CE0007F2DCE010995182F81110DC08881998122
:100CF000009721F40A80DB81C02DEDCFDC01ED915E
:100D0000FC910995F7CF8E30A9F380E00E94BD06D3
:100D1000812FDF91CF911F910F91FF90089510E0E7
:100D2000F4CFEF92FF920F931F93CF93DF93EC01D9
:100D3000162F072FEA84FB8448855985C7010E9436
:100D40004E068823C1F08C85082E000C990BD70124
:100D50001816190644F080E0DF91CF911F910F9192
:100D6000FF90EF900895E12FF02F21912D9301979F
:100D70001E2F0F2FEDCF8EE0EFCF80917A018111E2
:100D80000C942A040895FC01A081B1818C918823E0
:100D900039F011962C9184819581820F911D0895CF
:100DA00080E090E008950E94EE0680916801089529
:100DB000809368010E9449040E94AE040C9444048C
:100DC0000C94C90CCF93C82F0E94F402811102C069
:100DD0000E94110D8C2FCF910C948B002091AB02AF
:100DE0002130D1F04091A3025091A4026091A5025C
:100DF0007091A6028091A7029091A802A091A902E9
:100E0000B091AA02842B952BA62BB72B21E0892B1E
:100E10008A2B8B2B09F420E0822F08951092AB02CD
:100E20001092A7021092A8021092A9021092AA0290
:100E30001092A3021092A4021092A5021092A60290
:100E400080919F029091A002A091A102B091A20274
:100E50008093AC029093AD02A093AE02B093AF0228
:100E600008950E94140D8091AC029091AD02A09162
:100E7000AE02B091AF020196A11DB11D8093AC02EC
:100E80009093AD02A093AE02B093AF028091A702FF
:100E90009091A802A091A902B091AA020196A11D69
:100EA000B11D8093A7029093A802A093A902B093CA
:100EB000AA0208958091A7029091A802A091A90288
:100EC000B091AA020097A105B10569F14091AC0269
:100ED0005091AD026091AE027091AF024150510944
:100EE000610971094093AC025093AD026093AE0268
:100EF0007093AF020197A109B1098093A702909363
:100F0000A802A093A902B093AA028091AC0290918A
:100F1000AD02A091AE02B091AF02892B8A2B8B2B30
:100F200011F40C94120D08958091A7029091A802DB
:100F3000A091A902B091AA024091A3025091A402EB
:100F40006091A5027091A602842B952BA62BB72B3E
:100F5000892B8A2B8B2B29F40E94140D81E080931E
:100F6000AB0208958091AB02882321F01092AB026E
:100F70000C94120D08950E94180D8091AC0290916E
:100F8000AD02A091AE02B091AF020196A11DB11DBC
:100F90008093AC029093AD02A093AE02B093AF02E7
:100FA0008091A3029091A402A091A502B091A60203
:100FB0000196A11DB11D8093A3029093A402A0935A
:100FC000A502B093A60208958091A3029091A40275
:100FD000A091A502B091A6020097A105B10569F103
:100FE0004091AC025091AD026091AE027091AF029F
:100FF00041505109610971094093AC025093AD020F
:101000006093AE027093AF020197A109B10980937A
:10101000A3029093A402A093A502B093A60280918C
:10102000AC029091AD02A091AE02B091AF02892BBB
:101030008A2B8B2B11F40C94160D08950E94EE064A
:10104000811183E10895CF93C82F0E94EE068C2F63
:101050000E94C303C82F80917A0181110E942A0443
:101060008C2FCF910895CF930E94EE06C82F811147
:10107000C3E1E0916D01F0916E0182818150828324
:101080000E94B60381E0809379010E94F4038C2FC3
:10109000CF910895CF93C82F0E94EE06E0916D0185
:1010A000F0916E018281815082838C2F0E94C30354
:1010B000C82F81110AC00E94B60381E08093790194
:1010C0000E94F4038C2FCF910895E0916D01F0916F
:1010D0006E0182818F5F8283F5CFCF930E94EE06EF
:1010E000C82F8111C3E1809171010E943A030E94CF
:1010F0002A048091710190917201A0917301B091C5
:101100007401409175015091760160917701709161
:10111000780184179507A607B70711F40E940C03FE
:101120008C2FCF910895CF93DF93EC010E94EE06B0
:10113000811183E1409171015091720160917301BD
:1011400070917401433051056105710514F04091AF
:10115000DA014883DF91CF9108950F931F93CF93C6
:10116000C82F8B010E94EE06811183E1EC2FEE0F58
:10117000FF0BEF5EFD4F0190F081E02D94819370A5
:10118000F8019083CF911F910F910895E82FEE0FF2
:10119000FF0BEF5EFD4FA081B181ED91FC911197A6
:1011A000309789F01D921C928091DA01DF01038053
:1011B000F481E02D12968C93129714961C921E9235
:1011C0001397309799F70895CF93C82F0E94EE0692
:1011D000811183E1EC2FF0E0EE0FFF1FE75AFD4F86
:1011E0000190F081E02D909171019283A0916D01A9
:1011F000B0916E012D913C91119734832383119608
:10120000FC93EE9313969C9113979183208196956E
:10121000921768F430E0F901EF54FD4F908191503E
:1012200090839170220F331F292B13962C93CF910B
:101230000895CF93DF93C82F0E94EE06D82F811117
:10124000D3E1EC2FF0E0EE0FFF1FE75AFD4F0190C6
:10125000F081E02DA0916D01B0916E018181139616
:101260008C931397838194818D939C931482138222
:101270008091DA0182830E942A048D2FDF91CF9121
:101280000895DC01ED91FC9184819581DC01ED9163
:10129000FC9109941F93CF93DF93182FEB010E94C9
:1012A000EE06811183E1E12FF0E0EE0FFF1FE05128
:1012B000FE4F0190F081E02D0190F081E02D019032
:1012C000F081E02D40815181628173814C835D8387
:1012D0006E837F83448155816681778148835983FA
:1012E0006A837B83408551856285738548875987EA
:1012F0006A877B87DF91CF911F9108958F929F928C
:10130000AF92BF92CF92DF92EF92FF920F931F9313
:10131000CF93C82F8B010E94EE06811183E1EC2F41
:10132000F0E0EE0FFF1FE051FE4F0190F081E02D45
:101330009685913081F54285538564857585019048
:10134000F081E02D0190F081E02DC088D188E28805
:10135000F3884C155D056E057F0540F4848095800B
:10136000A680B780480D591D6A1D7B1D4C195D096B
:101370006E097F09F8014083518362837383CF91A3
:101380001F910F91FF90EF90DF90CF90BF90AF90A3
:101390009F908F90089585E0F2CFAF92BF92CF9249
:1013A000DF92EF92FF920F931F93CF93DF93A82EBC
:1013B0006A017B01B22ED32F0E94EE06C82F811145
:1013C000C3E1EA2DF0E0EE0FFF1FE051FE4F019068
:1013D000F081E02D868581113CC0A081B1810D9006
:1013E000BC91A02D50964D915D916D917C9153973C
:1013F000C40ED51EE61EF71E14968D919D910D907C
:10140000BC91A02D8C159D05AE05BF0548F4C81AEA
:10141000D90AEA0AFB0A81E0C81AD108E108F108F2
:10142000C286D386E486F58606831783B086D18785
:1014300081E08687CF010E94B2048C2FDF91CF918B
:101440001F910F91FF90EF90DF90CF90BF90AF90E2
:101450000895C7E0F2CFAF92BF92CF92DF92EF92A2
:10146000FF920F931F93CF93DF93C82F5A016B0105
:1014700079010E94EE06D82F8111D3E1EC2FF0E024
:10148000EE0FFF1FE051FE4F0190F081E02D8685A9
:10149000811119C0A286B386C486D58606831783B8
:1014A000E086F18681E08687CF010E94B2048D2F0D
:1014B000DF91CF911F910F91FF90EF90DF90CF9030
:1014C000BF90AF900895D7E0F2CF0F931F93CF93C3
:1014D000DF93C82F0E94EE06D82F8111D3E1EC2FA5
:1014E000F0E0EE0FFF1FE051FE4F00811181F80187
:1014F0008685813059F4C8010E943605F8011686A8
:101500008D2FDF91CF911F910F910895D5E0F8CFE6
:10151000CF93DF93FC01EE0FFF1FEF51FE4F0190C1
:10152000F081E02D8585882369F0C285D385CF01C0
:101530000A960E94C306892B49F08A81882319F0F4
:101540008CE001C08AE0DF91CF9108958DE0FBCF60
:10155000880F991FFC01E552FE4F80819181DC01CB
:10156000ED91FC9109949B01FC01EE0FFF1FEF51DF
:10157000FE4F60817181DB011696ED91FC91C901EE
:101580000994FC01EE0FFF1FE552FE4F808191810F
:10159000DC01ED91FC9160E070E0099580E0089538
:1015A000CF92DF92EF92FF920F931F93CF93DF932F
:1015B00000D000D00F92CDB7DEB7062F142F26EC47
:1015C00030E0DC010E94810D6A837B838C839D83E4
:1015D000E0905D02F0905E02411141C060E081E068
:1015E0000E94E70B60E082E00E94E70B60E083E08E
:1015F0000E94E70B61E0802F0E94E70BC12CD12CE9
:1016000076018A819B81AC81BD81C816D906EA0624
:10161000FB0671F560E0802F0E94E70B112369F053
:10162000BE016F5F7F4F80915B0290915C020E94D0
:10163000E70060E087E00E94E70B0F900F900F90AB
:101640000F900F90DF91CF911F910F91FF90EF902E
:10165000DF90CF90089561E087E00E94E70BBE0124
:101660006F5F7F4FC7010E94EB008330A1F3B6CFBD
:101670000E946E0C8FEFC81AD80AE80AF80AC1CF88
:1016800061E081E00E94AD0B61E082E00E94AD0B61
:1016900061E083E00E94AD0B61E087E00C94AD0B4C
:1016A0008091B002811103C082E08093B00241E0DA
:1016B00061E070E088EC90E00E94D00A8091B00276
:1016C00081508093B0020C94B30040E062E070E07F
:1016D0008CEB92E00E94D00A0C94B30040E063E0EF
:1016E00070E084E690E00E94D00A41E063E070E0A0
:1016F00088EC90E00E94D00A0C94B30089EB91E052
:101700000C9434010895843099F038F48230C1F09B
:10171000833041F0813081F008958730A1F0883026
:10172000C1F00895809180008F77809380000895A4
:10173000809180008F7DF9CF84B58F7784BD089527
:1017400084B58F7DFBCF8091B0008F778093B00000
:1017500008958091B0008F7DF9CFCF93DF9390E013
:10176000FC01E458FF4F249180579F4FFC01849166
:101770008823C9F090E0880F991FFC01E255FF4FC4
:10178000A591B491FC01EC55FF4FC591D4919FB741
:1017900061110CC0F8948C91209582238C938881E0
:1017A000282328839FBFDF91CF910895623051F4A1
:1017B000F8943C91822F809583238C938881822B8F
:1017C0008883F0CFF8948C91822B8C93EBCF1F936E
:1017D000CF93DF93162F282F30E0F901E859FF4F00
:1017E0008491F901E458FF4FD491F901E057FF4F7C
:1017F000C491CC23A1F081110E94830BEC2FF0E067
:10180000EE0FFF1FEC55FF4FA591B4919FB7F894D1
:101810008C91111108C0D095D823DC939FBFDF9124
:10182000CF911F9108958D2B8C93F8CF1F920F921B
:101830000FB60F9211242F933F934F935F936F93A3
:101840007F938F939F93AF93BF93EF93FF93809179
:101850001F0690912006A0912106B091220630919A
:101860001E0623E0230F2D3798F50196A11DB11D0B
:1018700020931E0680931F0690932006A0932106B6
:10188000B09322068091230690912406A09125060C
:10189000B09126060196A11DB11D80932306909359
:1018A0002406A0932506B09326060E947E0BFF9186
:1018B000EF91BF91AF919F918F917F916F915F91C8
:1018C0004F913F912F910F900FBE0F901F90189541
:1018D00026E8230F0296A11DB11DCACFCF93DF9337
:1018E00000D000D0CDB7DEB78FB7F89420911F0697
:1018F00030912006409121065091220629833A8397
:101900004B835C838FBF69817A818B819C810F902F
:101910000F900F900F90DF91CF91089584B5826062
:1019200084BD84B5816084BD85B5826085BD85B583
:10193000816085BDEEE6F0E0808181608083E1E832
:10194000F0E010828081826080838081816080836A
:10195000E0E8F0E0808181608083E1EBF0E080816D
:1019600084608083E0EBF0E0808181608083EAE73F
:10197000F0E08081846080838081826080838081C8
:10198000816080838081806880831092C100089587
:10199000FFCFFFCFCF93DF93E82FEE0FFF0BE75E74
:1019A000FD4FA081B18114968D919C91159701975F
:1019B0001296ED91FC911397E80FF91F1D968C91EB
:1019C0001D972BEA30E0823011F027EC30E02083C5
:1019D000EF012197388316969C91169717968C9154
:1019E000179721979883219788839F012950310960
:1019F00086E0E90119928A95E9F7EF012A9780E8D4
:101A000088832D5031098CE0E90119928A95E9F714
:101A10000D90BC91A02D7797ED93FC93DF91CF9122
:101A20000895089578940895F89408957894089501
:101A3000F894089508950E948E0C0E941A0D0E9439
:101A4000820B0E94400B809127060E94E20680E0F4
:101A500090E0089580916502809327060895089587
:101A60001F920F920FB60F9211242F933F934F9313
:101A70005F936F937F938F939F93AF93BF93EF93F6
:101A8000FF93E091D601F091D7010995FF91EF9175
:101A9000BF91AF919F918F917F916F915F914F9186
:101AA0003F912F910F900FBE0F901F9018951F928E
:101AB0000F920FB60F9211242F933F934F935F9382
:101AC0006F937F938F939F93AF93BF93EF93FF9306
:101AD000E091D801F091D9010995FF91EF91BF9163
:101AE000AF919F918F917F916F915F914F913F91B6
:101AF0002F910F900FBE0F901F901895F8940C9493
:101B00009D0D0E948E0DB7FF0895821B930B0895C3
:101B1000EE0FFF1F0590F491E02D0994A29FB001F4
:101B2000B39FC001A39F700D811D1124911DB29F11
:0E1B3000700D811D1124911D0895F894FFCFB2
:101B3E000000000000000000000000000000000097
:101B4E000000000000000000000000000000000087
:101B5E000000000000000000000000000000000077
:101B6E000000000000000000000000000000000067
:101B7E000000000000000000000000000000000057
:101B8E000000000000000000000000000000000047
:101B9E000000000000000000FF00004B020000C724
:101BAE0005FFFFFFFFFFFFFFFF00005E06F60100CF
:101BBE00000000AE0A0000AE0A000002FF010000A5
:101BCE000000B9050000B90500000208020000007F
:101BDE0000D1030000D10300000200000003040046
:101BEE0000000204000000010401000000FFFF00DD
:101BFE0000010000000000000000000000000000D6
:101C0E00000400FF00002F0D2F0DFFDD016006E325
:101C1E0001E3010000000091063A067B01C00201BB
:101C2E009B018C017D01B9014109FC01360600B909
:101C3E000141090502360601B90141090E023606B7
:101C4E0002B401AF01AA01C7053D022F0221024BCA
:101C5E0002C102C3020001500B000002030100C3C7
:101C6E0003C5030001650B000001020100C504C796
:101C7E000400016E0B000000010100CC05CE0550E2
:101C8E0000C80C000003000100D10100000000019B
:101C9E00010101010100E407B207BB0794079B0491
:101CAE00310788045A076D081909E0064A09230806
:101CBE007E094A08CD0993082B0AD806650AD30671
:0E1CCE00A80A880AB30AE408C10AAD08330860
:00000001FF
