:100000000C945D000C94B70E0C94DE0E0C948500DD
:100010000C9485000C9485000C9485000C9485004C
:100020000C9485000C9485000C9485000C9485003C
:100030000C9485000C9485000C9485000C9485002C
:100040000C949D0D0C9485000C9485000C948500F7
:100050000C9485000C9485000C9485000C9485000C
:100060000C9485000C94850000000008000201003B
:100070000003040700000000000000000102040863
:100080001020408001020408102001020408102002
:10009000040404040404040402020202020203032E
:1000A0000303030300000000250028002B000000CC
:1000B0000000240027002A00B10E11241FBECFEF3C
:1000C000D8E0DEBFCDBF12E0A0E0B1E0ECE4FEE19D
:1000D00002C005900D92A03BB107D9F726E0A0EB36
:1000E000B2E001C01D92A334B207E1F710E0CDE504
:1000F000D0E004C02197FE010E940F0FCC35D1073C
:10010000C9F70E94A20E0C94050F0C940000E6E1C2
:100110000E944C010895E2E10E944C010895EAE03A
:100120000E944C010895E1E00E944C010895E3E033
:100130000E944C010895E7E00E944C010895E5E01B
:100140000E944C010895E0E00E944C010895E2E015
:100150000E944C010895E4E00E944C010895ECE0F7
:100160000E944C010895ECE10E944C010895EEE0DC
:100170000E944C010895E8E10E944C010895E0E1DD
:100180000E944C010895E8E00E944C010895E6E0C9
:100190000E944C010895EAE10E944C010895E4E1B7
:1001A0000E944C010895EEE10E944C010895E9E09F
:1001B0000E944C010895EBE00E944C010895EDE08F
:1001C0000E944C010895EFE00E944C010895E1E186
:1001D0000E944C010895E3E10E944C010895E5E17D
:1001E0000E944C010895E7E10E944C010895E9E165
:1001F0000E944C010895EBE10E944C010895EDE14D
:100200000E944C010895EFE10E944C01089521964F
:100210008A929A92AA92BA92CA92DA92EA92FA923E
:100220000A931A932197E0916901F0916A01008085
:10023000F181E02DC083D1830895C0916B01D091ED
:100240006C01E881F981C081D181219619910991D0
:10025000F990E990D990C990B990A9909990899016
:10026000219708952F903F90E7E6F1E0CDB7DEB7F4
:10027000EDBFFEBF3F922F9208952F903F90CDBFCC
:10028000DEBF3F922F920895E0E80E944C0108954E
:10029000E0E40E944C0108952F923F924F925F92AA
:1002A0006F927F922FB62F92CF93DF937E2EF8948A
:1002B000E0910001EF5FE0930001E13011F40E9452
:1002C0003201E0E0E0937901E72DE07849F00E9407
:1002D000F505F0917A01F17071F00E9499040BC05C
:1002E000E72DEC3140F4EE0FF0E0E159FD4F0190C5
:1002F000F081E02D0995F0917901EF2FE17059F02F
:10030000F27011F00E9407018F938F2F0E948603D5
:100310008F910E941D012091000121502093000126
:10032000222311F40E943D01DF91CF912F902FBE27
:100330007F906F905F904F903F902F900895FC01B9
:100340004081FB013081842F8F7090E0A0E0B0E00D
:10035000B695A795979587958E539D4FFC01208163
:10036000F42FF21B2F2F21704E70242B832F8F70B0
:1003700090E0A0E0B0E0B695A795979587958E534D
:100380009D4FFC019081F32FF91B9F2F91703E70C0
:10039000932B41E050E0291710F040E050E0CA01F3
:1003A00008958F929F92AF92BF92EF92FF920F9318
:1003B0001F93CF93DF938C01CA01DB014C015D01D8
:1003C000B694A7949794879482309105A105B105BE
:1003D00080F0880F991FE801C80FD91F7401EE0C37
:1003E000FF1CE00EF11EBE01C7010E949F01892B78
:1003F00059F4DF91CF911F910F91FF90EF90BF9033
:10040000AF909F908F90089598818981F701208106
:1004100031813983288390838183D501C401D0CF72
:100420004F925F926F927F928F929F92AF92BF9204
:10043000CF92DF92EF92FF920F931F93CF93DF93B0
:1004400000D000D000D0CDB7DEB78D839E836A0187
:100450007B01AD81BE814C90842D90E0A0E0B0E0A6
:1004600089839A83AB83BC8346015701880C991C0E
:10047000AA1CBB1C89819A81AB81BC818815990516
:10048000AA05BB05B8F40F900F900F900F900F9036
:100490000F90DF91CF911F910F91FF90EF90DF9020
:1004A000CF90BF90AF909F908F907F906F905F9014
:1004B0004F900895240135019FEF491A590A690A9E
:1004C000790A89819A81AB81BC8184159505A6053D
:1004D000B70590F0B201660F771FAD81BE816A0F3C
:1004E0007B1FC401880F991F8A0F9B1F0E949F01C9
:1004F000892B11F0530142018401000F111FED817E
:10050000FE810E0F1F1FCC0CDD1CCE0EDF1EB801AE
:10051000C6010E949F01892B09F4B5CFD6019C9199
:1005200011968C911197F801208131812D933C9384
:10053000908381837501640197CFE7ECF2E04081FD
:100540004F5F408350E060E070E0E82FEE0FFF0B5C
:10055000EE5DFD4F0190F081E02D238530E0F90143
:10056000EE53FD4F908191509083FA01EE0FFF1FE3
:10057000E953FD4F9170220F331F292B2083818374
:1005800087EC92E00C94D101E7ECF2E040814F5F00
:10059000408350E060E070E0FA01EE0FFF1FE95386
:1005A000FD4FA82FAA0FBB0BA65EBD4F0D90BC91AF
:1005B000A02D13969C919083818387EC92E00C94FC
:1005C000D1010F931F93CF93DF93C7ECD2E08881C3
:1005D0009FEF980F98830A811B8190E0880F991FE5
:1005E000FC01E953FD4F808191819B838A8341E027
:1005F00050E060E070E0CE010E941002C801DF917F
:10060000CF911F910F910895809171019091720186
:10061000A0917301B09174018F3F2FEF9207A20751
:10062000B20731F00397A105B10524F082E00895E7
:1006300080E0089581E00895CF93DF93880F990BB0
:10064000FC01EE5DFD4F0190F081E02D0084F1850D
:10065000E02D3097E1F02281211119C021E02283A1
:10066000865E9D4FEC01A881B98113968C911397FA
:100670008183808190E0FC01EE53FD4F2081215069
:1006800020832170880F991F822B13968C93DF9102
:10069000CF910895CF93DF93880F990BFC01EE5D06
:1006A000FD4F0190F081E02D0084F185E02D309721
:1006B00061F02281213049F41282865E9D4FEC0167
:1006C000A881B981818113968C93DF91CF91089590
:1006D0008091750190917601A0917701B091780198
:1006E0004091710150917201609173017091740198
:1006F000481759076A077B0741F0E0916F01F091B5
:10070000700121E024830C94C4020895CF93DF93F9
:10071000D0E0C0E0882389F0D0916901C0916A01DE
:10072000E0916D01F0916E018481833031F081E0C0
:100730008483809171010E94C402E0916F01F09165
:100740007001F0936E01E0936D0180916B019091C7
:100750006C0190936A0180936901809175013091D9
:100760007601209177019091780180937101309307
:100770007201209373019093740192E094830E941C
:100780001C038D2F9C2FDF91CF910895CF92DF9284
:10079000EF92FF92C0907101D0907201E0907301CE
:1007A000F09074018C2D0E944A03E0916D01F0914C
:1007B0006E0182818823B9F085E0848382E0C816C7
:1007C000D104E104F10454F4F601EE0FFF1FEA5ED8
:1007D000FD4F0190F081E02D11821082FF90EF908B
:1007E000DF90CF9008951482F9CFCF93DF93282F15
:1007F000220F330BF901E65EFD4FC081D1819A8152
:10080000F901EE5DFD4F0190F081E02D44859417D4
:10081000C8F491110EC095E09C8382303CF42A5EAE
:100820003D4FD901ED91FC911182108291E090939E
:100830007A010E949D028A818F5F8A8380E0DF9126
:10084000CF91089584E0FBCFCF93E82FEE0FFF0BFD
:10085000E65EFD4F0190F081E02DC1E0C4830E946F
:100860009D02C0937A01CF910895282F220F330B58
:10087000F901E65EFD4F0190F081E02D44814423B3
:10088000A1F02A5E3D4FD901ED91FC919081962B0C
:10089000908391816923611102C080E008951182E3
:1008A0004330D9F70E942404F8CF87E00895E82F59
:1008B000EE0FFF0BE65EFD4F0190F081E02D1182FF
:1008C00010820C94510E1F93CF93DF930E94E1028C
:1008D000182F892F492F092E000C550B660B770B0B
:1008E000409375015093760160937701709378017E
:1008F000292F220F330BF901E65EFD4FC081D18114
:10090000D0937001C0936F012E5D3D4FF90120819E
:10091000318130936C0120936B019C81953019F4E7
:100920000E9457041B8310927A01DF91CF911F918F
:100930000895E0917501F0917601EE0FFF1FE65EDC
:10094000FD4F0190F081E02D9091C90283818917BC
:1009500040F40E9468030E94630483E0809379015D
:10096000089580E0FBCF1F93CF93DF93C9E6D1E0DA
:10097000EC81FD8113E0148388850E944A03188B63
:10098000DF91CF911F910C94630481E080937901F2
:100990000C946304EF92FF920F931F93CF93DF9316
:1009A000C1E001C0CC0F8A95EAF783E00E94F5030D
:1009B0000BE612E0D0E0F80181918F018C238823AF
:1009C00019F08D2F0E94F503DF5FD330A1F708E601
:1009D00012E085EFE82E81E0F82ED1E0F801819158
:1009E0008F018C23882339F0F70180819181FC01EC
:1009F000D6870E943305F2E0EF0EF11C82E00B3641
:100A0000180761F7DF91CF911F910F91FF90EF9041
:100A100008950E94E70781110E940708E0916D0187
:100A2000F0916E0180819181892B21F0809171017B
:100A30000E94BF090C942C090E94E70781110E94B3
:100A40000708E0916D01F0916E0180819181892B01
:100A500021F0809171010E94BF090C94170981E077
:100A60008093B0020895CF92DF92EF92FF920F939E
:100A70001F93CF93DF93FC01A081B1810D90BC91B6
:100A8000A02D54968D919C915597009709F445C0DF
:100A9000428553856485758520E030E0EC01CA8489
:100AA000DB84EC84FD844C155D056E057F0508F044
:100AB00049C08C01138302833583248301151105FA
:100AC00019F0E801FD83EC832115310509F444C0D8
:100AD000E901FB83EA835696CD91DC9157970A850D
:100AE0001B852C853D855096CD90DD90ED90FC903A
:100AF00053970C151D052E053F0598F5C416D50610
:100B0000E606F70628F0401751076207730788F4D6
:100B10005796FC93EE9356970CC05596FC93EE9324
:100B200054975796FC93EE9356971582148213822E
:100B30001282DF91CF911F910F91FF90EF90DF9084
:100B4000CF900895EC010A811B819C0101151105CC
:100B500009F4B0CFC801A2CF5596FC93EE935497F9
:100B6000BACFC416D506E606F70618F7CCCFCF9352
:100B7000DF93FC01A081B1810D90BC91A02DC281B9
:100B8000D38154968D919C9155978E179F0721F490
:100B90005596DC93CE93549756968D919C9157978A
:100BA0008E179F0721F45796DC93CE935697209784
:100BB00021F0848195819D838C830480F581E02DD3
:100BC000309711F0D383C28356968D919C9157979D
:100BD000892B41F454968D919C91559757969C93EF
:100BE0008E935697DF91CF910895EF92FF920F93D6
:100BF0001F93CF93DF93EC018091B002882309F417
:100C0000ADC08C859D85AE85BF850196A11DB11DAA
:100C10008C879D87AE87BF87488159816A817B8198
:100C200084179507A607B70709F098C0888999899E
:100C3000AA89BB890196A11DB11D4C815D816E8180
:100C40007F81481759076A077B0718F480E090E016
:100C5000DC01888B998BAA8BBB8B1C861D861E861C
:100C60001F860E891F890115110509F477C0F80147
:100C70004285538564857585481759076A077B0740
:100C800009F06CC09F010280F381E02D309749F09C
:100C9000428553856485758584179507A607B70730
:100CA00089F3D80114964D915C914115510529F0B5
:100CB000DA011396FC93EE9312978C899D893097F5
:100CC00041F40817190711F41D8A1C8AEC89FD8963
:100CD00007C0558344830817190711F4FD8BEC8B6B
:100CE000FF8BEE8BF901138212827801D8011296E4
:100CF0000D911C911397ED91FC910280F381E02DF1
:100D0000C7010995F70186819781A085B185009774
:100D1000A105B10551F14285538564857585840F20
:100D2000951FA61FB71F4C815D816E817F8148177B
:100D300059076A077B0738F4841B950BA60BB70B82
:100D40000197A109B109F70182879387A487B58725
:100D5000C7010E9433050115110539F6DF91CF91C6
:100D60001F910F91FF90EF9008951686F4CFFC012C
:100D700082810C94F503EF92FF920F931F93CF9310
:100D8000DF937C018B01FB01C285D385CB010A96E1
:100D90000E94BC079C018DE021153105D9F0F801B6
:100DA0009585D701822F232F980F392F381B1316C3
:100DB000C4F0F80185859881981B98839981890FE3
:100DC00089839485891708F019828A81882311F014
:100DD0001A828CE0DF91CF911F910F91FF90EF90DD
:100DE0000895E82FF22F81918D938E2F2F2FDDCF35
:100DF000382F292FCA01009749F0DA01ED91FC91B3
:100E0000309721F0AB01632F722F099481E0089590
:100E100081E00895FF920F931F93CF93DF93062FE6
:100E2000F72EDC011296CD91DC91209711F1EC8127
:100E3000FD81602F7F2DCE010995182F81110DC0E6
:100E400088819981009721F40A80DB81C02DEDCF44
:100E5000DC01ED91FC910995F7CF8E30A9F380E08C
:100E60000E947E07812FDF91CF911F910F91FF90FC
:100E7000089510E0F4CFCF92DF92EF92FF920F939C
:100E80001F93CF93DF93EC017B010A851B85C888F4
:100E9000D98848855985C6010E94F806882361F1E2
:100EA000CE010A960E9484079C01892B09F18D8549
:100EB000082E000C990BD701B601181619067CF004
:100EC000F80180819D85890F808380E0DF91CF913B
:100ED0001F910F91FF90EF90DF90CF9008954D916B
:100EE000FB014193BF01F90141939F010197E5CFB8
:100EF00081E0F8018283E9CF8EE0E8CF80917A012A
:100F000081110C9499040895CF92DF92EF92FF9291
:100F1000CF93DF93FC01C081D181288130E04281F1
:100F2000A42FB0E0BD01621B730B8381082E000C5F
:100F3000990B68177907ECF0598184819581250F09
:100F4000311D50E060E070E06901032E000CEE08F6
:100F5000FF08C416D506E606F70610F02A1B3B0B61
:100F6000820F931FDF91CF91FF90EF90DF90CF9092
:100F7000089580E090E0F6CFFC01A081B1818C91D2
:100F8000882339F011962C9184819581820F911DCF
:100F9000089580E090E008950E94E707809168013D
:100FA0000895809368010E94CA040E942F050C9442
:100FB000C5040C94500ECF93C82F0E9404038111D6
:100FC00002C00E94980E8C2FCF910C948B00209120
:100FD000BD022130D1F04091B5025091B60260912E
:100FE000B7027091B8028091B9029091BA02A091B3
:100FF000BB02B091BC02842B952BA62BB72B21E012
:10100000892B8A2B8B2B09F420E0822F08951092D4
:10101000BD021092B9021092BA021092BB02109255
:10102000BC021092B5021092B6021092B702109252
:10103000B8028091B1029091B202A091B302B09136
:10104000B4028093BE029093BF02A093C002B093FB
:10105000C10208950E949B0E8091BE029091BF0232
:10106000A091C002B091C1020196A11DB11D809353
:10107000BE029093BF02A093C002B093C1028091C0
:10108000B9029091BA02A091BB02B091BC02019644
:10109000A11DB11D8093B9029093BA02A093BB0227
:1010A000B093BC0208958091B9029091BA02A091C8
:1010B000BB02B091BC020097A105B10569F1409156
:1010C000BE025091BF026091C0027091C1024150B6
:1010D0005109610971094093BE025093BF026093A8
:1010E000C0027093C1020197A109B1098093B902AE
:1010F0009093BA02A093BB02B093BC028091BE024F
:101100009091BF02A091C002B091C102892B8A2B9D
:101110008B2B11F40C94990E08958091B902909143
:10112000BA02A091BB02B091BC024091B5025091AD
:10113000B6026091B7027091B802842B952BA62B52
:10114000B72B892B8A2B8B2B29F40E949B0E81E0D5
:101150008093BD0208958091BD02882321F01092F2
:10116000BD020C94990E08950E949F0E8091BE02BC
:101170009091BF02A091C002B091C1020196A11D41
:10118000B11D8093BE029093BF02A093C002B093A2
:10119000C1028091B5029091B602A091B702B091C0
:1011A000B8020196A11DB11D8093B5029093B602BD
:1011B000A093B702B093B80208958091B5029091C0
:1011C000B602A091B702B091B8020097A105B1058F
:1011D00069F14091BE025091BF026091C0027091CE
:1011E000C10241505109610971094093BE025093F7
:1011F000BF026093C0027093C1020197A109B109B7
:101200008093B5029093B602A093B702B093B80250
:101210008091BE029091BF02A091C002B091C10224
:10122000892B8A2B8B2B11F40C949D0E08950E9410
:10123000E707811183E10895CF93C82F0E94E70744
:101240008C2F0E94F503C82F80917A0181110E9492
:1012500099048C2FCF910895CF930E94E707C82F50
:101260008111C3E1E0916D01F0916E0182818150A5
:1012700082830E94C60381E0809379010E94630407
:101280008C2FCF910895CF93C82F0E94E707E0914C
:101290006D01F0916E018281815082838C2F0E94BA
:1012A000F503C82F81110AC00E94C60381E0809314
:1012B00079010E9463048C2FCF910895E0916D0114
:1012C000F0916E0182818F5F8283F5CFCF930E9470
:1012D000E707C82F8111C3E1809171010E944A0381
:1012E0000E9499048091710190917201A091730103
:1012F000B091740140917501509176016091770130
:101300007091780184179507A607B70711F40E941A
:101310001C038C2FCF910895CF93DF93EC010E9493
:10132000E707811183E14091710150917201609151
:10133000730170917401433051056105710514F01A
:101340004091DA014883DF91CF9108950F931F9365
:10135000CF93C82F8B010E94E707811183E1EC2F07
:10136000EE0FFF0BE65EFD4F0190F081E02D9481C2
:101370009370F8019083CF911F910F910895E82FFA
:10138000EE0FFF0BE65EFD4FA081B181ED91FC9168
:101390001197309789F01D921C928091DA01DF013C
:1013A0000380F481E02D12968C93129714961C9270
:1013B0001E921397309799F70895CF93C82F0E94E4
:1013C000E707811183E1EC2FF0E0EE0FFF1FEE59EC
:1013D000FD4F0190F081E02D909171019283A091D9
:1013E0006D01B0916E012D913C911197348323834F
:1013F0001196FC93EE9313969C9113979183208101
:101400009695921768F430E0F901EE53FD4F908104
:10141000915090839170220F331F292B13962C9398
:10142000CF910895CF93DF93C82F0E94E707D82F5D
:101430008111D3E1EC2FF0E0EE0FFF1FEE59FD4FCD
:101440000190F081E02DA0916D01B0916E0181813C
:1014500013968C931397838194818D939C9314821C
:1014600013828091DA0182830E9499048D2FDF918B
:10147000CF910895CF93DF93C82FD62F0E94E7070F
:101480006D2F8C2F0E943504C82F811105C08091CB
:101490007A0181110E9499048C2FDF91CF910895D8
:1014A000CF93C82F0E94E707811183E1E09171017A
:1014B000EE0FFF0BEA5EFD4F0190F081E02DC0952D
:1014C00090819C239083CF9108950F931F93CF9386
:1014D000C82F8B010E94E707811183E1EC2FEE0FEB
:1014E000FF0BEA5EFD4F0190F081E02D9081F80145
:1014F0009083CF911F910F9108950F931F93CF93D6
:10150000DF93C82FE0917101F0917201EE0FFF1F80
:10151000EA5EFD4F008111810E94E707D82F8111FB
:10152000D3E1F801C1838081C823C11102C00E94A8
:10153000B3048D2FDF91CF911F910F910895DC019E
:10154000ED91FC9184819581DC01ED91FC910994F0
:101550001F93CF93DF93182FEB010E94E7078111B0
:1015600083E1E12FF0E0EE0FFF1FEB50FE4F019003
:10157000F081E02D0190F081E02D0190F081E02DCF
:1015800040815181628173814C835D836E837F834F
:101590004481558166817781488359836A837B833F
:1015A0004085518562857385488759876A877B871F
:1015B000DF91CF911F9108958F929F92AF92BF922A
:1015C000CF92DF92EF92FF920F931F93CF93C82F8A
:1015D0008B010E94E707811183E1EC2FF0E0EE0F11
:1015E000FF1FEB50FE4F0190F081E02D968591306A
:1015F00081F542855385648575850190F081E02DE4
:101600000190F081E02DC088D188E288F3884C15E4
:101610005D056E057F0540F484809580A680B780C7
:10162000480D591D6A1D7B1D4C195D096E097F0906
:10163000F8014083518362837383CF911F910F918F
:10164000FF90EF90DF90CF90BF90AF909F908F90E2
:10165000089585E0F2CFAF92BF92CF92DF92EF92E2
:10166000FF920F931F93CF93DF93A82E6A017B0104
:10167000B22ED32F0E94E707C82F8111C3E1EA2DB4
:10168000F0E0EE0FFF1FEB50FE4F0190F081E02DD8
:10169000868581113CC0A081B1810D90BC91A02DA7
:1016A00050964D915D916D917C915397C40ED51ECE
:1016B000E61EF71E14968D919D910D90BC91A02D64
:1016C0008C159D05AE05BF0548F4C81AD90AEA0A6B
:1016D000FB0A81E0C81AD108E108F108C286D38666
:1016E000E486F58606831783B086D18781E08687F6
:1016F000CF010E9433058C2FDF91CF911F910F9165
:10170000FF90EF90DF90CF90BF90AF900895C7E02B
:10171000F2CFAF92BF92CF92DF92EF92FF920F93F0
:101720001F93CF93DF93C82F5A016B0179010E9459
:10173000E707D82F8111D3E1EC2FF0E0EE0FFF1F68
:10174000EB50FE4F0190F081E02D8685811119C08C
:10175000A286B386C486D58606831783E086F18683
:1017600081E08687CF010E9433058D2FDF91CF91D5
:101770001F910F91FF90EF90DF90CF90BF90AF90AF
:101780000895D7E0F2CF0F931F93CF93DF93C82F25
:101790000E94E707D82F8111D3E1EC2FF0E0EE0F84
:1017A000FF1FEB50FE4F00811181F80186858130CB
:1017B00059F4C8010E94B705F80116868D2FDF91F4
:1017C000CF911F910F910895D5E0F8CFCF93DF937C
:1017D000FC01EE0FFF1FEF51FE4F0190F081E02D55
:1017E0008585882369F0C285D385CF010A960E943A
:1017F000BC07892B49F08A81882319F08CE001C04D
:101800008AE0DF91CF9108958DE0FBCF880F991F7B
:10181000FC01E552FE4F80819181DC01ED91FC914C
:1018200009949B01FC01EE0FFF1FEF51FE4F6081F9
:101830007181DB011696ED91FC91C9010994FC01BF
:10184000EE0FFF1FE552FE4F80819181DC01ED918B
:10185000FC9160E070E0099580E00895BC01FC0116
:10186000108280916402909165020E94F70060E00E
:1018700087E00C946E0D0F931F93CF93DF93EC01D1
:101880000091660210916702888181110AC081E08F
:10189000888361E087E0DF91CF911F910F910C94D5
:1018A0006E0DBE01C8010E94FB00EECFCF92DF9209
:1018B000EF92FF92CF93DF9300D000D00F92CDB77D
:1018C000DEB76D832BE930E0DC010E94080F6983ED
:1018D0007A838B839C8360E081E00E946E0D60E0E0
:1018E00082E00E946E0D60E083E00E946E0DC12CCC
:1018F000D12C760189819A81AB81BC81C816D90629
:10190000EA06FB0689F40E94F50D60E08D810F90D8
:101910000F900F900F900F90DF91CF91FF90EF906D
:10192000DF90CF900C946E0D61E08D810E946E0D62
:101930008FEFC81AD80AE80AF80ADCCFCF93DF93F2
:101940000F92CDB7DEB7198261E081E00E94340DBD
:1019500061E082E00E94340D61E083E00E94340D7A
:1019600061E087E00E94340DBE016F5F7F4F809180
:101970006402909165020E94F7000F90DF91CF9171
:101980000895CF93DF930F92CDB7DEB781E08983BF
:10199000CE0101960E943B0C61E070E088EC90E083
:1019A0000E94560CCE0101960E942E0C0E94B3009C
:1019B0000F90DF91CF91089562E070E08CEB92E0A0
:1019C0000E94560C0C94B300CF93DF930F92CDB7C7
:1019D000DEB781E0898363E070E084E690E00E94F6
:1019E000560CCE0101960E943B0C63E070E088EC3F
:1019F00090E00E94560CCE0101960E942E0C0E948F
:101A0000B3000F90DF91CF91089589EB91E00C9492
:101A100044010895843099F038F48230C1F0833065
:101A200041F0813081F008958730A1F08830C1F015
:101A30000895809180008F77809380000895809131
:101A400080008F7DF9CF84B58F7784BD089584B5EC
:101A50008F7DFBCF8091B0008F778093B000089589
:101A60008091B0008F7DF9CFCF93DF9390E0FC01A0
:101A7000E458FF4F249180579F4FFC0184918823A5
:101A8000C9F090E0880F991FFC01E255FF4FA59126
:101A9000B491FC01EC55FF4FC591D4919FB76111F2
:101AA0000CC0F8948C91209582238C9388812823F4
:101AB00028839FBFDF91CF910895623051F4F8944D
:101AC0003C91822F809583238C938881822B8883FD
:101AD000F0CFF8948C91822B8C93EBCF1F93CF9304
:101AE000DF93162F282F30E0F901E859FF4F84913A
:101AF000F901E458FF4FD491F901E057FF4FC49129
:101B0000CC23A1F081110E940A0DEC2FF0E0EE0F22
:101B1000FF1FEC55FF4FA591B4919FB7F8948C919E
:101B2000111108C0D095D823DC939FBFDF91CF91CE
:101B30001F9108958D2B8C93F8CF1F920F920FB6A3
:101B40000F9211242F933F934F935F936F937F9343
:101B50008F939F93AF93BF93EF93FF9380913A0638
:101B600090913B06A0913C06B0913D06309139061C
:101B700023E0230F2D3798F50196A11DB11D209369
:101B8000390680933A0690933B06A0933C06B093A7
:101B90003D0680913E0690913F06A0914006B0918F
:101BA00041060196A11DB11D80933E0690933F060C
:101BB000A0934006B09341060E94050DFF91EF915E
:101BC000BF91AF919F918F917F916F915F914F9155
:101BD0003F912F910F900FBE0F901F90189526E800
:101BE000230F0296A11DB11DCACFCF93DF9300D062
:101BF00000D0CDB7DEB78FB7F89420913A06309178
:101C00003B0640913C0650913D0629833A834B8325
:101C10005C838FBF69817A818B819C810F900F904B
:101C20000F900F90DF91CF91089584B5826084BDAD
:101C300084B5816084BD85B5826085BD85B58160D0
:101C400085BDEEE6F0E0808181608083E1E8F0E030
:101C50001082808182608083808181608083E0E85F
:101C6000F0E0808181608083E1EBF0E0808184603E
:101C70008083E0EBF0E0808181608083EAE7F0E040
:101C800080818460808380818260808380818160A4
:101C900080838081806880831092C1000895FFCF87
:101CA000FFCFCF93DF93E82FEE0FFF0BEE5DFD4FDD
:101CB000A081B18114968D919C91159701971296F0
:101CC000ED91FC911397E80FF91F1D968C911D97CC
:101CD0002BEA30E0823011F027EC30E02083EF0176
:101CE0002197388316969C91169717968C91179783
:101CF00021979883219788839F012950310986E095
:101D0000E90119928A95E9F7EF012A9780E888831B
:101D10002D5031098CE0E90119928A95E9F70D906F
:101D2000BC91A02D7797ED93FC93DF91CF9108950F
:101D3000089578940895F894089578940895F894FF
:101D4000089508950E94150E0E94A10E0E94090D8B
:101D50000E949E0C809142060E94DB0780E090E08A
:101D6000089580916E0280934206089508951F920F
:101D70000F920FB60F9211242F933F934F935F93BF
:101D80006F937F938F939F93AF93BF93EF93FF9343
:101D9000E091D601F091D7010995FF91EF91BF91A4
:101DA000AF919F918F917F916F915F914F913F91F3
:101DB0002F910F900FBE0F901F9018951F920F92AA
:101DC0000FB60F9211242F933F934F935F936F930E
:101DD0007F938F939F93AF93BF93EF93FF93E09184
:101DE000D801F091D9010995FF91EF91BF91AF9181
:101DF0009F918F917F916F915F914F913F912F9123
:101E00000F900FBE0F901F901895F8940C94240F0C
:101E10000E94150FB7FF0895821B930B0895EE0FD4
:101E2000FF1F0590F491E02D0994A29FB001B39F8C
:101E3000C001A39F700D811D1124911DB29F700DD3
:0C1E4000811D1124911D0895F894FFCF1E
:101E4C000000000000000000000000000000000086
:101E5C000000000000000000000000000000000076
:101E6C000000000000000000000000000000000066
:101E7C000000000000000000000000000000000056
:101E8C000000000000000000000000000000000046
:101E9C000000000000000000000000000000000036
:101EAC000000000000000000FF000054020000E2EF
:101EBC0005FFFFFFFFFFFFFFFF00000807FB01000E
:101ECC00000000AE0A0000AE0A000002040200008E
:101EDC000000B9050000B9050000020D0200000069
:101EEC0000D1030000D10300000200000002040036
:101EFC0000000304000000010401000000FFFF00CB
:101F0C0000010000000000000000000000000000C4
:101F1C00000400FF0000B60EB60EFFDD010A07E359
:101F2C0001E301000000003B07BB067B01D102036B
:101F3C0001D502D4029B018C017D01B9019F0A01DC
:101F4C0002B70600B9019F0A0A02B70602B9019F3F
:101F5C000A1302B70601DE04DA03B401AF01AA01C9
:101F6C00E205460238022A025402D802DA020001C3
:101F7C00DC0C000002020100DC03DE030001C10CDA
:101F8C00000001030101E004E2040001E40C000084
:101F9C0000010101E705E90550004F0E00000300A8
:101FAC000100D1010000000001010101010100DD6F
:101FBC0008AB08B4088D081C052A0809055308A6A7
:101FCC0009500AD907650A1C097D0A4309A80A8C1D
:101FDC0009DC0AD1072B0B120A890BCC07C30B6641
:101FEC0009060CDD09110C2C091F0C3A0AE60B0032
:00000001FF
