:100000000C945D000C94600D0C94870D0C9485008D
:100010000C9485000C9485000C9485000C9485004C
:100020000C9485000C9485000C9485000C9485003C
:100030000C9485000C9485000C9485000C9485002C
:100040000C94E70B0C9485000C9485000C948500AF
:100050000C9485000C9485000C9485000C9485000C
:100060000C9485000C94850000000008000201003B
:100070000003040700000000000000000102040863
:100080001020408001020408102001020408102002
:10009000040404040404040402020202020203032E
:1000A0000303030300000000250028002B000000CC
:1000B0000000240027002A00F60C11241FBECFEFF9
:1000C000D8E0DEBFCDBF12E0A0E0B1E0E8E4FCE1A3
:1000D00002C005900D92A237B107D9F724E0A2E73C
:1000E000B2E001C01D92A93FB207E1F710E0CDE5F3
:1000F000D0E004C02197FE010E940D0ECC35D1073F
:10010000C9F70E94E70C0C94AE0D0C940000E4E1DA
:100110000E943C010895E2E10E943C010895EAE05A
:100120000E943C010895E1E00E943C010895E3E053
:100130000E943C010895E7E00E943C010895E5E03B
:100140000E943C010895E0E00E943C010895E2E035
:100150000E943C010895E4E00E943C010895ECE017
:100160000E943C010895EBE10E943C010895EEE0FD
:100170000E943C010895E8E00E943C010895E0E1FE
:100180000E943C010895EAE10E943C010895E6E0E6
:100190000E943C010895E8E10E943C010895E9E0D5
:1001A0000E943C010895EBE00E943C010895EDE0BF
:1001B0000E943C010895EFE00E943C010895E1E1B6
:1001C0000E943C010895E3E10E943C010895E5E1AD
:1001D0000E943C010895E7E10E943C010895E9E195
:1001E0000E943C010895E6E10E943C010895219699
:1001F0008A929A92AA92BA92CA92DA92EA92FA925F
:100200000A931A932197E0916B01F0916C010080A1
:10021000F181E02DC083D1830895C0916D01D0910B
:100220006E01E881F981C081D181219619910991EE
:10023000F990E990D990C990B990A9909990899036
:10024000219708952F903F90E7E6F1E0CDB7DEB714
:10025000EDBFFEBF3F922F9208952F903F90CDBFEC
:10026000DEBF3F922F920895E0E80E943C0108957E
:10027000E0E40E943C0108952F923F924F925F92DA
:100280006F927F922FB62F92CF93DF937E2EF894AA
:10029000E0910001EF5FE0930001E13011F40E9472
:1002A0002201E0E0E0937B01E72DE07849F00E9435
:1002B0007105F0917C01F17071F00E942A040BC06D
:1002C000E72DEC3140F4EE0FF0E0E75CFD4F0190DC
:1002D000F081E02D0995F0917B01EF2FE17059F04D
:1002E000F27011F00E94F7008F938F2F0E94760317
:1002F0008F910E940D012091000121502093000157
:10030000222311F40E942D01DF91CF912F902FBE57
:100310007F906F905F904F903F902F900895FC01D9
:100320004081FB013081842F877090E0A0E0B0E035
:10033000B695A795979587958A579D4FFC01208183
:10034000F42FF21B2F2F21704670242B832F8770E0
:1003500090E0A0E0B0E0B695A795979587958A576D
:100360009D4FFC019081F32FF91B9F2F91703670E8
:10037000932B41E050E0291710F040E050E0CA0113
:1003800008958F929F92AF92BF92EF92FF920F9338
:100390001F93CF93DF938C01CA01DB014C015D01F8
:1003A000B694A7949794879482309105A105B105DE
:1003B00080F0880F991FE801C80FD91F7401EE0C57
:1003C000FF1CE00EF11EBE01C7010E948F01892BA8
:1003D00059F4DF91CF911F910F91FF90EF90BF9053
:1003E000AF909F908F90089598818981F701208127
:1003F00031813983288390838183D501C401D0CF93
:100400004F925F926F927F928F929F92AF92BF9224
:10041000CF92DF92EF92FF920F931F93CF93DF93D0
:1004200000D000D000D0CDB7DEB78D839E836A01A7
:100430007B01AD81BE814C90842D90E0A0E0B0E0C6
:1004400089839A83AB83BC8346015701880C991C2E
:10045000AA1CBB1C89819A81AB81BC818815990536
:10046000AA05BB05B8F40F900F900F900F900F9056
:100470000F90DF91CF911F910F91FF90EF90DF9040
:10048000CF90BF90AF909F908F907F906F905F9034
:100490004F900895240135019FEF491A590A690ABE
:1004A000790A89819A81AB81BC8184159505A6055D
:1004B000B70590F0B201660F771FAD81BE816A0F5C
:1004C0007B1FC401880F991F8A0F9B1F0E948F01F9
:1004D000892B11F0530142018401000F111FED819E
:1004E000FE810E0F1F1FCC0CDD1CCE0EDF1EB801CF
:1004F000C6010E948F01892B09F4B5CFD6019C91CA
:1005000011968C911197F801208131812D933C93A4
:10051000908381837501640197CFEAE8F2E040811E
:100520004F5F408350E060E070E0E82FEE0FFF0B7C
:10053000E250FE4F0190F081E02D238530E0F9017B
:10054000EA57FD4F908191509083FA01EE0FFF1F03
:10055000E657FD4F9170220F331F292B2083818393
:100560008AE892E00C94C101EAE8F2E040814F5F32
:10057000408350E060E070E0FA01EE0FFF1FE657A5
:10058000FD4FA82FAA0FBB0BA850BE4F0D90BC91DA
:10059000A02D13969C91908381838AE892E00C941D
:1005A000C1010F931F93CF93DF93CAE8D2E08881F4
:1005B0009FEF980F98830A811B8190E0880F991F05
:1005C000FC01E657FD4F808191819B838A8341E046
:1005D00050E060E070E0CE010E940002C801DF91AF
:1005E000CF911F910F9108958091730190917401A3
:1005F000A0917501B09176018F3F2FEF9207A2076E
:10060000B20731F00297A105B10524F082E0089508
:1006100080E0089581E00895CF93DF93880F990BD0
:10062000FC01E250FE4F0190F081E02D0084F18545
:10063000E02D3097E1F02281211119C021E02283C1
:1006400088509E4FEC01A881B98113968C91139725
:100650008183808190E0FC01EA57FD4F2081215089
:1006600020832170880F991F822B13968C93DF9122
:10067000CF910895CF93DF93880F990BFC01E2503F
:10068000FE4F0190F081E02D0084F185E02D309740
:1006900061F02281213049F4128288509E4FEC0192
:1006A000A881B981818113968C93DF91CF910895B0
:1006B0008091770190917801A0917901B0917A01B0
:1006C00040917301509174016091750170917601B0
:1006D000481759076A077B0741F0E0917101F091D3
:1006E000720121E024830C94B4020895CF93DF9328
:1006F000D0E0C0E0882389F0D0916B01C0916C01FB
:10070000E0916F01F09170018481833031F081E0DC
:100710008483809173010E94B402E0917101F09191
:100720007201F0937001E0936F0180916D019091DF
:100730006E0190936C0180936B01809177013091F1
:1007400078012091790190917A018093730130931F
:100750007401209375019093760192E094830E9436
:100760000C038D2F9C2FDF91CF9108958091730101
:100770000E943A03E0916F01F09170018281811132
:1007800085E084830895CF93DF93282F220F330BC6
:10079000F901E850FE4FC081D1819A8122503E4F2D
:1007A000D901ED91FC912485921780F4911105C037
:1007B00095E09C8391E090937C010E948D028A8158
:1007C0008F5F8A8380E0DF91CF91089584E0FBCF33
:1007D000E82FEE0FFF0BE850FE4F0190F081E02D67
:1007E000118210820C94960C1F93CF93DF930E947A
:1007F000D102182F892F492F092E000C550B660B9B
:10080000770B40937701509378016093790170934F
:100810007A01292F220F330BF901E850FE4FC081D6
:10082000D181D0937201C093710122503E4FF901E2
:100830002081318130936E0120936D019C81953030
:1008400019F40E94E8031B8310927C01DF91CF9181
:100850001F910895E0917701F0917801EE0FFF1F4D
:10086000E850FE4F0190F081E02D90918C02838141
:10087000891740F40E9458030E94F40383E0809398
:100880007B01089580E0FBCF81E080937B010C9495
:10089000F403CF93DF93C1E0D0E001C0CC0F8A9581
:1008A000EAF782E00E94C303809136028C238823FA
:1008B00019F080E00E94C303809137028C238823C3
:1008C00019F081E00E94C303809134028C238823B5
:1008D00049F08091E2019091E30121E0FC0126873B
:1008E0000E94AF04809135028C23882359F08091B7
:1008F000E4019091E50121E0FC012687DF91CF9191
:100900000C94AF04DF91CF9108950E94EB06811102
:100910000E940B07E0916F01F0917001808191813D
:10092000892B21F0809173010E94C3080C94300838
:100930000E94EB0681110E940B07E0916F01F0917C
:10094000700180819181892B21F0809173010E9437
:10095000C3080C941B0881E0809372020895CF9223
:10096000DF92EF92FF920F931F93CF93DF93FC01DF
:10097000A081B1810D90BC91A02D54968D919C9138
:100980005597009709F445C0428553856485758560
:1009900020E030E0EC01CA84DB84EC84FD844C155B
:1009A0005D056E057F0508F049C08C011383028345
:1009B000358324830115110519F0E801FD83EC83CB
:1009C0002115310509F444C0E901FB83EA835696F9
:1009D000CD91DC9157970A851B852C853D855096D6
:1009E000CD90DD90ED90FC9053970C151D052E05D4
:1009F0003F0598F5C416D506E606F70628F0401719
:100A000051076207730788F45796FC93EE93569745
:100A10000CC05596FC93EE9354975796FC93EE9327
:100A200056971582148213821282DF91CF911F9103
:100A30000F91FF90EF90DF90CF900895EC010A8125
:100A40001B819C010115110509F4B0CFC801A2CF8B
:100A50005596FC93EE935497BACFC416D506E60686
:100A6000F70618F7CCCFCF93DF93FC01A081B181BB
:100A70000D90BC91A02DC281D38154968D919C91F3
:100A800055978E179F0721F45596DC93CE93549774
:100A900056968D919C9157978E179F0721F45796E4
:100AA000DC93CE935697209721F0848195819D8386
:100AB0008C830480F581E02D309711F0D383C283BD
:100AC00056968D919C915797892B41F454968D9110
:100AD0009C91559757969C938E935697DF91CF9103
:100AE0000895EF92FF920F931F93CF93DF93EC0142
:100AF00080917202882309F4ADC08C859D85AE85F6
:100B0000BF850196A11DB11D8C879D87AE87BF87CC
:100B1000488159816A817B8184179507A607B707A9
:100B200009F098C088899989AA89BB890196A11D75
:100B3000B11D4C815D816E817F81481759076A071D
:100B40007B0718F480E090E0DC01888B998BAA8BFE
:100B5000BB8B1C861D861E861F860E891F8901156C
:100B6000110509F477C0F8014285538564857585C0
:100B7000481759076A077B0709F06CC09F0102807C
:100B8000F381E02D309749F0428553856485758562
:100B900084179507A607B70789F3D80114964D91D6
:100BA0005C914115510529F0DA011396FC93EE93FF
:100BB00012978C899D89309741F40817190711F411
:100BC0001D8A1C8AEC89FD8907C055834483081758
:100BD000190711F4FD8BEC8BFF8BEE8BF90113825F
:100BE00012827801D80112960D911C911397ED9104
:100BF000FC910280F381E02DC7010995F701868100
:100C00009781A085B1850097A105B10551F1428575
:100C1000538564857585840F951FA61FB71F4C816A
:100C20005D816E817F81481759076A077B0738F419
:100C3000841B950BA60BB70B0197A109B109F7010E
:100C400082879387A487B587C7010E94AF040115E7
:100C5000110539F6DF91CF911F910F91FF90EF9021
:100C600008951686F4CFFC0182810C94C303FB0126
:100C7000428553852485022E000C330BDC011216AD
:100C8000130614F080E00895FA0181918D932150AC
:100C90003109AF01F4CF382F292FCA01009749F04D
:100CA000DA01ED91FC91309721F0AB01632F722FA7
:100CB000099481E0089581E00895FF920F931F93B6
:100CC000CF93DF93062FF72EDC011296CD91DC91A6
:100CD000209711F1EC81FD81602F7F2DCE010995C8
:100CE000182F81110DC088819981009721F40A8005
:100CF000DB81C02DEDCFDC01ED91FC910995F7CFA3
:100D00008E30A9F380E00E94BA06812FDF91CF9147
:100D10001F910F91FF90089510E0F4CFEF92FF9292
:100D20000F931F93CF93DF93EC01162F072FEA84C5
:100D3000FB8448855985C7010E944B068823C1F072
:100D40008C85082E000C990BD7011816190644F053
:100D500080E0DF91CF911F910F91FF90EF90089568
:100D6000E12FF02F21912D9301971E2F0F2FEDCF03
:100D70008EE0EFCF80917C0181110C942A040895BC
:100D8000FC01A081B1818C91882339F011962C91BE
:100D900084819581820F911D089580E090E00895EF
:100DA0000E94EB06809168010895809368010E947B
:100DB00049040E94AB040C9444040C94950CCF930A
:100DC000C82F0E94F402811102C00E94DD0C8C2FFA
:100DD000CF910C948B0020917F022130D1F0409173
:100DE0007702509178026091790270917A02809135
:100DF0007B0290917C02A0917D02B0917E02842BB7
:100E0000952BA62BB72B21E0892B8A2B8B2B09F452
:100E100020E0822F089510927F0210927B021092A0
:100E20007C0210927D0210927E0210927702109244
:100E300078021092790210927A0280917302909156
:100E40007402A0917502B091760280938002909313
:100E50008102A0938202B093830208950E94E00C65
:100E60008091800290918102A0918202B0918302D0
:100E70000196A11DB11D8093800290938102A093E1
:100E80008202B093830280917B0290917C02A091B8
:100E90007D02B0917E020196A11DB11D80937B025F
:100EA00090937C02A0937D02B0937E02089580917E
:100EB0007B0290917C02A0917D02B0917E0200970E
:100EC000A105B10569F140918002509181026091C4
:100ED0008202709183024150510961097109409366
:100EE0008002509381026093820270938302019783
:100EF000A109B10980937B0290937C02A0937D02AB
:100F0000B0937E028091800290918102A091820232
:100F1000B0918302892B8A2B8B2B11F40C94DE0C5D
:100F2000089580917B0290917C02A0917D02B09106
:100F30007E0240917702509178026091790270911F
:100F40007A02842B952BA62BB72B892B8A2B8B2BE4
:100F500029F40E94E00C81E080937F020895809143
:100F60007F02882321F010927F020C94DE0C0895FA
:100F70000E94E40C8091800290918102A0918202F3
:100F8000B09183020196A11DB11D809380029093C0
:100F90008102A0938202B0938302809177029091A4
:100FA0007802A0917902B0917A020196A11DB11D3B
:100FB0008093770290937802A0937902B0937A029B
:100FC00008958091770290917802A0917902B09172
:100FD0007A020097A105B10569F140918002509114
:100FE000810260918202709183024150510961092E
:100FF0007109409380025093810260938202709342
:1010000083020197A109B109809377029093780236
:10101000A0937902B0937A0280918002909181022C
:10102000A0918202B0918302892B8A2B8B2B11F421
:101030000C94E20C08950E94EB06811183E108955F
:10104000CF93C82F0E94EB068C2F0E94C303C82F9A
:1010500080917C0181110E942A048C2FCF910895E8
:10106000CF930E94EB06C82F8111C3E1E0916F017D
:10107000F09170018281815082830E94B60381E0E9
:1010800080937B010E94F4038C2FCF910895CF931E
:10109000C82F0E94EB06E0916F01F09170018281F0
:1010A000815082838C2F0E94C303C82F81110AC0F4
:1010B0000E94B60381E080937B010E94F4038C2F91
:1010C000CF910895E0916F01F091700182818F5F5F
:1010D0008283F5CFCF930E94EB06C82F8111C3E125
:1010E000809173010E943A030E942A048091730147
:1010F00090917401A0917501B091760140917701B2
:10110000509178016091790170917A018417950767
:10111000A607B70711F40E940C038C2FCF910895F6
:10112000CF93DF93EC010E94EB06811183E14091A4
:101130007301509174016091750170917601423094
:1011400051056105710514F04091C9014883DF9193
:10115000CF9108950F931F93CF93C82F8B010E94B7
:10116000EB06811183E1EC2FEE0FFF0BE850FE4FF1
:101170000190F081E02D94819370F8019083CF91DC
:101180001F910F910895E82FEE0FFF0BE850FE4FCF
:10119000A081B181ED91FC911197309789F01D925A
:1011A0001C928091C901DF010380F481E02D129629
:1011B0008C93129714961C921E921397309799F75E
:1011C0000895CF93C82F0E94EB06811183E1EC2F85
:1011D000F0E0EE0FFF1FE25DFD4F0190F081E02D8A
:1011E000909173019283A0916F01B09170012D9144
:1011F0003C911197348323831196FC93EE931396BD
:101200009C911397918320819695921768F430E012
:10121000F901EA57FD4F9081915090839170220F10
:10122000331F292B13962C93CF910895CF93DF93DF
:10123000C82F0E94EB06D82F8111D3E1EC2FF0E0EC
:10124000EE0FFF1FE25DFD4F0190F081E02DA091B8
:101250006F01B0917001818113968C9313978381F4
:1012600094818D939C93148213828091C90182830F
:101270000E942A048D2FDF91CF910895DC01ED911A
:10128000FC9184819581DC01ED91FC9109941F937F
:10129000CF93DF93182FEB010E94EB06811183E1BE
:1012A000E12FF0E0EE0FFF1FEE51FE4F0190F081B5
:1012B000E02D0190F081E02D0190F081E02D408142
:1012C0005181628173814C835D836E837F8344810E
:1012D000558166817781488359836A837B83408502
:1012E000518562857385488759876A877B87DF9137
:1012F000CF911F9108958F929F92AF92BF92CF92FC
:10130000DF92EF92FF920F931F93CF93C82F8B0121
:101310000E94EB06811183E1EC2FF0E0EE0FFF1F3E
:10132000EE51FE4F0190F081E02D9685913081F5D0
:1013300042855385648575850190F081E02D01908B
:10134000F081E02DC088D188E288F3884C155D05D6
:101350006E057F0540F484809580A680B780480D97
:10136000591D6A1D7B1D4C195D096E097F09F80125
:101370004083518362837383CF911F910F91FF90BC
:10138000EF90DF90CF90BF90AF909F908F90089597
:1013900085E0F2CFAF92BF92CF92DF92EF92FF92B1
:1013A0000F931F93CF93DF93A82E6A017B01B22E78
:1013B000D32F0E94EB06C82F8111C3E1EA2DF0E084
:1013C000EE0FFF1FEE51FE4F0190F081E02D86855C
:1013D00081113CC0A081B1810D90BC91A02D50968F
:1013E0004D915D916D917C915397C40ED51EE61E73
:1013F000F71E14968D919D910D90BC91A02D8C158A
:101400009D05AE05BF0548F4C81AD90AEA0AFB0AC9
:1014100081E0C81AD108E108F108C286D386E486C3
:10142000F58606831783B086D18781E08687CF0152
:101430000E94AF048C2FDF91CF911F910F91FF90ED
:10144000EF90DF90CF90BF90AF900895C7E0F2CFBC
:10145000AF92BF92CF92DF92EF92FF920F931F93C2
:10146000CF93DF93C82F5A016B0179010E94EB06DD
:10147000D82F8111D3E1EC2FF0E0EE0FFF1FEE51DA
:10148000FE4F0190F081E02D8685811119C0A28662
:10149000B386C486D58606831783E086F18681E00D
:1014A0008687CF010E94AF048D2FDF91CF911F91CE
:1014B0000F91FF90EF90DF90CF90BF90AF90089585
:1014C000D7E0F2CF0F931F93CF93DF93C82F0E94E3
:1014D000EB06D82F8111D3E1EC2FF0E0EE0FFF1FC8
:1014E000EE51FE4F00811181F8018685813059F45B
:1014F000C8010E943305F80116868D2FDF91CF9128
:101500001F910F910895D5E0F8CFCF93DF93FC01A1
:10151000EE0FFF1FE053FE4F0190F081E02D858517
:10152000882369F0C285D385CF010A960E94C00640
:10153000892B49F08A81882319F08CE001C08AE068
:10154000DF91CF9108958DE0FBCF880F991FFC01AB
:10155000E653FE4F80819181DC01ED91FC9109946D
:101560009B01FC01EE0FFF1FE053FE4F6081718174
:10157000DB011696ED91FC91C9010994FC01EE0F77
:10158000FF1FE653FE4F80819181DC01ED91FC91BC
:1015900060E070E0099580E0089561E08CE00C94D3
:1015A0007E0BAF92BF92CF92DF92EF92FF920F939A
:1015B0001F93CF93DF9300D000D000D0CDB7DEB71C
:1015C0008EE00E94790C9A838983A0E0B0E08B833F
:1015D0009C83AD83BE831F921F921F9282E38F93E1
:1015E000A12CB12C6501EE24EA9413E0F12E00E069
:1015F00010E020E030E0A9016B817C818D819E812B
:101600000E94FB0C7A836983BE016F5F7F4F8091DC
:101610003002909131020E94E7000E94B3000F90C7
:101620000F900F900F900F900F900F900F900F90C2
:101630000F90DF91CF911F910F91FF90EF90DF906E
:10164000CF90BF90AF9008958091690190916A0109
:101650008233910571F464E872E0809132029091D6
:1016600033020E94EB0010926A011092690161E05E
:1016700008C0209184023091850260E02817390764
:10168000B0F78CE00E94B80B8091690190916A01DB
:10169000019690936A01809369010C94B30087EAE4
:1016A00091E00C9434010895843099F038F482303C
:1016B000C1F0833041F0813081F008958730A1F08E
:1016C0008830C1F00895809180008F7780938000EA
:1016D0000895809180008F7DF9CF84B58F7784BD88
:1016E000089584B58F7DFBCF8091B0008F77809374
:1016F000B00008958091B0008F7DF9CFCF93DF9334
:1017000090E0FC01E458FF4F249180579F4FFC016B
:1017100084918823C9F090E0880F991FFC01E2555D
:10172000FF4FA591B491FC01EC55FF4FC591D491A9
:101730009FB761110CC0F8948C91209582238C93F3
:101740008881282328839FBFDF91CF91089562303D
:1017500051F4F8943C91822F809583238C93888157
:10176000822B8883F0CFF8948C91822B8C93EBCFD3
:101770001F93CF93DF93162F282F30E0F901E859FC
:10178000FF4F8491F901E458FF4FD491F901E057DC
:10179000FF4FC491CC23A1F081110E94540BEC2F78
:1017A000F0E0EE0FFF1FEC55FF4FA591B4919FB7EE
:1017B000F8948C91111108C0D095D823DC939FBF69
:1017C000DF91CF911F9108958D2B8C93F8CF1F92AD
:1017D0000F920FB60F9211242F933F934F935F9365
:1017E0006F937F938F939F93AF93BF93EF93FF93E9
:1017F0008091F0049091F104A091F204B091F3046F
:101800003091EF0423E0230F2D3798F50196A11DA9
:10181000B11D2093EF048093F0049093F104A09302
:10182000F204B093F3048091F4049091F504A09134
:10183000F604B091F7040196A11DB11D8093F40444
:101840009093F504A093F604B093F7040E944F0B15
:10185000FF91EF91BF91AF919F918F917F916F9188
:101860005F914F913F912F910F900FBE0F901F905E
:10187000189526E8230F0296A11DB11DCACF84B585
:10188000826084BD84B5816084BD85B5826085BD7C
:1018900085B5816085BDEEE6F0E080818160808362
:1018A000E1E8F0E010828081826080838081816045
:1018B0008083E0E8F0E0808181608083E1EBF0E00C
:1018C000808184608083E0EBF0E0808181608083B0
:1018D000EAE7F0E080818460808380818260808399
:1018E0008081816080838081806880831092C100C4
:1018F00008958E3008F08E502091C40190E4299F05
:10190000900111248770282B20937C0080917A000D
:10191000806480937A0080917A0086FDFCCF80916C
:101920007800909179000895FFCFFFCFCF93DF9398
:10193000E82FEE0FFF0BE250FE4FA081B18114960D
:101940008D919C91159701971296ED91FC911397AB
:10195000E80FF91F1D968C911D972BEA30E082301D
:1019600011F027EC30E02083EF01219738831696A1
:101970009C91169717968C9117972197988321978A
:1019800088839F012950310986E0E90119928A95DF
:10199000E9F7EF012A9780E888832D5031098CE020
:1019A000E90119928A95E9F70D90BC91A02D7797DE
:1019B000ED93FC93DF91CF91089508957894089565
:1019C000F894089578940895F894089508950E94DD
:1019D0003F0C0E94E60C0E94530B0E94CD0A80919E
:1019E000F8040E94DF0680E090E0089580913802BC
:1019F0008093F80408954F925F926F927F928F9236
:101A00009F92AF92BF92CF92DF92EF92FF920F938D
:101A10001F93CF93DF93CDB7DEB728970FB6F89417
:101A2000DEBF0FBECDBF69837A838B839C83290180
:101A30003A01ED82FE820F8318878A2C9B2C560177
:101A400029813A814B815C8124193509460957095E
:101A50008B8D9C8DAD8DBE8D7C018D01E818F908B4
:101A60000A091B09C801B7010E94B10D2D813E81F1
:101A70004F81588524193509460957090E94C10D1F
:101A8000DA01C901880D991DAA1DBB1DBC01CD013C
:101A900028960FB6F894DEBF0FBECDBFDF91CF9171
:101AA0001F910F91FF90EF90DF90CF90BF90AF907C
:101AB0009F908F907F906F905F904F9008950895C2
:101AC0001F920F920FB60F9211242F933F934F93B3
:101AD0005F936F937F938F939F93AF93BF93EF9396
:101AE000FF93E091C501F091C6010995FF91EF9137
:101AF000BF91AF919F918F917F916F915F914F9126
:101B00003F912F910F900FBE0F901F9018951F922D
:101B10000F920FB60F9211242F933F934F935F9321
:101B20006F937F938F939F93AF93BF93EF93FF93A5
:101B3000E091C701F091C8010995FF91EF91BF9124
:101B4000AF919F918F917F916F915F914F913F9155
:101B50002F910F900FBE0F901F901895F8940C9432
:101B6000220EDB018F939F930E94E00DBF91AF91F6
:101B7000A29F800D911DA39F900DB29F900D1124E7
:101B80000895052E97FB1EF400940E94D80D57FD72
:101B900007D00E94EB0D07FC03D04EF40C94D80D37
:101BA00050954095309521953F4F4F4F5F4F089589
:101BB00090958095709561957F4F8F4F9F4F0895B9
:101BC0000E94130EA59F900DB49F900DA49F800DB1
:101BD000911D11240895A1E21A2EAA1BBB1BFD0121
:101BE0000DC0AA1FBB1FEE1FFF1FA217B307E407FC
:101BF000F50720F0A21BB30BE40BF50B661F771F54
:101C0000881F991F1A9469F7609570958095909533
:101C10009B01AC01BD01CF010895EE0FFF1F0590A0
:101C2000F491E02D0994A29FB001B39FC001A39F3E
:101C3000700D811D1124911DB29F700D811D112405
:081C4000911D0895F894FFCFF7
:101C4800000000000000000000000000000000008C
:101C5800000000000000000000000000000000007C
:101C6800000000000000000000000000000000006C
:101C7800000000000000000000000000000000005C
:101C8800000000000000000000000000000000004C
:101C9800000000000000000000000000000000003C
:101CA8000000000000000000FF32000000200200D9
:101CB800009804FFFFFFFFFFFFFFFF00005B06E641
:101CC8000100000000020000000200000002EF0115
:101CD80000000000250100002501000002000000AE
:101CE8000204000000010001000000FFFF000001E5
:101CF80000000000000000000000000000000003D9
:101D080000FF0000015F0D5F0DFFCC015D06D201F1
:101D1800D201DF0100008E0637067D0192020233F0
:101D280006008E017F01A7013E09EC01330600A7DA
:101D3800013E09F501330601A2019D019804120232
:101D480004022002940296020001D10A0000010256
:101D58000100960398030001240B00000001010014
:101D68009D049F045000940C000002000100BF0174
:101D7800000000000101000100E107AF07B807916A
:101D88000798042E07850457076A081609DD0647D1
:101D98000920087B094708CA099008280AD506625D
:101DA8000AD006A50A850AB00AE108BE0AAA0830C0
:021DB800080021
:00000001FF
