:100000000C945D000C94230C0C944A0C0C94850009
:100010000C9485000C9485000C9485000C9485004C
:100020000C9485000C9485000C9485000C9485003C
:100030000C9485000C9485000C9485000C9485002C
:100040000C94090B0C9485000C9485000C9485008D
:100050000C9485000C9485000C9485000C9485000C
:100060000C9485000C94850000000008000201003B
:100070000003040700000000000000000102040863
:100080001020408001020408102001020408102002
:10009000040404040404040402020202020203032E
:1000A0000303030300000000250028002B000000CC
:1000B0000000240027002A001D0C11241FBECFEFD2
:1000C000D8E0DEBFCDBF12E0A0E0B1E0E4E2F9E1AC
:1000D00002C005900D92A438B107D9F726E0A4E834
:1000E000B2E001C01D92AF30B207E1F710E0CDE5FC
:1000F000D0E004C02197FE010E947B0CCC35D107D3
:10010000C9F70E940E0C0C94710C0C940000E2E1F3
:100110000E942C010895E9E00E942C010895EAE074
:100120000E942C010895E1E00E942C010895E3E073
:100130000E942C010895E7E00E942C010895E5E05B
:100140000E942C010895E0E00E942C010895E2E055
:100150000E942C010895E4E00E942C010895ECE037
:100160000E942C010895E8E00E942C010895EEE021
:100170000E942C010895E4E10E942C010895E0E121
:100180000E942C010895E7E10E942C010895E6E009
:100190000E942C010895EBE00E942C010895EDE0EF
:1001A0000E942C010895EFE00E942C010895E1E1E6
:1001B0000E942C010895E3E10E942C010895E5E1DD
:1001C0000E942C010895E6E10E942C0108952196D9
:1001D0008A929A92AA92BA92CA92DA92EA92FA927F
:1001E0000A931A932197E0916901F0916A010080C6
:1001F000F181E02DC083D1830895C0916B01D0912E
:100200006C01E881F981C081D18121961991099110
:10021000F990E990D990C990B990A9909990899056
:10022000219708952F903F90E7E6F1E0CDB7DEB734
:10023000EDBFFEBF3F922F9208952F903F90CDBF0C
:10024000DEBF3F922F920895E0E80E942C010895AE
:10025000E0E40E942C0108952F923F924F925F920A
:100260006F927F922FB62F92CF93DF937E2EF894CA
:10027000E0910001EF5FE0930001E13011F40E9492
:100280001201E0E0E0937901E72DE07849F00E9467
:100290006405F0917A01F17071F00E941A040BC0AC
:1002A000E72DEC3140F4EE0FF0E0ED5AFD4F0190F8
:1002B000F081E02D0995F0917901EF2FE17059F06F
:1002C000F27011F00E94E7008F938F2F0E94660357
:1002D0008F910E94FD002091000121502093000188
:1002E000222311F40E941D01DF91CF912F902FBE88
:1002F0007F906F905F904F903F902F900895FC01FA
:100300004081FB013081842F8F7090E0A0E0B0E04D
:10031000B695A795979587958A569D4FFC012081A4
:10032000F42FF21B2F2F21704E70242B832F8F70F0
:1003300090E0A0E0B0E0B695A795979587958A568E
:100340009D4FFC019081F32FF91B9F2F91703E7000
:10035000932B41E050E0291710F040E050E0CA0133
:1003600008958F929F92AF92BF92EF92FF920F9358
:100370001F93CF93DF938C01CA01DB014C015D0118
:10038000B694A7949794879482309105A105B105FE
:1003900080F0880F991FE801C80FD91F7401EE0C77
:1003A000FF1CE00EF11EBE01C7010E947F01892BD8
:1003B00059F4DF91CF911F910F91FF90EF90BF9073
:1003C000AF909F908F90089598818981F701208147
:1003D00031813983288390838183D501C401D0CFB3
:1003E0004F925F926F927F928F929F92AF92BF9245
:1003F000CF92DF92EF92FF920F931F93CF93DF93F1
:1004000000D000D000D0CDB7DEB78D839E836A01C7
:100410007B01AD81BE814C90842D90E0A0E0B0E0E6
:1004200089839A83AB83BC8346015701880C991C4E
:10043000AA1CBB1C89819A81AB81BC818815990556
:10044000AA05BB05B8F40F900F900F900F900F9076
:100450000F90DF91CF911F910F91FF90EF90DF9060
:10046000CF90BF90AF909F908F907F906F905F9054
:100470004F900895240135019FEF491A590A690ADE
:10048000790A89819A81AB81BC8184159505A6057D
:10049000B70590F0B201660F771FAD81BE816A0F7C
:1004A0007B1FC401880F991F8A0F9B1F0E947F0129
:1004B000892B11F0530142018401000F111FED81BE
:1004C000FE810E0F1F1FCC0CDD1CCE0EDF1EB801EF
:1004D000C6010E947F01892B09F4B5CFD6019C91FA
:1004E00011968C911197F801208131812D933C93C5
:1004F000908381837501640197CFECE9F2E040813C
:100500004F5F408350E060E070E0E82FEE0FFF0B9C
:10051000E95FFD4F0190F081E02D238530E0F90186
:10052000EA56FD4F908191509083FA01EE0FFF1F24
:10053000E456FD4F9170220F331F292B20838183B6
:100540008CE992E00C94B101ECE9F2E040814F5F5C
:10055000408350E060E070E0FA01EE0FFF1FE456C8
:10056000FD4FA82FAA0FBB0BA150BE4F0D90BC9101
:10057000A02D13969C91908381838CE992E00C943A
:10058000B1010F931F93CF93DF93CCE9D2E0888121
:100590009FEF980F98830A811B8190E0880F991F25
:1005A000FC01E456FD4F808191819B838A8341E069
:1005B00050E060E070E0CE010E94F001C801DF91E0
:1005C000CF911F910F9108958091710190917201C7
:1005D000A0917301B09174018F3F2FEF9207A20792
:1005E000B20731F00397A105B10524F082E0089528
:1005F00080E0089581E00895CF93DF93880F990BF1
:10060000FC01E95FFD4F0190F081E02D0084F18550
:10061000E02D3097E1F02281211119C021E02283E1
:1006200081509E4FEC01A881B98113968C9113974C
:100630008183808190E0FC01EA56FD4F20812150AA
:1006400020832170880F991F822B13968C93DF9142
:10065000CF910895CF93DF93880F990BFC01E95F49
:10066000FD4F0190F081E02D0084F185E02D309761
:1006700061F02281213049F4128281509E4FEC01B9
:10068000A881B981818113968C93DF91CF910895D0
:100690008091750190917601A0917701B0917801D8
:1006A00040917101509172016091730170917401D8
:1006B000481759076A077B0741F0E0916F01F091F5
:1006C000700121E024830C94A4020895CF93DF935A
:1006D000D0E0C0E0882389F0D0916901C0916A011F
:1006E000E0916D01F0916E018481833031F081E001
:1006F0008483809171010E94A402E0916F01F091C6
:100700007001F0936E01E0936D0180916B01909107
:100710006C0190936A018093690180917501309119
:100720007601209177019091780180937101309347
:100730007201209373019093740192E094830E945C
:10074000FC028D2F9C2FDF91CF9108958091710134
:100750000E942A03E0916D01F0916E018281811166
:1007600085E084830895CF93DF93282F220F330BE6
:10077000F901E150FE4FC081D1819A81295F3D4F3F
:10078000D901ED91FC912485921780F4911105C057
:1007900095E09C8391E090937A010E947D028A818A
:1007A0008F5F8A8380E0DF91CF91089584E0FBCF53
:1007B000E82FEE0FFF0BE150FE4F0190F081E02D8E
:1007C000118210820C94BD0B1F93CF93DF930E9474
:1007D000C102182F892F492F092E000C550B660BCB
:1007E000770B409375015093760160937701709376
:1007F0007801292F220F330BF901E150FE4FC08100
:10080000D181D0937001C0936F01295F3D4FF901F1
:100810002081318130936C0120936B019C81953054
:1008200019F40E94D8031B8310927A01DF91CF91B3
:100830001F910895E0917501F0917601EE0FFF1F71
:10084000E150FE4F0190F081E02D90919E02838156
:10085000891740F40E9448030E94E40383E08093D8
:100860007901089580E0FBCF81E0809379010C94B9
:10087000E403EF92FF920F931F93CF93DF93C1E0B6
:1008800001C0CC0F8A95EAF783E00E94B3030FE41E
:1008900012E0D0E0F80181918F018C23882319F0B8
:1008A0008D2F0E94B303DF5FD330A1F70CE412E079
:1008B0008EEDE82E81E0F82ED1E0F80181918F01D4
:1008C0008C23882339F0F70180819181FC01D68740
:1008D0000E94A204F2E0EF0EF11C82E00F34180730
:1008E00061F7DF91CF911F910F91FF90EF900895E5
:1008F0000E94450681110E946506E0916D01F0910C
:100900006E0180819181892B21F0809171010E947B
:100910001D080C948A070E94450681110E946506F5
:10092000E0916D01F0916E0180819181892B21F020
:10093000809171010E941D080C94750781E08093DD
:1009400084020895CF92DF92EF92FF920F931F934C
:10095000CF93DF93FC01A081B1810D90BC91A02DBC
:1009600054968D919C915597009709F445C0428506
:1009700053856485758520E030E0EC01CA84DB8412
:10098000EC84FD844C155D056E057F0508F049C0BB
:100990008C0113830283358324830115110519F01B
:1009A000E801FD83EC832115310509F444C0E90118
:1009B000FB83EA835696CD91DC9157970A851B8578
:1009C0002C853D855096CD90DD90ED90FC90539711
:1009D0000C151D052E053F0598F5C416D506E6062F
:1009E000F70628F0401751076207730788F45796F7
:1009F000FC93EE9356970CC05596FC93EE93549748
:100A00005796FC93EE9356971582148213821282A6
:100A1000DF91CF911F910F91FF90EF90DF90CF90DA
:100A20000895EC010A811B819C010115110509F44F
:100A3000B0CFC801A2CF5596FC93EE935497BACF8E
:100A4000C416D506E606F70618F7CCCFCF93DF938A
:100A5000FC01A081B1810D90BC91A02DC281D381F8
:100A600054968D919C9155978E179F0721F455961A
:100A7000DC93CE93549756968D919C9157978E17F1
:100A80009F0721F45796DC93CE935697209721F039
:100A9000848195819D838C830480F581E02D30973E
:100AA00011F0D383C28356968D919C915797892BD1
:100AB00041F454968D919C91559757969C938E93A3
:100AC0005697DF91CF910895EF92FF920F931F9366
:100AD000CF93DF93EC0180918402882309F4ADC0A9
:100AE0008C859D85AE85BF850196A11DB11D8C8726
:100AF0009D87AE87BF87488159816A817B81841732
:100B00009507A607B70709F098C088899989AA8927
:100B1000BB890196A11DB11D4C815D816E817F81D4
:100B2000481759076A077B0718F480E090E0DC015A
:100B3000888B998BAA8BBB8B1C861D861E861F8675
:100B40000E891F890115110509F477C0F801428546
:100B5000538564857585481759076A077B0709F02F
:100B60006CC09F010280F381E02D309749F04285EF
:100B700053856485758584179507A607B70789F39C
:100B8000D80114964D915C914115510529F0DA0177
:100B90001396FC93EE9312978C899D89309741F4BC
:100BA0000817190711F41D8A1C8AEC89FD8907C0F2
:100BB000558344830817190711F4FD8BEC8BFF8BC9
:100BC000EE8BF901138212827801D80112960D91F1
:100BD0001C911397ED91FC910280F381E02DC701E8
:100BE0000995F70186819781A085B1850097A105B8
:100BF000B10551F14285538564857585840F951F34
:100C0000A61FB71F4C815D816E817F8148175907F0
:100C10006A077B0738F4841B950BA60BB70B01976B
:100C2000A109B109F70182879387A487B587C70116
:100C30000E94A2040115110539F6DF91CF911F9191
:100C40000F91FF90EF9008951686F4CFFC018281FA
:100C50000C94B3030E944506809168010895809327
:100C600068010E9439040E949E040C9434040C9480
:100C7000BC0BCF93C82F0E94E402811102C00E94D6
:100C8000040C8C2FCF910C948B0020919102213079
:100C9000D1F04091890250918A0260918B0270914B
:100CA0008C0280918D0290918E02A0918F02B09162
:100CB0009002842B952BA62BB72B21E0892B8A2B16
:100CC0008B2B09F420E0822F08951092910210924C
:100CD0008D0210928E0210928F021092900210924A
:100CE000890210928A0210928B0210928C028091DB
:100CF000850290918602A0918702B091880280932C
:100D0000920290939302A0939402B0939502089557
:100D10000E94070C8091920290919302A0919402FC
:100D2000B09195020196A11DB11D809392029093FE
:100D30009302A0939402B093950280918D029091BA
:100D40008E02A0918F02B09190020196A11DB11D5B
:100D500080938D0290938E02A0938F02B0939002A5
:100D6000089580918D0290918E02A0918F02B09192
:100D700090020097A105B10569F14091920250914E
:100D8000930260919402709195024150510961095A
:100D9000710940939202509393026093940270936E
:100DA00095020197A109B10980938D0290938E025B
:100DB000A0938F02B093900280919202909193023F
:100DC000A0919402B0919502892B8A2B8B2B11F460
:100DD0000C94050C089580918D0290918E02A09143
:100DE0008F02B09190024091890250918A026091E5
:100DF0008B0270918C02842B952BA62BB72B892B01
:100E00008A2B8B2B29F40E94070C81E0809391029E
:100E1000089580919102882321F0109291020C9400
:100E2000050C08950E940B0C809192029091930200
:100E3000A0919402B09195020196A11DB11D8093DD
:100E4000920290939302A0939402B09395028091A2
:100E5000890290918A02A0918B02B0918C02019636
:100E6000A11DB11D8093890290938A02A0938B02E9
:100E7000B0938C0208958091890290918A02A0918A
:100E80008B02B0918C020097A105B10569F14091E8
:100E90009202509193026091940270919502415098
:100EA0005109610971094093920250939302609332
:100EB0009402709395020197A109B1098093890268
:100EC00090938A02A0938B02B0938C02809192023D
:100ED00090919302A0919402B0919502892B8A2B54
:100EE0008B2B11F40C94090C08950E944506811176
:100EF00083E10895CF93C82F0E9445068C2F0E944E
:100F0000B303C82F80917A0181110E941A048C2F9B
:100F1000CF910895CF930E944506C82F8111C3E158
:100F2000E0916D01F0916E018281815082830E9477
:100F3000A60381E0809379010E94E4038C2FCF9176
:100F40000895CF93C82F0E944506E0916D01F0915E
:100F50006E018281815082838C2F0E94B303C82F3F
:100F600081110AC00E94A60381E0809379010E944A
:100F7000E4038C2FCF910895E0916D01F0916E0103
:100F800082818F5F8283F5CFCF930E944506C82F61
:100F90008111C3E1809171010E942A030E941A0409
:100FA0008091710190917201A0917301B0917401CF
:100FB00040917501509176016091770170917801AF
:100FC00084179507A607B70711F40E94FC028C2F1F
:100FD000CF910895CF93DF93EC010E9445068111D4
:100FE00083E14091710150917201609173017091A0
:100FF0007401433051056105710514F04091DD0124
:101000004883DF91CF9108950F931F93CF93C82FFB
:101010008B010E944506811183E1EC2FEE0FFF0B3F
:10102000E150FE4F0190F081E02D94819370F80122
:101030009083CF911F910F910895E82FEE0FFF0B32
:10104000E150FE4FA081B181ED91FC911197309755
:1010500089F01D921C928091DD01DF010380F481F3
:10106000E02D12968C93129714961C921E92139751
:10107000309799F70895CF93C82F0E9445068111A4
:1010800083E1EC2FF0E0EE0FFF1FE95BFD4F0190D5
:10109000F081E02D909171019283A0916D01B0914A
:1010A0006E012D913C911197348323831196FC930B
:1010B000EE9313969C9113979183208196959217A6
:1010C00068F430E0F901EA56FD4F90819150908329
:1010D0009170220F331F292B13962C93CF910895D3
:1010E000CF93DF93C82F0E944506D82F8111D3E1FB
:1010F000EC2FF0E0EE0FFF1FE95BFD4F0190F08158
:10110000E02DA0916D01B0916E01818113968C93B9
:101110001397838194818D939C9314821382809181
:10112000DD0182830E941A048D2FDF91CF910895F3
:10113000DC01ED91FC9184819581DC01ED91FC91C4
:1011400009941F93CF93DF93182FEB010E9445065C
:10115000811183E1E12FF0E0EE0FFF1FE252FE4F1D
:101160000190F081E02D0190F081E02D0190F0815F
:10117000E02D40815181628173814C835D836E8358
:101180007F834481558166817781488359836A834F
:101190007B834085518562857385488759876A8737
:1011A0007B87DF91CF911F9108958F929F92AF928D
:1011B000BF92CF92DF92EF92FF920F931F93CF9344
:1011C000C82F8B010E944506811183E1EC2FF0E0CE
:1011D000EE0FFF1FE252FE4F0190F081E02D968549
:1011E000913081F542855385648575850190F08144
:1011F000E02D0190F081E02DC088D188E288F3884D
:101200004C155D056E057F0540F484809580A680B1
:10121000B780480D591D6A1D7B1D4C195D096E096B
:101220007F09F8014083518362837383CF911F91BB
:101230000F91FF90EF90DF90CF90BF90AF909F9075
:101240008F90089585E0F2CFAF92BF92CF92DF9258
:10125000EF92FF920F931F93CF93DF93A82E6A0113
:101260007B01B22ED32F0E944506C82F8111C3E106
:10127000EA2DF0E0EE0FFF1FE252FE4F0190F081E9
:10128000E02D868581113CC0A081B1810D90BC917B
:10129000A02D50964D915D916D917C915397C40E08
:1012A000D51EE61EF71E14968D919D910D90BC9152
:1012B000A02D8C159D05AE05BF0548F4C81AD90AA6
:1012C000EA0AFB0A81E0C81AD108E108F108C286DF
:1012D000D386E486F58606831783B086D18781E0BE
:1012E0008687CF010E94A2048C2FDF91CF911F919E
:1012F0000F91FF90EF90DF90CF90BF90AF90089547
:10130000C7E0F2CFAF92BF92CF92DF92EF92FF92FF
:101310000F931F93CF93DF93C82F5A016B0179016D
:101320000E944506D82F8111D3E1EC2FF0E0EE0F9B
:10133000FF1FE252FE4F0190F081E02D8685811162
:1013400019C0A286B386C486D58606831783E08635
:10135000F18681E08687CF010E94A2048D2FDF9164
:10136000CF911F910F91FF90EF90DF90CF90BF90A2
:10137000AF900895D7E0F2CF0F931F93CF93DF93F1
:10138000C82F0E944506D82F8111D3E1EC2FF0E041
:10139000EE0FFF1FE252FE4F00811181F80186859A
:1013A000813059F4C8010E942605F80116868D2F58
:1013B000DF91CF911F910F910895D5E0F8CFCF9293
:1013C000DF92EF92FF92CF93DF9300D000D000D056
:1013D000CDB7DEB76E834D832BE930E0DC010E9490
:1013E000740C69837A838B839C83442341F08091BE
:1013F0004B020E94CB0061E087E00E94DA0A61E0C4
:101400008E810E94DA0AC12CD12C760189819A81C1
:10141000AB81BC81C816D906EA06FB06D9F460E0A8
:101420008E810E94DA0A9D819923E1F080914B021E
:101430000E94CF0060E087E00F900F900F900F9018
:101440000F900F90DF91CF91FF90EF90DF90CF90B2
:101450000C94DA0A0E94610B8FEFC81AD80AE80AC6
:10146000F80AD4CF0F900F900F900F900F900F901D
:10147000DF91CF91FF90EF90DF90CF90089561E0E2
:1014800081E00E94A00A61E082E00E94A00A61E07F
:1014900083E00E94A00A61E087E00C94A00A41E08A
:1014A00061E070E088EC90E00E94DF090C94B300EA
:1014B00040E062E070E08CEB92E00E94DF090C9467
:1014C000B30040E063E070E084E690E00E94DF0952
:1014D00041E063E070E088EC90E00E94DF090C944A
:1014E000B30087EB91E00C9424010895843099F0C7
:1014F00038F48230C1F0833041F0813081F00895BA
:101500008730A1F08830C1F00895809180008F77F6
:10151000809380000895809180008F7DF9CF84B5FD
:101520008F7784BD089584B58F7DFBCF8091B00007
:101530008F778093B00008958091B0008F7DF9CFB0
:10154000CF93DF9390E0FC01E458FF4F2491805744
:101550009F4FFC0184918823C9F090E0880F991F68
:10156000FC01E255FF4FA591B491FC01EC55FF4FF2
:10157000C591D4919FB761110CC0F8948C912095BE
:1015800082238C938881282328839FBFDF91CF916A
:101590000895623051F4F8943C91822F8095832312
:1015A0008C938881822B8883F0CFF8948C91822B46
:1015B0008C93EBCF1F93CF93DF93162F282F30E020
:1015C000F901E859FF4F8491F901E458FF4FD49194
:1015D000F901E057FF4FC491CC23A1F081110E9483
:1015E000760AEC2FF0E0EE0FFF1FEC55FF4FA591B0
:1015F000B4919FB7F8948C91111108C0D095D8235D
:10160000DC939FBFDF91CF911F9108958D2B8C9319
:10161000F8CF1F920F920FB60F9211242F933F9382
:101620004F935F936F937F938F939F93AF93BF93EA
:10163000EF93FF938091060690910706A09108060C
:10164000B09109063091050623E0230F2D3798F558
:101650000196A11DB11D2093050680930606909367
:101660000706A0930806B093090680910A06909198
:101670000B06A0910C06B0910D060196A11DB11D9F
:1016800080930A0690930B06A0930C06B0930D0668
:101690000E94710AFF91EF91BF91AF919F918F913D
:1016A0007F916F915F914F913F912F910F900FBE5E
:1016B0000F901F90189526E8230F0296A11DB11DCB
:1016C000CACFCF93DF9300D000D0CDB7DEB78FB7AE
:1016D000F894209106063091070640910806509133
:1016E000090629833A834B835C838FBF69817A81A2
:1016F0008B819C810F900F900F900F90DF91CF9175
:10170000089584B5826084BD84B5816084BD85B54B
:10171000826085BD85B5816085BDEEE6F0E08081A3
:1017200081608083E1E8F0E01082808182608083C4
:10173000808181608083E0E8F0E080818160808347
:10174000E1EBF0E0808184608083E0EBF0E0808179
:1017500081608083EAE7F0E080818460808380811B
:1017600082608083808181608083808180688083C3
:101770001092C1000895FFCFFFCFCF93DF93E82FE2
:10178000EE0FFF0BE95FFD4FA081B18114968D91A3
:101790009C91159701971296ED91FC911397E80F84
:1017A000F91F1D968C911D972BEA30E0823011F0C5
:1017B00027EC30E02083EF012197388316969C9127
:1017C000169717968C91179721979883219788835E
:1017D0009F012950310986E0E90119928A95E9F7BC
:1017E000EF012A9780E888832D5031098CE0E901C8
:1017F00019928A95E9F70D90BC91A02D7797ED93FA
:10180000FC93DF91CF910895089578940895F8940A
:10181000089578940895F894089508950E94810B8E
:101820000E940D0C0E94750A0E943F0A80910E06CC
:101830000E94390680E090E00895809152028093E2
:101840000E06089508951F920F920FB60F9211245D
:101850002F933F934F935F936F937F938F939F93B8
:10186000AF93BF93EF93FF93E091D901F091DA0129
:101870000995FF91EF91BF91AF919F918F917F91CA
:101880006F915F914F913F912F910F900FBE0F90ED
:101890001F9018951F920F920FB60F9211242F933D
:1018A0003F934F935F936F937F938F939F93AF93E8
:1018B000BF93EF93FF93E091DB01F091DC01099579
:1018C000FF91EF91BF91AF919F918F917F916F9118
:1018D0005F914F913F912F910F900FBE0F901F90EE
:1018E0001895F8940C94900C0E94810CB7FF089501
:1018F000821B930B0895EE0FFF1F0590F491E02DCE
:101900000994A29FB001B39FC001A39F700D811DD8
:101910001124911DB29F700D811D1124911D0895F8
:04192000F894FFCF69
:1019240000000000000000000000000000000000B3
:1019340000000000000000000000000000000000A3
:101944000000000000000000000000000000000093
:101954000000000000000000000000000000000083
:101964000000000000000000000000000000000073
:101974000000000000000000000000000000000063
:101984000000000000000000FF000039020000AE6B
:1019940005FFFFFFFFFFFFFFFF0000E40100000061
:1019A40000AE0A0000AE0A000002ED0100000000D3
:1019B400B9050000B905000002F60100000000D1DD
:1019C400030000D103000002000000030400000033
:1019D4000204000000010401000000FFFF000001F8
:1019E40000000000000000000000000000000004EF
:1019F40000FF00000400FF0000220C220CFF9901EC
:101A04008A017B01B7019808EA01260600B701980C
:101A140008F301260601B7019808FC01260602B264
:101A240001AD01A801AE052B021D020F023902A867
:101A340002AA0200014F0A000002030100AA03AC3B
:101A4400030001580A000001020100AC04AE0400C6
:101A540001610A000000010100B305B5055000BB97
:101A64000B000003000100D401CF010001010101BA
:101A74000101003B0709071207EB068B048806786F
:101A840004B1068A072F0637063B087A077008A1B7
:101A940007A108EA07D5082A062409C4078209BC55
:041AA4000904080029
:00000001FF
