:100000000C9436000C94F20C0C94190D0C945E00B8
:100010000C945E000C945E000C945E000C945E00E8
:100020000C945E000C945E000C945E000C945E00D8
:100030000C945E000C945E000C945E000C945E00C8
:100040000C94790B0C945E000C943D0E0C946A0E8B
:100050000C945E000C945E000C945E000C945E00A8
:100060000C945E000C945E00880C900E11241FBE50
:10007000CFEFD8E0DEBFCDBF12E0A0E0B1E0E0E618
:10008000F3E202C005900D92A837B107D9F725E039
:10009000A8E7B2E001C01D92AE39B207E1F710E067
:1000A000C6E3D0E004C02197FE010E949911C43339
:1000B000D107C9F70E94790C0C9412110C9400001E
:1000C000E2E10E9405010895E9E00E94050108951A
:1000D000EAE00E9405010895E1E00E94050108950B
:1000E000E3E00E9405010895E7E00E9405010895FC
:1000F000E5E00E9405010895E0E00E9405010895F1
:10010000E2E00E9405010895E4E00E9405010895DF
:10011000ECE00E9405010895E8E00E9405010895C1
:10012000EEE00E9405010895E4E10E9405010895B2
:10013000E0E10E9405010895E7E10E9405010895AC
:10014000E6E00E9405010895EBE00E940501089594
:10015000EDE00E9405010895EFE00E940501089579
:10016000E1E10E9405010895E3E10E94050108957F
:10017000E5E10E9405010895E6E10E940501089568
:1001800021968A929A92AA92BA92CA92DA92EA92A4
:10019000FA920A931A932197E0916F01F0917001FE
:1001A0000080F181E02DC083D1830895C091710159
:1001B000D0917201E881F981C081D1812196199194
:1001C0000991F990E990D990C990B990A990999026
:1001D0008990219708952F903F90E7E6F1E0CDB701
:1001E000DEB7EDBFFEBF3F922F9208952F903F9054
:1001F000CDBFDEBF3F922F920895E0E80E94050137
:100200000895E0E40E94050108952F923F924F92D5
:100210005F926F927F922FB62F92CF93DF937E2EB5
:10022000F894E0910001EF5FE0930001E13011F4F8
:100230000E94EB00E0E0E0937F01E72DE07849F0D9
:100240000E943A05F0918001F17071F00E94F30371
:100250000BC0E72DEC3140F4EE0FF0E0EB5CFD4F0E
:100260000190F081E02D0995F0917F01EF2FE17071
:1002700059F0F27011F00E94C0008F938F2F0E94EE
:100280003F038F910E94D6002091000121502093BE
:100290000001222311F40E94F600DF91CF912F90EC
:1002A0002FBE7F906F905F904F903F902F9008955A
:1002B000FC014081FB013081842F877090E0A0E039
:1002C000B0E0B695A7959795879580579D4FFC010F
:1002D0002081F42FF21B2F2F21704670242B832FA7
:1002E000877090E0A0E0B0E0B695A79597958795C8
:1002F00080579D4FFC019081F32FF91B9F2F917028
:100300003670932B41E050E0291710F040E050E0A8
:10031000CA0108958F929F92AF92BF92EF92FF927F
:100320000F931F93CF93DF938C01CA01DB014C0124
:100330005D01B694A7949794879482309105A105A6
:10034000B10580F0880F991FE801C80FD91F74010B
:10035000EE0CFF1CE00EF11EBE01C7010E94580109
:10036000892B59F4DF91CF911F910F91FF90EF905E
:10037000BF90AF909F908F90089598818981F701E9
:10038000208131813983288390838183D501C40101
:10039000D0CF4F925F926F927F928F929F92AF9247
:1003A000BF92CF92DF92EF92FF920F931F93CF9362
:1003B000DF9300D000D000D0CDB7DEB78D839E8311
:1003C0006A017B01AD81BE814C90842D90E0A0E05C
:1003D000B0E089839A83AB83BC8346015701880CC4
:1003E000991CAA1CBB1C89819A81AB81BC81881590
:1003F0009905AA05BB05B8F40F900F900F900F90C8
:100400000F900F90DF91CF911F910F91FF90EF9080
:10041000DF90CF90BF90AF909F908F907F906F9024
:100420005F904F900895240135019FEF491A590AB2
:10043000690A790A89819A81AB81BC818415950505
:10044000A605B70590F0B201660F771FAD81BE819A
:100450006A0F7B1FC401880F991F8A0F9B1F0E9480
:100460005801892B11F0530142018401000F111F23
:10047000ED81FE810E0F1F1FCC0CDD1CCE0EDF1E8A
:10048000B801C6010E945801892B09F4B5CFD601E5
:100490009C9111968C911197F801208131812D93B7
:1004A0003C93908381837501640197CFE4E9F2E086
:1004B00040814F5F408350E060E070E0E82FEE0F36
:1004C000FF0BE250FE4F0190F081E02D238530E0DC
:1004D000F901E057FD4F908191509083FA01EE0FA2
:1004E000FF1FEC56FD4F9170220F331F292B2083E5
:1004F000818384E992E00C948A01E4E9F2E040818E
:100500004F5F408350E060E070E0FA01EE0FFF1FA4
:10051000EC56FD4FA82FAA0FBB0BA850BE4F0D9055
:10052000BC91A02D13969C919083818384E992E0E5
:100530000C948A010F931F93CF93DF93C4E9D2E009
:1005400088819FEF980F98830A811B8190E0880F24
:10055000991FFC01EC56FD4F808191819B838A831A
:1005600041E050E060E070E0CE010E94C901C801A6
:10057000DF91CF911F910F91089580917701909114
:100580007801A0917901B0917A018F3F2FEF920706
:10059000A207B20731F00297A105B10524F082E06D
:1005A000089580E0089581E00895CF93DF93880F48
:1005B000990BFC01E250FE4F0190F081E02D008488
:1005C000F185E02D3097E1F02281211119C021E061
:1005D000228388509E4FEC01A881B98113968C919B
:1005E00013978183808190E0FC01E057FD4F2081CB
:1005F000215020832170880F991F822B13968C9392
:10060000DF91CF910895CF93DF93880F990BFC0171
:10061000E250FE4F0190F081E02D0084F185E02D45
:10062000309761F02281213049F4128288509E4F28
:10063000EC01A881B981818113968C93DF91CF91D0
:10064000089580917B0190917C01A0917D01B091F2
:100650007E0140917701509178016091790170910C
:100660007A01481759076A077B0741F0E091750145
:10067000F091760121E024830C947D020895CF93BC
:10068000DF93D0E0C0E0882389F0D0916F01C09162
:100690007001E0917301F09174018481833031F035
:1006A00081E08483809177010E947D02E091750151
:1006B000F0917601F0937401E093730180917101E0
:1006C000909172019093700180936F0180917B01F2
:1006D00030917C0120917D0190917E018093770182
:1006E000309378012093790190937A0192E094837A
:1006F0000E94D5028D2F9C2FDF91CF91089580917C
:1007000077010E940303E0917301F09174018281EB
:10071000811185E084830895CF93DF93282F220FE2
:10072000330BF901E850FE4FC081D1819A812250EC
:100730003E4FD901ED91FC912485921780F49111DF
:1007400005C095E09C8391E0909380010E94560241
:100750008A818F5F8A8380E0DF91CF91089584E062
:10076000FBCFE82FEE0FFF0BE850FE4F0190F0811A
:10077000E02D118210820C94280C1F93CF93DF93ED
:100780000E949A02182F892F492F092E000C550B11
:10079000660B770B40937B0150937C0160937D0146
:1007A00070937E01292F220F330BF901E850FE4F81
:1007B000C081D181D0937601C093750122503E4F04
:1007C000F9012081318130937201209371019C8164
:1007D000953019F40E94B1031B8310928001DF91C0
:1007E000CF911F910895E0917B01F0917C01EE0F74
:1007F000FF1FE850FE4F0190F081E02D909196028E
:100800008381891740F40E9421030E94BD0383E085
:1008100080937F01089580E0FBCF81E080937F018A
:100820000C94BD03CF93DF93C1E0D0E001C0CC0FA7
:100830008A95EAF782E00E948C03809132028C2331
:10084000882319F080E00E948C03809133028C236E
:10085000882319F081E00E948C03809130028C2360
:10086000882349F08091E2019091E30121E0FC01AD
:1008700026870E947804809131028C23882359F0C6
:100880008091E4019091E50121E0FC012687DF9150
:10089000CF910C947804DF91CF9108950E941B06AC
:1008A00081110E943B06E0917301F09174018081F7
:1008B0009181892B21F0809177010E94F3070C949C
:1008C00060070E941B0681110E943B06E0917301A4
:1008D000F091740180819181892B21F080917701C1
:1008E0000E94F3070C944B0781E080937C020895EB
:1008F000CF92DF92EF92FF920F931F93CF93DF93EC
:10090000FC01A081B1810D90BC91A02D54968D91D8
:100910009C915597009709F445C04285538564859D
:10092000758520E030E0EC01CA84DB84EC84FD8432
:100930004C155D056E057F0508F049C08C011383D9
:100940000283358324830115110519F0E801FD8325
:10095000EC832115310509F444C0E901FB83EA83E6
:100960005696CD91DC9157970A851B852C853D8540
:100970005096CD90DD90ED90FC9053970C151D0591
:100980002E053F0598F5C416D506E606F70628F0AD
:10099000401751076207730788F45796FC93EE934C
:1009A00056970CC05596FC93EE9354975796FC932C
:1009B000EE9356971582148213821282DF91CF91A3
:1009C0001F910F91FF90EF90DF90CF900895EC0171
:1009D0000A811B819C010115110509F4B0CFC801E2
:1009E000A2CF5596FC93EE935497BACFC416D50672
:1009F000E606F70618F7CCCFCF93DF93FC01A08172
:100A0000B1810D90BC91A02DC281D38154968D915E
:100A10009C9155978E179F0721F45596DC93CE93A2
:100A2000549756968D919C9157978E179F0721F456
:100A30005796DC93CE935697209721F08481958129
:100A40009D838C830480F581E02D309711F0D38352
:100A5000C28356968D919C915797892B41F4549659
:100A60008D919C91559757969C938E935697DF91B5
:100A7000CF910895EF92FF920F931F93CF93DF933F
:100A8000EC0180917C02882309F4ADC08C859D85A2
:100A9000AE85BF850196A11DB11D8C879D87AE8750
:100AA000BF87488159816A817B8184179507A60792
:100AB000B70709F098C088899989AA89BB890196E6
:100AC000A11DB11D4C815D816E817F814817590741
:100AD0006A077B0718F480E090E0DC01888B998B33
:100AE000AA8BBB8B1C861D861E861F860E891F89BE
:100AF0000115110509F477C0F80142855385648515
:100B00007585481759076A077B0709F06CC09F0174
:100B10000280F381E02D309749F04285538564854A
:100B2000758584179507A607B70789F3D80114962A
:100B30004D915C914115510529F0DA011396FC9312
:100B4000EE9312978C899D89309741F40817190705
:100B500011F41D8A1C8AEC89FD8907C055834483E2
:100B60000817190711F4FD8BEC8BFF8BEE8BF90145
:100B7000138212827801D80112960D911C9113975D
:100B8000ED91FC910280F381E02DC7010995F701F9
:100B900086819781A085B1850097A105B10551F1A6
:100BA0004285538564857585840F951FA61FB71FE1
:100BB0004C815D816E817F81481759076A077B07E9
:100BC00038F4841B950BA60BB70B0197A109B1094B
:100BD000F70182879387A487B587C7010E947804AD
:100BE0000115110539F6DF91CF911F910F91FF90FB
:100BF000EF9008951686F4CFFC0182810C948C034B
:100C00000E941B0680916E01089580936E010E94E0
:100C100012040E9474040C940D040C94270CCF93BE
:100C2000C82F0E94BD02811102C00E946F0C8C2F40
:100C3000CF910C946400209189022130D1F0409131
:100C400081025091820260918302709184028091AE
:100C5000850290918602A0918702B0918802842B30
:100C6000952BA62BB72B21E0892B8A2B8B2B09F4F4
:100C700020E0822F0895109289021092850210922E
:100C800086021092870210928802109281021092BE
:100C90008202109283021092840280917D029091D0
:100CA0007E02A0917F02B091800280938A0290938D
:100CB0008B02A0938C02B0938D0208950E94720C57
:100CC00080918A0290918B02A0918C02B0918D024A
:100CD0000196A11DB11D80938A0290938B02A0936F
:100CE0008C02B0938D028091850290918602A09132
:100CF0008702B09188020196A11DB11D80938502E3
:100D000090938602A0938702B09388020895809101
:100D1000850290918602A0918702B0918802009787
:100D2000A105B10569F140918A0250918B02609151
:100D30008C0270918D0241505109610971094093F3
:100D40008A0250938B0260938C0270938D020197FC
:100D5000A109B1098093850290938602A09387022E
:100D6000B093880280918A0290918B02A0918C02AC
:100D7000B0918D02892B8A2B8B2B11F40C94700C63
:100D800008958091850290918602A0918702B0918A
:100D90008802409181025091820260918302709199
:100DA0008402842B952BA62BB72B892B8A2B8B2B7C
:100DB00029F40E94720C81E0809389020895809149
:100DC0008902882321F0109289020C94700C0895F6
:100DD0000E94760C80918A0290918B02A0918C02E5
:100DE000B0918D020196A11DB11D80938A0290934E
:100DF0008B02A0938C02B0938D028091810290911E
:100E00008202A0918302B09184020196A11DB11DBE
:100E10008093810290938202A0938302B093840214
:100E200008958091810290918202A0918302B091F5
:100E300084020097A105B10569F140918A025091A1
:100E40008B0260918C0270918D02415051096109B1
:100E5000710940938A0250938B0260938C027093C5
:100E60008D020197A109B1098093810290938202BA
:100E7000A0938302B093840280918A0290918B02A6
:100E8000A0918C02B0918D02892B8A2B8B2B11F4AF
:100E90000C94740C08950E941B06811183E108953F
:100EA000CF93C82F0E941B068C2F0E948C03C82F43
:100EB0008091800181110E94F3038C2FCF910895BE
:100EC000CF930E941B06C82F8111C3E1E0917301EB
:100ED000F09174018281815082830E947F0381E0BE
:100EE00080937F010E94BD038C2FCF910895CF93F3
:100EF000C82F0E941B06E0917301F091740182815A
:100F0000815082838C2F0E948C03C82F81110AC0CC
:100F10000E947F0381E080937F010E94BD038C2F9C
:100F2000CF910895E0917301F091740182818F5FF8
:100F30008283F5CFCF930E941B06C82F8111C3E196
:100F4000809177010E9403030E94F303809177014F
:100F500090917801A0917901B0917A0140917B0143
:100F600050917C0160917D0170917E0184179507FD
:100F7000A607B70711F40E94D5028C2FCF910895D0
:100F8000CF93DF93EC010E941B06811183E1409116
:100F90007701509178016091790170917A01423026
:100FA00051056105710514F04091CB014883DF9133
:100FB000CF9108950F931F93CF93C82F8B010E9459
:100FC0001B06811183E1EC2FEE0FFF0BE850FE4F63
:100FD0000190F081E02D94819370F8019083CF917E
:100FE0001F910F910895E82FEE0FFF0BE850FE4F71
:100FF000A081B181ED91FC911197309789F01D92FC
:101000001C928091CB01DF010380F481E02D1296C8
:101010008C93129714961C921E921397309799F7FF
:101020000895CF93C82F0E941B06811183E1EC2FF6
:10103000F0E0EE0FFF1FE25DFD4F0190F081E02D2B
:10104000909177019283A0917301B09174012D91D9
:101050003C911197348323831196FC93EE9313965E
:101060009C911397918320819695921768F430E0B4
:10107000F901E057FD4F9081915090839170220FBC
:10108000331F292B13962C93CF910895CF93DF9381
:10109000C82F0E941B06D82F8111D3E1EC2FF0E05E
:1010A000EE0FFF1FE25DFD4F0190F081E02DA0915A
:1010B0007301B0917401818113968C93139783818E
:1010C00094818D939C93148213828091CB018283AF
:1010D0000E94F3038D2FDF91CF910895DC01ED91F4
:1010E000FC9184819581DC01ED91FC9109941F9321
:1010F000CF93DF93182FEB010E941B06811183E130
:10110000E12FF0E0EE0FFF1FEE51FE4F0190F08156
:10111000E02D0190F081E02D0190F081E02D4081E3
:101120005181628173814C835D836E837F834481AF
:10113000558166817781488359836A837B834085A3
:10114000518562857385488759876A877B87DF91D8
:10115000CF911F9108958F929F92AF92BF92CF929D
:10116000DF92EF92FF920F931F93CF93C82F8B01C3
:101170000E941B06811183E1EC2FF0E0EE0FFF1FB0
:10118000EE51FE4F0190F081E02D9685913081F572
:1011900042855385648575850190F081E02D01902D
:1011A000F081E02DC088D188E288F3884C155D0578
:1011B0006E057F0540F484809580A680B780480D39
:1011C000591D6A1D7B1D4C195D096E097F09F801C7
:1011D0004083518362837383CF911F910F91FF905E
:1011E000EF90DF90CF90BF90AF909F908F90089539
:1011F00085E0F2CFAF92BF92CF92DF92EF92FF9253
:101200000F931F93CF93DF93A82E6A017B01B22E19
:10121000D32F0E941B06C82F8111C3E1EA2DF0E0F5
:10122000EE0FFF1FEE51FE4F0190F081E02D8685FD
:1012300081113CC0A081B1810D90BC91A02D509630
:101240004D915D916D917C915397C40ED51EE61E14
:10125000F71E14968D919D910D90BC91A02D8C152B
:101260009D05AE05BF0548F4C81AD90AEA0AFB0A6B
:1012700081E0C81AD108E108F108C286D386E48665
:10128000F58606831783B086D18781E08687CF01F4
:101290000E9478048C2FDF91CF911F910F91FF90C6
:1012A000EF90DF90CF90BF90AF900895C7E0F2CF5E
:1012B000AF92BF92CF92DF92EF92FF920F931F9364
:1012C000CF93DF93C82F5A016B0179010E941B064F
:1012D000D82F8111D3E1EC2FF0E0EE0FFF1FEE517C
:1012E000FE4F0190F081E02D8685811119C0A28604
:1012F000B386C486D58606831783E086F18681E0AF
:101300008687CF010E9478048D2FDF91CF911F91A6
:101310000F91FF90EF90DF90CF90BF90AF90089526
:10132000D7E0F2CF0F931F93CF93DF93C82F0E9484
:101330001B06D82F8111D3E1EC2FF0E0EE0FFF1F39
:10134000EE51FE4F00811181F8018685813059F4FC
:10135000C8010E94FC04F80116868D2FDF91CF9101
:101360001F910F910895D5E0F8CF26E040E052ECB0
:1013700061E070E081E095E00E94880F64E170E038
:1013800084E690E00E94760A90938F0280938E020A
:101390000895AF92BF92CF92DF92EF92FF920F9398
:1013A0001F93CF93DF9300D000D0CDB7DEB78EE090
:1013B0000E940B0C9C01990F440B550B29833A8317
:1013C0004B835C831F921F921F928FEF8F93A12CF0
:1013D000B12C6501EE24EA9413E0F12E00E010E058
:1013E00020E030E0A90169817A818B819C810E9493
:1013F0008D0C80918E0290918F020E94980A0F901E
:101400000F900F900F900F900F900F900F90DF9113
:10141000CF911F910F91FF90EF90DF90CF90BF90F1
:10142000AF900C948C00EF92FF920F931F93CF9389
:10143000DF9380918E0290918F020E94EB0A7C01D3
:1014400080918E0290918F020E94B00ABC0180911F
:101450008E0290918F020E94CB0AEC016CEC71E03D
:1014600081E095E00E94840D8701E12CF12CEC16BF
:10147000FD0644F0DF91CF911F910F91FF90EF9007
:101480000C948C006EEC71E081E095E00E94840D7C
:10149000F801619171918F014AE050E081E095E09F
:1014A0000E94360E63ED71E081E095E00E94840DAC
:1014B00080918E0290918F020E94B00ABC014AE096
:1014C00050E081E095E00E94360E6AED71E081E027
:1014D00095E00E94840D4AE050E0BE0181E095E075
:1014E0000E94360EFFEFEF1AFF0AC1CFEF92FF9274
:1014F0000F931F93CF93DF938C017B0188E090E0E3
:101500000E94EA0FEC01C801880F991F0E94EA0FA0
:10151000998388831B821A821D830C83EE82FF824B
:10152000CE01DF91CF911F910F91FF90EF90089521
:10153000FC0182819381880F991FA081B181A80F3E
:10154000B91F6D937C9382819381019693838283EB
:10155000248135818217930711F413821282089532
:10156000FC016481758188E19CEF20E030E0261762
:1015700037070CF00895A081B181A901440F551FD0
:10158000A40FB51F4D915C91841795070CF4CA0107
:101590002F5F3F4FECCFCF93DF93FC01AB01C481B2
:1015A000D58180E090E020E030E02C173D071CF072
:1015B000DF91CF910895A081B181B901660F771FA6
:1015C000A60FB71F6D917C916417750709F40196FA
:1015D0002F5F3F4FEACF4F925F926F927F928F9231
:1015E0009F92AF92BF92CF92DF92EF92FF920F93B2
:1015F0001F93CF93DF93EC010E94B00A7C01BC01E2
:10160000CE010E94CB0A8C016C0181E0C81AD1087E
:10161000C601880F991F0E94EA0F9C016C807D8093
:1016200060E070E04FEF5FEF80E090E08615970597
:101630001CF406171707D9F4E901E0E0F0E00CE329
:1016400010E0EC15FD050CF441C0C901DF91CF910C
:101650001F910F91FF90EF90DF90CF90BF90AF90D0
:101660009F908F907F906F905F904F900895E8814A
:10167000F981DC01AA0FBB1FEA0FFB1F0190F0816B
:10168000E02DEE16FF06F1F4FB0131964F3F5407B3
:10169000D9F061507048660F771F4901860E971E7A
:1016A000AE80BF80BC01641B750B6A9D20016B9DE1
:1016B000500C7A9D500C1124D4014D925C920196ED
:1016C000BF01B4CFFB01FBCFAC01F9CF6991799198
:1016D0007E01B2E0EB1AF108C8010E942511D70182
:1016E0006D937C933196ADCF89EA91E00C94FD0027
:1016F00008951F920F920FB60F9211242F933F93CC
:101700004F935F936F937F938F939F93AF93BF9309
:10171000EF93FF938091F8049091F904A091FA045B
:10172000B091FB043091F70423E0230F2D3798F597
:101730000196A11DB11D2093F7048093F8049093A6
:10174000F904A093FA04B093FB048091FC049091F7
:10175000FD04A091FE04B091FF040196A11DB11DEE
:101760008093FC049093FD04A093FE04B093FF04C7
:101770000E94740BFF91EF91BF91AF919F918F9158
:101780007F916F915F914F913F912F910F900FBE7D
:101790000F901F90189526E8230F0296A11DB11DEA
:1017A000CACF84B5826084BD84B5816084BD85B5AF
:1017B000826085BD85B5816085BDEEE6F0E0808103
:1017C00081608083E1E8F0E0108280818260808324
:1017D000808181608083E0E8F0E0808181608083A7
:1017E000E1EBF0E0808184608083E0EBF0E08081D9
:1017F00081608083EAE7F0E080818460808380817B
:101800008260808380818160808380818068808322
:101810001092C10008958E3008F08E502091C601BC
:1018200090E4299F900111248770282B20937C003D
:1018300080917A00806480937A0080917A0086FD9E
:10184000FCCF80917800909179000895FFCFFFCF71
:10185000CF93DF93E82FEE0FFF0BE250FE4FA081F6
:10186000B18114968D919C91159701971296ED91E7
:10187000FC911397E80FF91F1D968C911D9724E892
:1018800030E0823011F020EA30E02083EF01219730
:10189000388316969C91169717968C9117972197D7
:1018A0009883219788839F012950310986E0E901B7
:1018B00019928A95E9F7EF012A9780E888832D50DD
:1018C00031098CE0E90119928A95E9F70D90BC91F4
:1018D000A02D7797ED93FC93DF91CF910895089514
:1018E00078940895F894089578940895F894089554
:1018F00008950E94D10B0E94780C0E94780B0E94E0
:10190000B509809100050E940F0680E090E00895DF
:10191000809134028093000508954F925F926F92F8
:101920007F928F929F92AF92BF92CF92DF92EF926F
:10193000FF920F931F93CF93DF93CDB7DEB7289716
:101940000FB6F894DEBF0FBECDBF69837A838B8359
:101950009C8329013A01ED82FE820F8318878A2C2D
:101960009B2C560129813A814B815C8124193509D0
:10197000460957098B8D9C8DAD8DBE8D7C018D01E7
:10198000E818F9080A091B09C801B7010E941511D6
:101990002D813E814F815885241935094609570903
:1019A0000E945B11DA01C901880D991DAA1DBB1D9A
:1019B000BC01CD0128960FB6F894DEBF0FBECDBF97
:1019C000DF91CF911F910F91FF90EF90DF90CF901B
:1019D000BF90AF909F908F907F906F905F904F904F
:1019E000089508951F920F920FB60F9211242F930E
:1019F0003F934F935F936F937F938F939F93AF9397
:101A0000BF93EF93FF93E091C701F091C80109954F
:101A1000FF91EF91BF91AF919F918F917F916F91C6
:101A20005F914F913F912F910F900FBE0F901F909C
:101A300018951F920F920FB60F9211242F933F9378
:101A40004F935F936F937F938F939F93AF93BF93C6
:101A5000EF93FF93E091C901F091CA010995FF91BD
:101A6000EF91BF91AF919F918F917F916F915F9116
:101A70004F913F912F910F900FBE0F901F9018958F
:101A8000CF92DF92EF92FF920F931F93CF93DF934A
:101A90007C016A0100E010E00C151D0551F4C8013D
:101AA000DF91CF911F910F91FF90EF90DF90CF903A
:101AB0000895EB01D701ED91FC910190F081E02DAB
:101AC0006991C7010995892B51F30F5F1F4FBE0123
:101AD000E3CFCF93DF93EC01DB01AB2B81F0FB0174
:101AE00001900020E9F73197AF01461B570BE881C1
:101AF000F9810280F381E02DDF91CF91099480E09C
:101B000090E0DF91CF9108950C94690DDC01ED9187
:101B1000FC910190F081E02D09946F927F928F9259
:101B20009F92AF92BF92CF92DF92EF92FF920F936C
:101B30001F93CF93DF93CDB7DEB7A1970FB6F8947D
:101B4000DEBF0FBECDBF3C01142F052F962E872E72
:101B500019A2223008F42AE05E0181E2A80EB11C2D
:101B6000C22ED12CE12CF12C612F702F892D982DB4
:101B7000A70196010E943911812F902FA92DB82D10
:101B8000122F032F942E852E6A3014F5605DF50117
:101B900062935F018C159D05AE05BF0528F7BF0157
:101BA000C3010E94690DA1960FB6F894DEBF0FBE67
:101BB000CDBFDF91CF911F910F91FF90EF90DF90FC
:101BC000CF90BF90AF909F908F907F906F9008952F
:101BD000695CDDCFCF92DF92EF92FF920F931F935C
:101BE000CF93DF93EC016A017B01C901892B81F45A
:101BF000E881F9810190F081E02D642FCE01DF9121
:101C0000CF911F910F91FF90EF90DF90CF900994AB
:101C10002A303105F1F42AE0F7FE1BC06DE2CE0157
:101C20000E94860D8C0144275527BA014C195D0985
:101C30006E097F092AE0CE010E948D0D800F911F51
:101C4000DF91CF911F910F91FF90EF90DF90CF9098
:101C50000895B701A601CE01DF91CF911F910F9199
:101C6000FF90EF90DF90CF900C948D0D9A01AB0117
:101C7000770F660B770B0C94EA0D2F932FB72F93EA
:101C80008F939F93EF93FF93E0911105F0911205CD
:101C90008081E0911705F091180582FD19C09081AF
:101CA00080911A058F5F8F7320911B05821741F079
:101CB000E0911A05F0E0EF5FFA4F958F80931A05D7
:101CC000FF91EF919F918F912F912FBF2F91189599
:101CD0008081F6CF1F920F920FB60F9211242F938F
:101CE0003F934F935F936F937F938F939F93AF93A4
:101CF000BF93EF93FF9381E095E00E94F90EFF916F
:101D0000EF91BF91AF919F918F917F916F915F9173
:101D10004F913F912F910F900FBE0F901F901895EC
:101D2000E1E0F5E01382128288EE93E0A0E0B0E0FB
:101D300084839583A683B78389E692E09183808329
:101D400085EC90E09587848784EC90E09787868780
:101D500080EC90E0918B808B81EC90E0938B828B78
:101D600082EC90E0958B848B86EC90E0978B868B51
:101D7000118E128E138E148E0895FC01818D228D8A
:101D800090E0805C9F4F821B91098F739927089583
:101D9000FC01918D828D981731F0828DE80FF11D35
:101DA000858D90E008958FEF9FEF0895FC01918D50
:101DB000828D981761F0A28DAE0FBF2FB11D5D9679
:101DC0008C91928D9F5F9F73928F90E008958FEF1B
:101DD0009FEF0895FC01538D448D252F30E0842F13
:101DE00090E0821B930B541710F0CF960895019743
:101DF0000895FC01A48DA80FB92FB11DA35ABF4FA0
:101E00002C91848D90E001968F739927848FA689F9
:101E1000B7892C93A089B1898C91837080648C934D
:101E2000938D848D981306C00288F389E02D8081FC
:101E30008F7D80830895CF93DF93EC01888D81118E
:101E40000FC0DF91CF9108950FB607FC0DC08C91A4
:101E500085FF0AC0808185FF07C0CE010E94F90E70
:101E6000AA89BB89E889F9898C9185FDEDCF8081AC
:101E700086FFEACFE6CFEF92FF920F931F93CF93A7
:101E8000DF93EC01F62E81E0888F9B8D8C8D98136B
:101E90001AC0E889F989808185FF15C09FB7F89439
:101EA000EE89FF896083E889F98980818370806485
:101EB00080839FBF81E090E0DF91CF911F910F91D0
:101EC000FF90EF9008950B8D10E00F5F1F4F0F7381
:101ED0001127E02E8C8D8E1579F0EB8DEC0FFD2FF8
:101EE000F11DE35AFF4FF0829FB7F8940B8FEA89F8
:101EF000FB8980818062DCCF0FB607FCEBCFE889DD
:101F0000F989808185FFE6CFCE010E94F90EE2CFEC
:101F1000CF92DF92EF92FF921F93CF93DF93EC016A
:101F20006A017B01122FE889F98982E08083C1145C
:101F300081EED806E104F104A1F060E079E08DE3E0
:101F400090E0A70196010E94391121503109410901
:101F500051095695479537952795211580E1380702
:101F600098F0E889F989108260E874E88EE190E0E1
:101F7000A70196010E9439112150310941095109E7
:101F80005695479537952795EC85FD853083EE85E9
:101F9000FF852083188EEC89FD891083EA89FB89EF
:101FA000808180618083EA89FB8980818860808369
:101FB000EA89FB89808180688083EA89FB89808146
:101FC0008F7D8083DF91CF911F91FF90EF90DF9005
:101FD000CF9008950F931F93CF93DF939C010297A7
:101FE00010F422E030E0E0917802F091790290E084
:101FF00080E0B0E0A0E0309791F4009709F445C08C
:10200000821B930B84309105B8F58A819B81611501
:10201000710569F1FB0193838283FE0111C0408148
:1020200051810281138142175307F0F04217530781
:1020300099F4109761F012960C93129713961C93D3
:102040003296CF01DF91CF911F910F9108950093A8
:10205000780210937902F4CF009719F048175907C6
:1020600018F4CA01BD01EF01DF01F801C4CF90935C
:10207000790280937802D1CFFE01E80FF91F2193F6
:102080003193029799838883DCCF80917A02909173
:102090007B02892B41F480916A0190916B019093AE
:1020A0007B0280937A028091680190916901009788
:1020B00041F48DB79EB740916C0150916D01841B26
:1020C000950B40917A0250917B024817590708F00E
:1020D000B8CF841B950B8217930708F4B2CFB901D0
:1020E0006E5F7F4F8617970708F4ABCF640F751F9D
:1020F00070937B0260937A02FA0121933193A1CF0E
:10210000CF93DF939C010097E9F0FC013297138293
:102110001282C0917802D0917902DE0190E080E0D5
:102120002097A1F480819181280F391F80917A0234
:1021300090917B028217930709F067C0F0937B02AE
:10214000E0937A02DF91CF910895DA01AE17BF07CD
:1021500008F041C012964D915C911397CD01411545
:10216000510599F7DC011396FC93EE9312974D916C
:102170005D91A40FB51FEA17FB0781F4208131811F
:102180002E5F3F4F240F351FDC0111963C932E9399
:102190002281338113963C932E931297B0E0A0E0F6
:1021A0008A819B810097B1F5FE0181919191E80FA1
:1021B000F91F80917A0290917B028E179F0711F68A
:1021C000109759F51092790210927802D0937B0201
:1021D000C0937A02B7CFB383A28340815181240F89
:1021E000351FA217B30771F44E5F5F4F2D913C91DD
:1021F0001197240F351F3183208312962D913C9126
:1022000033832283009709F0ADCFF0937902E093F6
:10221000780298CFDE01EC01C3CF13961C921E9278
:102220001297D4CFF8940C94AE11DB018F939F9347
:102230000E947A11BF91AF91A29F800D911DA39F23
:10224000900DB29F900D1124089597FB072E16F460
:10225000009407D077FD09D00E94851107FC05D0B6
:102260003EF4909581959F4F0895709561957F4FAD
:102270000895A1E21A2EAA1BBB1BFD010DC0AA1FC7
:10228000BB1FEE1FFF1FA217B307E407F50720F0DF
:10229000A21BB30BE40BF50B661F771F881F991F5A
:1022A0001A9469F760957095809590959B01AC01A3
:1022B000BD01CF010895052E97FB1EF400940E94E6
:1022C000721157FD07D00E94391107FC03D04EF45C
:1022D0000C94721150954095309521953F4F4F4F7A
:1022E0005F4F089590958095709561957F4F8F4FC2
:1022F0009F4F08950E949F11A59F900DB49F900D30
:10230000A49F800D911D11240895AA1BBB1B51E1B0
:1023100007C0AA1FBB1FA617B70710F0A61BB70B55
:10232000881F991F5A95A9F780959095BC01CD01FA
:102330000895EE0FFF1F0590F491E02D0994A29FE0
:10234000B001B39FC001A39F700D811D1124911D89
:10235000B29F700D811D1124911D0895F894FFCF37
:10236000000000000000000000000000000000006D
:10237000000000000000000000000000000000005D
:10238000000000000000000000000000000000004D
:10239000000000000000000000000000000000003D
:1023A000000000000000000000000000000000002D
:1023B000000000000000000000000000000000001D
:1023C000000000000000000000009E052000FF004B
:1023D0000020020000A004FFFFFFFFFFFFFFFF003F
:1023E00000E60100000000D1030000D1030000025C
:1023F000EF010000000014000000140000000200C3
:1024000000000204000000010001000000FFFF00C6
:1024100000010000000000000000000000000000BB
:10242000000300FF000001F10CF10CFF0A0048520C
:10243000203A00207065616B3A00207065616B7313
:102440003A0090018101A9016E08EC01FC0500A988
:10245000016E08F501FC0501A4019F01A004120210
:10246000040220029C029E020001C9090000010230
:1024700001009E03A0030001130A000000010100F7
:10248000A504A7045000260C000002000100C101B1
:1024900001010001001107DF06E806C10661045EC4
:1024A000064E048706600705060D0611085007460C
:1024B0000877077708C007AB080006FA089A07589C
:1024C000099209DA07000000003B0F400DEA0E1BDD
:0824D0000FBD0ED60EC80E0070
:00000001FF
