:100000000C945D000C94D40D0C94FB0D0C948500A5
:100010000C9485000C9485000C9485000C9485004C
:100020000C9485000C9485000C9485000C9485003C
:100030000C9485000C9485000C9485000C9485002C
:100040000C94BA0C0C9485000C9485000C948500DB
:100050000C9485000C9485000C9485000C9485000C
:100060000C9485000C94850000000008000201003B
:100070000003040700000000000000000102040863
:100080001020408001020408102001020408102002
:10009000040404040404040402020202020203032E
:1000A0000303030300000000250028002B000000CC
:1000B0000000240027002A00CE0D11241FBECFEF20
:1000C000D8E0DEBFCDBF12E0A0E0B1E0E6E8FCE1A1
:1000D00002C005900D92A63AB107D9F726E0A6EA2C
:1000E000B2E001C01D92A833B207E1F710E0CDE500
:1000F000D0E004C02197FE010E942C0ECC35D10720
:10010000C9F70E94BF0D0C94220E0C940000E4E18C
:100110000E943C010895E2E10E943C010895EAE05A
:100120000E943C010895E1E00E943C010895E3E053
:100130000E943C010895E7E00E943C010895E5E03B
:100140000E943C010895E0E00E943C010895E2E035
:100150000E943C010895E4E00E943C010895ECE017
:100160000E943C010895EBE10E943C010895EEE0FD
:100170000E943C010895E8E00E943C010895E0E1FE
:100180000E943C010895EAE10E943C010895E6E0E6
:100190000E943C010895E8E10E943C010895E9E0D5
:1001A0000E943C010895EBE00E943C010895EDE0BF
:1001B0000E943C010895EFE00E943C010895E1E1B6
:1001C0000E943C010895E3E10E943C010895E5E1AD
:1001D0000E943C010895E7E10E943C010895E9E195
:1001E0000E943C010895E6E10E943C010895219699
:1001F0008A929A92AA92BA92CA92DA92EA92FA925F
:100200000A931A932197E0916C01F0916D0100809F
:10021000F181E02DC083D1830895C0916E01D0910A
:100220006F01E881F981C081D181219619910991ED
:10023000F990E990D990C990B990A9909990899036
:10024000219708952F903F90E7E6F1E0CDB7DEB714
:10025000EDBFFEBF3F922F9208952F903F90CDBFEC
:10026000DEBF3F922F920895E0E80E943C0108957E
:10027000E0E40E943C0108952F923F924F925F92DA
:100280006F927F922FB62F92CF93DF937E2EF894AA
:10029000E0910001EF5FE0930001E13011F40E9472
:1002A0002201E0E0E0937C01E72DE07849F00E9434
:1002B0007405F0917D01F17071F00E942A040BC069
:1002C000E72DEC3140F4EE0FF0E0E259FD4F0190E4
:1002D000F081E02D0995F0917C01EF2FE17059F04C
:1002E000F27011F00E94F7008F938F2F0E94760317
:1002F0008F910E940D012091000121502093000157
:10030000222311F40E942D01DF91CF912F902FBE57
:100310007F906F905F904F903F902F900895FC01D9
:100320004081FB013081842F8F7090E0A0E0B0E02D
:10033000B695A7959795879588549D4FFC01208188
:10034000F42FF21B2F2F21704E70242B832F8F70D0
:1003500090E0A0E0B0E0B695A79597958795885472
:100360009D4FFC019081F32FF91B9F2F91703E70E0
:10037000932B41E050E0291710F040E050E0CA0113
:1003800008958F929F92AF92BF92EF92FF920F9338
:100390001F93CF93DF938C01CA01DB014C015D01F8
:1003A000B694A7949794879482309105A105B105DE
:1003B00080F0880F991FE801C80FD91F7401EE0C57
:1003C000FF1CE00EF11EBE01C7010E948F01892BA8
:1003D00059F4DF91CF911F910F91FF90EF90BF9053
:1003E000AF909F908F90089598818981F701208127
:1003F00031813983288390838183D501C401D0CF93
:100400004F925F926F927F928F929F92AF92BF9224
:10041000CF92DF92EF92FF920F931F93CF93DF93D0
:1004200000D000D000D0CDB7DEB78D839E836A01A7
:100430007B01AD81BE814C90842D90E0A0E0B0E0C6
:1004400089839A83AB83BC8346015701880C991C2E
:10045000AA1CBB1C89819A81AB81BC818815990536
:10046000AA05BB05B8F40F900F900F900F900F9056
:100470000F90DF91CF911F910F91FF90EF90DF9040
:10048000CF90BF90AF909F908F907F906F905F9034
:100490004F900895240135019FEF491A590A690ABE
:1004A000790A89819A81AB81BC8184159505A6055D
:1004B000B70590F0B201660F771FAD81BE816A0F5C
:1004C0007B1FC401880F991F8A0F9B1F0E948F01F9
:1004D000892B11F0530142018401000F111FED819E
:1004E000FE810E0F1F1FCC0CDD1CCE0EDF1EB801CF
:1004F000C6010E948F01892B09F4B5CFD6019C91CA
:1005000011968C911197F801208131812D933C93A4
:10051000908381837501640197CFEEEBF2E0408117
:100520004F5F408350E060E070E0E82FEE0FFF0B7C
:10053000EF5DFD4F0190F081E02D238530E0F90162
:10054000E854FD4F908191509083FA01EE0FFF1F08
:10055000E254FD4F9170220F331F292B208381839A
:100560008EEB92E00C94C101EEEBF2E040814F5F24
:10057000408350E060E070E0FA01EE0FFF1FE254AC
:10058000FD4FA82FAA0FBB0BA75EBD4F0D90BC91CE
:10059000A02D13969C91908381838EEB92E00C9416
:1005A000C1010F931F93CF93DF93CEEBD2E08881ED
:1005B0009FEF980F98830A811B8190E0880F991F05
:1005C000FC01E254FD4F808191819B838A8341E04D
:1005D00050E060E070E0CE010E940002C801DF91AF
:1005E000CF911F910F9108958091740190917501A1
:1005F000A0917601B09177018F3F2FEF9207A2076C
:10060000B20731F00397A105B10524F082E0089507
:1006100080E0089581E00895CF93DF93880F990BD0
:10062000FC01EF5DFD4F0190F081E02D0084F1852C
:10063000E02D3097E1F02281211119C021E02283C1
:10064000875E9D4FEC01A881B98113968C91139719
:100650008183808190E0FC01E854FD4F208121508E
:1006600020832170880F991F822B13968C93DF9122
:10067000CF910895CF93DF93880F990BFC01EF5D25
:10068000FD4F0190F081E02D0084F185E02D309741
:1006900061F02281213049F41282875E9D4FEC0186
:1006A000A881B981818113968C93DF91CF910895B0
:1006B0008091780190917901A0917A01B0917B01AC
:1006C00040917401509175016091760170917701AC
:1006D000481759076A077B0741F0E0917201F091D2
:1006E000730121E024830C94B4020895CF93DF9327
:1006F000D0E0C0E0882389F0D0916C01C0916D01F9
:10070000E0917001F09171018481833031F081E0DA
:100710008483809174010E94B402E0917201F0918F
:100720007301F0937101E093700180916E019091DB
:100730006F0190936D0180936C01809178013091ED
:10074000790120917A0190917B018093740130931B
:100750007501209376019093770192E094830E9433
:100760000C038D2F9C2FDF91CF9108958091740100
:100770000E943A03E0917001F09171018281811130
:1007800085E084830895CF93DF93282F220F330BC6
:10079000F901E75EFD4FC081D1819A812F5D3D4F08
:1007A000D901ED91FC912485921780F4911105C037
:1007B00095E09C8391E090937D010E948D028A8157
:1007C0008F5F8A8380E0DF91CF91089584E0FBCF33
:1007D000E82FEE0FFF0BE75EFD4F0190F081E02D5B
:1007E000118210820C946E0D1F93CF93DF930E94A1
:1007F000D102182F892F492F092E000C550B660B9B
:10080000770B409378015093790160937A0170934C
:100810007B01292F220F330BF901E75EFD4FC081C9
:10082000D181D0937301C09372012F5D3D4FF901C7
:100830002081318130936F0120936E019C8195302E
:1008400019F40E94E8031B8310927D01DF91CF9180
:100850001F910895E0917801F0917901EE0FFF1F4B
:10086000E75EFD4F0190F081E02D9091C002838101
:10087000891740F40E9458030E94F40383E0809398
:100880007C01089580E0FBCF81E080937C010C9493
:10089000F403EF92FF920F931F93CF93DF93C1E086
:1008A00001C0CC0F8A95EAF783E00E94C3030AE6F1
:1008B00012E0D0E0F80181918F018C23882319F098
:1008C0008D2F0E94C303DF5FD330A1F707E612E04C
:1008D00088EFE82E81E0F82ED1E0F80181918F01B8
:1008E0008C23882339F0F70180819181FC01D68720
:1008F0000E94B204F2E0EF0EF11C82E00A36180703
:1009000061F7DF91CF911F910F91FF90EF900895C4
:100910000E94660781110E948607E0917001F091A4
:10092000710180819181892B21F0809174010E9455
:100930003E090C94AB080E94660781110E9486074D
:10094000E0917001F091710180819181892B21F0FA
:10095000809174010E943E090C94960881E0809376
:10096000A6020895CF92DF92EF92FF920F931F930A
:10097000CF93DF93FC01A081B1810D90BC91A02D9C
:1009800054968D919C915597009709F445C04285E6
:1009900053856485758520E030E0EC01CA84DB84F2
:1009A000EC84FD844C155D056E057F0508F049C09B
:1009B0008C0113830283358324830115110519F0FB
:1009C000E801FD83EC832115310509F444C0E901F8
:1009D000FB83EA835696CD91DC9157970A851B8558
:1009E0002C853D855096CD90DD90ED90FC905397F1
:1009F0000C151D052E053F0598F5C416D506E6060F
:100A0000F70628F0401751076207730788F45796D6
:100A1000FC93EE9356970CC05596FC93EE93549727
:100A20005796FC93EE935697158214821382128286
:100A3000DF91CF911F910F91FF90EF90DF90CF90BA
:100A40000895EC010A811B819C010115110509F42F
:100A5000B0CFC801A2CF5596FC93EE935497BACF6E
:100A6000C416D506E606F70618F7CCCFCF93DF936A
:100A7000FC01A081B1810D90BC91A02DC281D381D8
:100A800054968D919C9155978E179F0721F45596FA
:100A9000DC93CE93549756968D919C9157978E17D1
:100AA0009F0721F45796DC93CE935697209721F019
:100AB000848195819D838C830480F581E02D30971E
:100AC00011F0D383C28356968D919C915797892BB1
:100AD00041F454968D919C91559757969C938E9383
:100AE0005697DF91CF910895EF92FF920F931F9346
:100AF000CF93DF93EC018091A602882309F4ADC067
:100B00008C859D85AE85BF850196A11DB11D8C8705
:100B10009D87AE87BF87488159816A817B81841711
:100B20009507A607B70709F098C088899989AA8907
:100B3000BB890196A11DB11D4C815D816E817F81B4
:100B4000481759076A077B0718F480E090E0DC013A
:100B5000888B998BAA8BBB8B1C861D861E861F8655
:100B60000E891F890115110509F477C0F801428526
:100B7000538564857585481759076A077B0709F00F
:100B80006CC09F010280F381E02D309749F04285CF
:100B900053856485758584179507A607B70789F37C
:100BA000D80114964D915C914115510529F0DA0157
:100BB0001396FC93EE9312978C899D89309741F49C
:100BC0000817190711F41D8A1C8AEC89FD8907C0D2
:100BD000558344830817190711F4FD8BEC8BFF8BA9
:100BE000EE8BF901138212827801D80112960D91D1
:100BF0001C911397ED91FC910280F381E02DC701C8
:100C00000995F70186819781A085B1850097A10597
:100C1000B10551F14285538564857585840F951F13
:100C2000A61FB71F4C815D816E817F8148175907D0
:100C30006A077B0738F4841B950BA60BB70B01974B
:100C4000A109B109F70182879387A487B587C701F6
:100C50000E94B2040115110539F6DF91CF911F9161
:100C60000F91FF90EF9008951686F4CFFC018281DA
:100C70000C94C303EF92FF920F931F93CF93DF93D4
:100C80007C018B01FB01C285D385CB010A960E94B2
:100C90003B079C018DE021153105D9F0F8019585C0
:100CA000D701822F232F980F392F381B1316C4F02A
:100CB000F80185859881981B98839981890F89838C
:100CC0009485891708F019828A81882311F01A8285
:100CD0008CE0DF91CF911F910F91FF90EF900895DD
:100CE000E82FF22F81918D938E2F2F2FDDCF382F6C
:100CF000292FCA01009749F0DA01ED91FC91309754
:100D000021F0AB01632F722F099481E0089581E0F7
:100D10000895FF920F931F93CF93DF93062FF72E23
:100D2000DC011296CD91DC91209711F1EC81FD81CF
:100D3000602F7F2DCE010995182F81110DC088815C
:100D40009981009721F40A80DB81C02DEDCFDC0171
:100D5000ED91FC910995F7CF8E30A9F380E00E94C8
:100D6000FD06812FDF91CF911F910F91FF90089584
:100D700010E0F4CFCF92DF92EF92FF920F931F9388
:100D8000CF93DF93EC017B010A851B85C888D98846
:100D900048855985C6010E947706882361F1CE01F6
:100DA0000A960E9403079C01892B09F18D85082E64
:100DB000000C990BD701B601181619067CF0F80142
:100DC00080819D85890F808380E0DF91CF911F9185
:100DD0000F91FF90EF90DF90CF9008954D91FB0120
:100DE0004193BF01F90141939F010197E5CF81E054
:100DF000F8018283E9CF8EE0E8CF80917D018111F7
:100E00000C942A040895CF92DF92EF92FF92CF9331
:100E1000DF93FC01C081D181288130E04281A42F81
:100E2000B0E0BD01621B730B8381082E000C990B8F
:100E300068177907ECF0598184819581250F311D60
:100E400050E060E070E06901032E000CEE08FF083E
:100E5000C416D506E606F70610F02A1B3B0B820FD8
:100E6000931FDF91CF91FF90EF90DF90CF90089587
:100E700080E090E0F6CFFC01A081B1818C918823C5
:100E800039F011962C9184819581820F911D0895DE
:100E900080E090E008950E94660780916B010895BC
:100EA00080936B010E9449040E94AE040C94440498
:100EB0000C946D0DCF93C82F0E94F402811102C0D3
:100EC0000E94B50D8C2FCF910C948B002091B30212
:100ED0002130D1F04091AB025091AC026091AD0253
:100EE0007091AE028091AF029091B002A091B102D8
:100EF000B091B202842B952BA62BB72B21E0892B26
:100F00008A2B8B2B09F420E0822F08951092B302D4
:100F10001092AF021092B0021092B1021092B2027F
:100F20001092AB021092AC021092AD021092AE027F
:100F30008091A7029091A802A091A902B091AA0263
:100F40008093B4029093B502A093B602B093B70217
:100F500008950E94B80D8091B4029091B502A091BD
:100F6000B602B091B7020196A11DB11D8093B402E3
:100F70009093B502A093B602B093B7028091AF02EE
:100F80009091B002A091B102B091B2020196A11D60
:100F9000B11D8093AF029093B002A093B102B093C1
:100FA000B20208958091AF029091B002A091B10277
:100FB000B091B2020097A105B10569F14091B40268
:100FC0005091B5026091B6027091B702415051093B
:100FD000610971094093B4025093B5026093B6025F
:100FE0007093B7020197A109B1098093AF02909362
:100FF000B002A093B102B093B2028091B40290917A
:10100000B502A091B602B091B702892B8A2B8B2B27
:1010100011F40C94B60D08958091AF029091B00236
:10102000A091B102B091B2024091AB025091AC02DA
:101030006091AD027091AE02842B952BA62BB72B3D
:10104000892B8A2B8B2B29F40E94B80D81E0809389
:10105000B30208958091B302882321F01092B30265
:101060000C94B60D08950E94BC0D8091B40290912D
:10107000B502A091B602B091B7020196A11DB11DB3
:101080008093B4029093B502A093B602B093B702D6
:101090008091AB029091AC02A091AD02B091AE02F2
:1010A0000196A11DB11D8093AB029093AC02A09359
:1010B000AD02B093AE0208958091AB029091AC0264
:1010C000A091AD02B091AE020097A105B10569F102
:1010D0004091B4025091B5026091B6027091B7028E
:1010E00041505109610971094093B4025093B5020E
:1010F0006093B6027093B7020197A109B10980937A
:10110000AB029093AC02A093AD02B093AE0280917B
:10111000B4029091B502A091B602B091B702892BAA
:101120008A2B8B2B11F40C94BA0D08950E9466073C
:10113000811183E10895CF93C82F0E9466078C2FF9
:101140000E94C303C82F80917D0181110E942A044F
:101150008C2FCF910895CF930E946607C82F8111DD
:10116000C3E1E0917001F09171018281815082832D
:101170000E94B60381E080937C010E94F4038C2FCF
:10118000CF910895CF93C82F0E946607E091700118
:10119000F09171018281815082838C2F0E94C30360
:1011A000C82F81110AC00E94B60381E080937C01A0
:1011B0000E94F4038C2FCF910895E0917001F0917B
:1011C000710182818F5F8283F5CFCF930E94660782
:1011D000C82F8111C3E1809174010E943A030E94DB
:1011E0002A048091740190917501A0917601B091CB
:1011F0007701409178015091790160917A01709165
:101200007B0184179507A607B70711F40E940C030A
:101210008C2FCF910895CF93DF93EC010E94660746
:10122000811183E1409174015091750160917601C3
:1012300070917701433051056105710514F04091BB
:10124000DD014883DF91CF9108950F931F93CF93D2
:10125000C82F8B010E946607811183E1EC2FEE0FEE
:10126000FF0BE75EFD4F0190F081E02D94819370BC
:10127000F8019083CF911F910F910895E82FEE0F01
:10128000FF0BE75EFD4FA081B181ED91FC911197BD
:10129000309789F01D921C928091DD01DF0103805F
:1012A000F481E02D12968C93129714961C921E9244
:1012B0001397309799F70895CF93C82F0E94660728
:1012C000811183E1EC2FF0E0EE0FFF1FEF59FD4F8E
:1012D0000190F081E02D909174019283A0917001B2
:1012E000B09171012D913C91119734832383119614
:1012F000FC93EE9313969C9113979183208196957E
:10130000921768F430E0F901E854FD4F9081915054
:1013100090839170220F331F292B13962C93CF911A
:101320000895CF93DF93C82F0E946607D82F8111AD
:10133000D3E1EC2FF0E0EE0FFF1FEF59FD4F0190CE
:10134000F081E02DA0917001B0917101818113961F
:101350008C931397838194818D939C931482138231
:101360008091DD0182830E942A048D2FDF91CF912D
:101370000895DC01ED91FC9184819581DC01ED9172
:10138000FC9109941F93CF93DF93182FEB010E94D8
:101390006607811183E1E12FF0E0EE0FFF1FE850B7
:1013A000FE4F0190F081E02D0190F081E02D019041
:1013B000F081E02D40815181628173814C835D8396
:1013C0006E837F8344815581668177814883598309
:1013D0006A837B83408551856285738548875987F9
:1013E0006A877B87DF91CF911F9108958F929F929B
:1013F000AF92BF92CF92DF92EF92FF920F931F9323
:10140000CF93C82F8B010E946607811183E1EC2FD7
:10141000F0E0EE0FFF1FE850FE4F0190F081E02D4D
:101420009685913081F54285538564857585019057
:10143000F081E02D0190F081E02DC088D188E28814
:10144000F3884C155D056E057F0540F4848095801A
:10145000A680B780480D591D6A1D7B1D4C195D097A
:101460006E097F09F8014083518362837383CF91B2
:101470001F910F91FF90EF90DF90CF90BF90AF90B2
:101480009F908F90089585E0F2CFAF92BF92CF9258
:10149000DF92EF92FF920F931F93CF93DF93A82ECB
:1014A0006A017B01B22ED32F0E946607C82F8111DB
:1014B000C3E1EA2DF0E0EE0FFF1FE850FE4F019070
:1014C000F081E02D868581113CC0A081B1810D9015
:1014D000BC91A02D50964D915D916D917C9153974B
:1014E000C40ED51EE61EF71E14968D919D910D908B
:1014F000BC91A02D8C159D05AE05BF0548F4C81AFA
:10150000D90AEA0AFB0A81E0C81AD108E108F10801
:10151000C286D386E486F58606831783B086D18794
:1015200081E08687CF010E94B2048C2FDF91CF919A
:101530001F910F91FF90EF90DF90CF90BF90AF90F1
:101540000895C7E0F2CFAF92BF92CF92DF92EF92B1
:10155000FF920F931F93CF93DF93C82F5A016B0114
:1015600079010E946607D82F8111D3E1EC2FF0E0BA
:10157000EE0FFF1FE850FE4F0190F081E02D8685B1
:10158000811119C0A286B386C486D58606831783C7
:10159000E086F18681E08687CF010E94B2048D2F1C
:1015A000DF91CF911F910F91FF90EF90DF90CF903F
:1015B000BF90AF900895D7E0F2CF0F931F93CF93D2
:1015C000DF93C82F0E946607D82F8111D3E1EC2F3B
:1015D000F0E0EE0FFF1FE850FE4F00811181F8018F
:1015E0008685813059F4C8010E943605F8011686B7
:1015F0008D2FDF91CF911F910F910895D5E0F8CFF6
:10160000CF93DF93FC01EE0FFF1FEC51FE4F0190D3
:10161000F081E02D8585882369F0C285D385CF01CF
:101620000A960E943B07892B49F08A81882319F08A
:101630008CE001C08AE0DF91CF9108958DE0FBCF6F
:10164000880F991FFC01E252FE4F80819181DC01DD
:10165000ED91FC9109949B01FC01EE0FFF1FEC51F1
:10166000FE4F60817181DB011696ED91FC91C901FD
:101670000994FC01EE0FFF1FE252FE4F8081918121
:10168000DC01ED91FC9160E070E0099580E0089547
:10169000FB01882359F010828091630290916402CB
:1016A0000E94E70060E087E00C948B0C08950F9394
:1016B0001F93CF93DF93EB010091650210916602B7
:1016C000811109C0DF91CF911F910F910895BE0143
:1016D000C8010E94EB0088818111F9CF81E08883E5
:1016E00061E087E0DF91CF911F910F910C948B0CFB
:1016F00060E081E00E948B0C60E082E00E948B0C35
:1017000060E083E00C948B0CAF92BF92CF92DF929B
:10171000EF92FF920F931F93CF93DF9300D000D0EF
:101720000F92CDB7DEB7062F142F26EC30E0DC0188
:101730000E94250E6A837B838C839D8381E089834D
:10174000CE0101965C01BC01842F0E94570BC12C75
:10175000D12C76018A819B81AC81BD81C816D906C6
:10176000EA06FB06D1F40E94120D60E0802F0E9471
:101770008B0CB501812F0E94480B0F900F900F909A
:101780000F900F90DF91CF911F910F91FF90EF90ED
:10179000DF90CF90BF90AF90089561E0802F0E94BE
:1017A0008B0C9FEFC91AD90AE90AF90AD3CFCF9354
:1017B000DF930F92CDB7DEB7198261E081E00E941E
:1017C000510C61E082E00E94510C61E083E00E94D4
:1017D000510C61E087E00E94510CBE016F5F7F4FAA
:1017E00080916302909164020E94E7000F90DF9164
:1017F000CF9108950E94780B41E061E070E088ECA1
:1018000090E00E94840B0C94B3000E94780B40E09F
:1018100062E070E08CEB92E00E94840B0C94B300C9
:101820000E94780B40E063E070E084E690E00E9464
:10183000840B41E063E070E088EC90E00E94840B50
:101840000C94B3008CEB91E00C9434010895843037
:1018500099F038F48230C1F0833041F0813081F06A
:1018600008958730A1F08830C1F0089580918000FC
:101870008F77809380000895809180008F7DF9CFCD
:1018800084B58F7784BD089584B58F7DFBCF80911B
:10189000B0008F778093B00008958091B0008F7D65
:1018A000F9CFCF93DF9390E0FC01E458FF4F2491F0
:1018B00080579F4FFC0184918823C9F090E0880FE6
:1018C000991FFC01E255FF4FA591B491FC01EC5525
:1018D000FF4FC591D4919FB761110CC0F8948C91C2
:1018E000209582238C938881282328839FBFDF91B2
:1018F000CF910895623051F4F8943C91822F8095F5
:1019000083238C938881822B8883F0CFF8948C91E9
:10191000822B8C93EBCF1F93CF93DF93162F282F1F
:1019200030E0F901E859FF4F8491F901E458FF4F85
:10193000D491F901E057FF4FC491CC23A1F081115C
:101940000E94270CEC2FF0E0EE0FFF1FEC55FF4F2D
:10195000A591B4919FB7F8948C91111108C0D095BE
:10196000D823DC939FBFDF91CF911F9108958D2BDA
:101970008C93F8CF1F920F920FB60F9211242F93D2
:101980003F934F935F936F937F938F939F93AF9307
:10199000BF93EF93FF9380912F0690913006A09113
:1019A0003106B091320630912E0623E0230F2D37F9
:1019B00098F50196A11DB11D20932E0680932F0648
:1019C00090933006A0933106B0933206809133068F
:1019D00090913406A0913506B09136060196A11D6E
:1019E000B11D8093330690933406A0933506B093CF
:1019F00036060E94220CFF91EF91BF91AF919F910B
:101A00008F917F916F915F914F913F912F910F90A7
:101A10000FBE0F901F90189526E8230F0296A11D68
:101A2000B11DCACFCF93DF9300D000D0CDB7DEB7C2
:101A30008FB7F89420912F063091300640913106EF
:101A40005091320629833A834B835C838FBF69812F
:101A50007A818B819C810F900F900F900F90DF9176
:101A6000CF91089584B5826084BD84B5816084BDC2
:101A700085B5826085BD85B5816085BDEEE6F0E007
:101A8000808181608083E1E8F0E010828081826063
:101A90008083808181608083E0E8F0E080818160E4
:101AA0008083E1EBF0E0808184608083E0EBF0E014
:101AB000808181608083EAE7F0E0808184608083B8
:101AC0008081826080838081816080838081806862
:101AD00080831092C1000895FFCFFFCFCF93DF9393
:101AE000E82FEE0FFF0BEF5DFD4FA081B181149643
:101AF0008D919C91159701971296ED91FC911397FA
:101B0000E80FF91F1D968C911D972BEA30E082306B
:101B100011F027EC30E02083EF01219738831696EF
:101B20009C91169717968C911797219798832197D8
:101B300088839F012950310986E0E90119928A952D
:101B4000E9F7EF012A9780E888832D5031098CE06E
:101B5000E90119928A95E9F70D90BC91A02D77972C
:101B6000ED93FC93DF91CF910895089578940895B3
:101B7000F894089578940895F894089508950E942B
:101B8000320D0E94BE0D0E94260C0E94D70B809140
:101B900037060E945A0780E090E0089580916D0218
:101BA00080933706089508951F920F920FB60F92F3
:101BB00011242F933F934F935F936F937F938F9352
:101BC0009F93AF93BF93EF93FF93E091D901F0916F
:101BD000DA010995FF91EF91BF91AF919F918F919C
:101BE0007F916F915F914F913F912F910F900FBE19
:101BF0000F901F9018951F920F920FB60F921124FD
:101C00002F933F934F935F936F937F938F939F9304
:101C1000AF93BF93EF93FF93E091DB01F091DC0171
:101C20000995FF91EF91BF91AF919F918F917F9116
:101C30006F915F914F913F912F910F900FBE0F9039
:101C40001F901895F8940C94410E0E94320EB7FF25
:101C50000895821B930B0895EE0FFF1F0590F491DA
:101C6000E02D0994A29FB001B39FC001A39F700D06
:101C7000811D1124911DB29F700D811D1124911D94
:061C80000895F894FFCF67
:101C8600000000000000000000000000000000004E
:101C9600000000000000000000000000000000003E
:101CA600000000000000000000000000000000002E
:101CB600000000000000000000000000000000001E
:101CC600000000000000000000000000000000000E
:101CD60000000000000000000000000000000000FE
:101CE6000000000000000000040000FF0000530296
:101CF6000000D705FFFFFFFFFFFFFFFF000087067D
:101D0600FE0100000000AE0A0000AE0A0000020755
:101D16000200000000B9050000B90500000210022B
:101D260000000000D1030000D10300000200000003
:101D3600030400000002040000000104010000008A
:101D4600FFFF00000100000000000000000000008E
:101D5600000000000400FF0000D30DD30DFFE001DA
:101D66008906E601E60100000000BA063A067E0191
:101D7600CA020301CE02CD029E018F018001BC0181
:101D8600B9090402360600BC01B9090D023606017E
:101D9600BC01B9091602360602B701B201AD01D778
:101DA600054502370229025302D102D3020001FA85
:101DB6000B680102030100D303D5030001050C687B
:101DC6000101020100D504D7040001100C680100CE
:101DD600010100DC05DE0550006C0D00000300016A
:101DE60000D40100000000010101010101005C08AE
:101DF6002A0833080C089B04A9078804D207E508BB
:101E060091095807C2099B08F609C208450A0B0939
:101E1600A30A5007DD0A4B07200B000B2B0B5C09AE
:061E2600390B2509AB0891
:00000001FF
