:100000000C945D000C946B0D0C94920D0C94850077
:100010000C9485000C9485000C9485000C9485004C
:100020000C9485000C9485000C9485000C9485003C
:100030000C9485000C9485000C9485000C9485002C
:100040000C94F20B0C9485000C9485000C948500A4
:100050000C9485000C9485000C9485000C9485000C
:100060000C9485000C94850000000008000201003B
:100070000003040700000000000000000102040863
:100080001020408001020408102001020408102002
:10009000040404040404040402020202020203032E
:1000A0000303030300000000250028002B000000CC
:1000B0000000240027002A00010D11241FBECFEFED
:1000C000D8E0DEBFCDBF12E0A0E0B1E0EEEAFEE195
:1000D00002C005900D92A637B107D9F725E0A6E733
:1000E000B2E001C01D92A530B207E1F710E0CDE506
:1000F000D0E004C02197FE010E94400FCC35D1070B
:10010000C9F70E94F20C0C94E10E0C940000E4E19B
:100110000E943C010895E2E10E943C010895EAE05A
:100120000E943C010895E1E00E943C010895E3E053
:100130000E943C010895E7E00E943C010895E5E03B
:100140000E943C010895E0E00E943C010895E2E035
:100150000E943C010895E4E00E943C010895ECE017
:100160000E943C010895EBE10E943C010895EEE0FD
:100170000E943C010895E8E00E943C010895E0E1FE
:100180000E943C010895EAE10E943C010895E6E0E6
:100190000E943C010895E8E10E943C010895E9E0D5
:1001A0000E943C010895EBE00E943C010895EDE0BF
:1001B0000E943C010895EFE00E943C010895E1E1B6
:1001C0000E943C010895E3E10E943C010895E5E1AD
:1001D0000E943C010895E7E10E943C010895E9E195
:1001E0000E943C010895E6E10E943C010895219699
:1001F0008A929A92AA92BA92CA92DA92EA92FA925F
:100200000A931A932197E0916F01F0917001008099
:10021000F181E02DC083D1830895C0917101D09107
:100220007201E881F981C081D181219619910991EA
:10023000F990E990D990C990B990A9909990899036
:10024000219708952F903F90E7E6F1E0CDB7DEB714
:10025000EDBFFEBF3F922F9208952F903F90CDBFEC
:10026000DEBF3F922F920895E0E80E943C0108957E
:10027000E0E40E943C0108952F923F924F925F92DA
:100280006F927F922FB62F92CF93DF937E2EF894AA
:10029000E0910001EF5FE0930001E13011F40E9472
:1002A0002201E0E0E0937F01E72DE07849F00E9431
:1002B0007105F0918001F17071F00E942A040BC069
:1002C000E72DEC3140F4EE0FF0E0E35CFD4F0190E0
:1002D000F081E02D0995F0917F01EF2FE17059F049
:1002E000F27011F00E94F7008F938F2F0E94760317
:1002F0008F910E940D012091000121502093000157
:10030000222311F40E942D01DF91CF912F902FBE57
:100310007F906F905F904F903F902F900895FC01D9
:100320004081FB013081842F877090E0A0E0B0E035
:10033000B695A795979587958E569D4FFC01208180
:10034000F42FF21B2F2F21704670242B832F8770E0
:1003500090E0A0E0B0E0B695A795979587958E566A
:100360009D4FFC019081F32FF91B9F2F91703670E8
:10037000932B41E050E0291710F040E050E0CA0113
:1003800008958F929F92AF92BF92EF92FF920F9338
:100390001F93CF93DF938C01CA01DB014C015D01F8
:1003A000B694A7949794879482309105A105B105DE
:1003B00080F0880F991FE801C80FD91F7401EE0C57
:1003C000FF1CE00EF11EBE01C7010E948F01892BA8
:1003D00059F4DF91CF911F910F91FF90EF90BF9053
:1003E000AF909F908F90089598818981F701208127
:1003F00031813983288390838183D501C401D0CF93
:100400004F925F926F927F928F929F92AF92BF9224
:10041000CF92DF92EF92FF920F931F93CF93DF93D0
:1004200000D000D000D0CDB7DEB78D839E836A01A7
:100430007B01AD81BE814C90842D90E0A0E0B0E0C6
:1004400089839A83AB83BC8346015701880C991C2E
:10045000AA1CBB1C89819A81AB81BC818815990536
:10046000AA05BB05B8F40F900F900F900F900F9056
:100470000F90DF91CF911F910F91FF90EF90DF9040
:10048000CF90BF90AF909F908F907F906F905F9034
:100490004F900895240135019FEF491A590A690ABE
:1004A000790A89819A81AB81BC8184159505A6055D
:1004B000B70590F0B201660F771FAD81BE816A0F5C
:1004C0007B1FC401880F991F8A0F9B1F0E948F01F9
:1004D000892B11F0530142018401000F111FED819E
:1004E000FE810E0F1F1FCC0CDD1CCE0EDF1EB801CF
:1004F000C6010E948F01892B09F4B5CFD6019C91CA
:1005000011968C911197F801208131812D933C93A4
:10051000908381837501640197CFE6E9F2E0408121
:100520004F5F408350E060E070E0E82FEE0FFF0B7C
:10053000EE5FFD4F0190F081E02D238530E0F90161
:10054000EE56FD4F908191509083FA01EE0FFF1F00
:10055000EA56FD4F9170220F331F292B2083818390
:1005600086E992E00C94C101E6E9F2E040814F5F38
:10057000408350E060E070E0FA01EE0FFF1FEA56A2
:10058000FD4FA82FAA0FBB0BA450BE4F0D90BC91DE
:10059000A02D13969C919083818386E992E00C9420
:1005A000C1010F931F93CF93DF93C6E9D2E08881F7
:1005B0009FEF980F98830A811B8190E0880F991F05
:1005C000FC01EA56FD4F808191819B838A8341E043
:1005D00050E060E070E0CE010E940002C801DF91AF
:1005E000CF911F910F91089580917701909178019B
:1005F000A0917901B0917A018F3F2FEF9207A20766
:10060000B20731F00297A105B10524F082E0089508
:1006100080E0089581E00895CF93DF93880F990BD0
:10062000FC01EE5FFD4F0190F081E02D0084F1852B
:10063000E02D3097E1F02281211119C021E02283C1
:1006400084509E4FEC01A881B98113968C91139729
:100650008183808190E0FC01EE56FD4F2081215086
:1006600020832170880F991F822B13968C93DF9122
:10067000CF910895CF93DF93880F990BFC01EE5F24
:10068000FD4F0190F081E02D0084F185E02D309741
:1006900061F02281213049F4128284509E4FEC0196
:1006A000A881B981818113968C93DF91CF910895B0
:1006B00080917B0190917C01A0917D01B0917E01A0
:1006C00040917701509178016091790170917A01A0
:1006D000481759076A077B0741F0E0917501F091CF
:1006E000760121E024830C94B4020895CF93DF9324
:1006F000D0E0C0E0882389F0D0916F01C0917001F3
:10070000E0917301F09174018481833031F081E0D4
:100710008483809177010E94B402E0917501F09189
:100720007601F0937401E0937301809171019091CF
:1007300072019093700180936F0180917B013091E1
:100740007C0120917D0190917E018093770130930F
:1007500078012093790190937A0192E094830E942A
:100760000C038D2F9C2FDF91CF91089580917701FD
:100770000E943A03E0917301F0917401828181112A
:1007800085E084830895CF93DF93282F220F330BC6
:10079000F901E450FE4FC081D1819A812E5F3D4F17
:1007A000D901ED91FC912485921780F4911105C037
:1007B00095E09C8391E0909380010E948D028A8154
:1007C0008F5F8A8380E0DF91CF91089584E0FBCF33
:1007D000E82FEE0FFF0BE450FE4F0190F081E02D6B
:1007E000118210820C94A10C1F93CF93DF930E946F
:1007F000D102182F892F492F092E000C550B660B9B
:10080000770B40937B0150937C0160937D01709343
:100810007E01292F220F330BF901E450FE4FC081D6
:10082000D181D0937601C09375012E5F3D4FF901C0
:100830002081318130937201209371019C81953028
:1008400019F40E94E8031B8310928001DF91CF917D
:100850001F910895E0917B01F0917C01EE0FFF1F45
:10086000E450FE4F0190F081E02D90919802838139
:10087000891740F40E9458030E94F40383E0809398
:100880007F01089580E0FBCF81E080937F010C948D
:10089000F403CF93DF93C1E0D0E001C0CC0F8A9581
:1008A000EAF782E00E94C30380913A028C238823F6
:1008B00019F080E00E94C30380913B028C238823BF
:1008C00019F081E00E94C303809138028C238823B1
:1008D00049F08091E6019091E70121E0FC01268733
:1008E0000E94AF04809139028C23882359F08091B3
:1008F000E8019091E90121E0FC012687DF91CF9189
:100900000C94AF04DF91CF9108950E94EB06811102
:100910000E940B07E0917301F09174018081918135
:10092000892B21F0809177010E94C3080C94300834
:100930000E94EB0681110E940B07E0917301F09178
:10094000740180819181892B21F0809177010E942F
:10095000C3080C941B0881E080937A020895CF921B
:10096000DF92EF92FF920F931F93CF93DF93FC01DF
:10097000A081B1810D90BC91A02D54968D919C9138
:100980005597009709F445C0428553856485758560
:1009900020E030E0EC01CA84DB84EC84FD844C155B
:1009A0005D056E057F0508F049C08C011383028345
:1009B000358324830115110519F0E801FD83EC83CB
:1009C0002115310509F444C0E901FB83EA835696F9
:1009D000CD91DC9157970A851B852C853D855096D6
:1009E000CD90DD90ED90FC9053970C151D052E05D4
:1009F0003F0598F5C416D506E606F70628F0401719
:100A000051076207730788F45796FC93EE93569745
:100A10000CC05596FC93EE9354975796FC93EE9327
:100A200056971582148213821282DF91CF911F9103
:100A30000F91FF90EF90DF90CF900895EC010A8125
:100A40001B819C010115110509F4B0CFC801A2CF8B
:100A50005596FC93EE935497BACFC416D506E60686
:100A6000F70618F7CCCFCF93DF93FC01A081B181BB
:100A70000D90BC91A02DC281D38154968D919C91F3
:100A800055978E179F0721F45596DC93CE93549774
:100A900056968D919C9157978E179F0721F45796E4
:100AA000DC93CE935697209721F0848195819D8386
:100AB0008C830480F581E02D309711F0D383C283BD
:100AC00056968D919C915797892B41F454968D9110
:100AD0009C91559757969C938E935697DF91CF9103
:100AE0000895EF92FF920F931F93CF93DF93EC0142
:100AF00080917A02882309F4ADC08C859D85AE85EE
:100B0000BF850196A11DB11D8C879D87AE87BF87CC
:100B1000488159816A817B8184179507A607B707A9
:100B200009F098C088899989AA89BB890196A11D75
:100B3000B11D4C815D816E817F81481759076A071D
:100B40007B0718F480E090E0DC01888B998BAA8BFE
:100B5000BB8B1C861D861E861F860E891F8901156C
:100B6000110509F477C0F8014285538564857585C0
:100B7000481759076A077B0709F06CC09F0102807C
:100B8000F381E02D309749F0428553856485758562
:100B900084179507A607B70789F3D80114964D91D6
:100BA0005C914115510529F0DA011396FC93EE93FF
:100BB00012978C899D89309741F40817190711F411
:100BC0001D8A1C8AEC89FD8907C055834483081758
:100BD000190711F4FD8BEC8BFF8BEE8BF90113825F
:100BE00012827801D80112960D911C911397ED9104
:100BF000FC910280F381E02DC7010995F701868100
:100C00009781A085B1850097A105B10551F1428575
:100C1000538564857585840F951FA61FB71F4C816A
:100C20005D816E817F81481759076A077B0738F419
:100C3000841B950BA60BB70B0197A109B109F7010E
:100C400082879387A487B587C7010E94AF040115E7
:100C5000110539F6DF91CF911F910F91FF90EF9021
:100C600008951686F4CFFC0182810C94C303FB0126
:100C7000428553852485022E000C330BDC011216AD
:100C8000130614F080E00895FA0181918D932150AC
:100C90003109AF01F4CF382F292FCA01009749F04D
:100CA000DA01ED91FC91309721F0AB01632F722FA7
:100CB000099481E0089581E00895FF920F931F93B6
:100CC000CF93DF93062FF72EDC011296CD91DC91A6
:100CD000209711F1EC81FD81602F7F2DCE010995C8
:100CE000182F81110DC088819981009721F40A8005
:100CF000DB81C02DEDCFDC01ED91FC910995F7CFA3
:100D00008E30A9F380E00E94BA06812FDF91CF9147
:100D10001F910F91FF90089510E0F4CFEF92FF9292
:100D20000F931F93CF93DF93EC01162F072FEA84C5
:100D3000FB8448855985C7010E944B068823C1F072
:100D40008C85082E000C990BD7011816190644F053
:100D500080E0DF91CF911F910F91FF90EF90089568
:100D6000E12FF02F21912D9301971E2F0F2FEDCF03
:100D70008EE0EFCF8091800181110C942A040895B8
:100D8000FC01A081B1818C91882339F011962C91BE
:100D900084819581820F911D089580E090E00895EF
:100DA0000E94EB0680916E01089580936E010E946F
:100DB00049040E94AB040C9444040C94A00CCF93FF
:100DC000C82F0E94F402811102C00E94E80C8C2FEF
:100DD000CF910C948B00209187022130D1F040916B
:100DE0007F02509180026091810270918202809115
:100DF000830290918402A0918502B0918602842B97
:100E0000952BA62BB72B21E0892B8A2B8B2B09F452
:100E100020E0822F08951092870210928302109290
:100E20008402109285021092860210927F02109224
:100E30008002109281021092820280917B02909136
:100E40007C02A0917D02B0917E02809388029093F3
:100E50008902A0938A02B0938B0208950E94EB0C42
:100E60008091880290918902A0918A02B0918B02B0
:100E70000196A11DB11D8093880290938902A093D1
:100E80008A02B0938B028091830290918402A09198
:100E90008502B09186020196A11DB11D8093830247
:100EA00090938402A0938502B09386020895809166
:100EB000830290918402A0918502B09186020097EE
:100EC000A105B10569F140918802509189026091B4
:100ED0008A0270918B024150510961097109409356
:100EE00088025093890260938A0270938B02019763
:100EF000A109B1098093830290938402A093850293
:100F0000B09386028091880290918902A0918A0212
:100F1000B0918B02892B8A2B8B2B11F40C94E90C4A
:100F200008958091830290918402A0918502B091EE
:100F3000860240917F0250918002609181027091FF
:100F40008202842B952BA62BB72B892B8A2B8B2BDC
:100F500029F40E94EB0C81E0809387020895809130
:100F60008702882321F0109287020C94E90C0895DF
:100F70000E94EF0C8091880290918902A0918A02D0
:100F8000B0918B020196A11DB11D809388029093B0
:100F90008902A0938A02B0938B0280917F02909184
:100FA0008002A0918102B09182020196A11DB11D23
:100FB00080937F0290938002A0938102B09382027B
:100FC000089580917F0290918002A0918102B0915A
:100FD00082020097A105B10569F140918802509104
:100FE000890260918A0270918B0241505109610916
:100FF0007109409388025093890260938A0270932A
:101000008B020197A109B10980937F02909380021E
:10101000A0938102B093820280918802909189020C
:10102000A0918A02B0918B02892B8A2B8B2B11F411
:101030000C94ED0C08950E94EB06811183E1089554
:10104000CF93C82F0E94EB068C2F0E94C303C82F9A
:101050008091800181110E942A048C2FCF910895E4
:10106000CF930E94EB06C82F8111C3E1E091730179
:10107000F09174018281815082830E94B60381E0E5
:1010800080937F010E94F4038C2FCF910895CF931A
:10109000C82F0E94EB06E0917301F09174018281E8
:1010A000815082838C2F0E94C303C82F81110AC0F4
:1010B0000E94B60381E080937F010E94F4038C2F8D
:1010C000CF910895E0917301F091740182818F5F57
:1010D0008283F5CFCF930E94EB06C82F8111C3E125
:1010E000809177010E943A030E942A04809177013F
:1010F00090917801A0917901B0917A0140917B01A2
:1011000050917C0160917D0170917E01841795075B
:10111000A607B70711F40E940C038C2FCF910895F6
:10112000CF93DF93EC010E94EB06811183E14091A4
:101130007701509178016091790170917A01423084
:1011400051056105710514F04091CD014883DF918F
:10115000CF9108950F931F93CF93C82F8B010E94B7
:10116000EB06811183E1EC2FEE0FFF0BE450FE4FF5
:101170000190F081E02D94819370F8019083CF91DC
:101180001F910F910895E82FEE0FFF0BE450FE4FD3
:10119000A081B181ED91FC911197309789F01D925A
:1011A0001C928091CD01DF010380F481E02D129625
:1011B0008C93129714961C921E921397309799F75E
:1011C0000895CF93C82F0E94EB06811183E1EC2F85
:1011D000F0E0EE0FFF1FEE5CFD4F0190F081E02D7F
:1011E000909177019283A0917301B09174012D9138
:1011F0003C911197348323831196FC93EE931396BD
:101200009C911397918320819695921768F430E012
:10121000F901EE56FD4F9081915090839170220F0D
:10122000331F292B13962C93CF910895CF93DF93DF
:10123000C82F0E94EB06D82F8111D3E1EC2FF0E0EC
:10124000EE0FFF1FEE5CFD4F0190F081E02DA091AD
:101250007301B0917401818113968C9313978381EC
:1012600094818D939C93148213828091CD0182830B
:101270000E942A048D2FDF91CF910895DC01ED911A
:10128000FC9184819581DC01ED91FC9109941F937F
:10129000CF93DF93182FEB010E94EB06811183E1BE
:1012A000E12FF0E0EE0FFF1FEA51FE4F0190F081B9
:1012B000E02D0190F081E02D0190F081E02D408142
:1012C0005181628173814C835D836E837F8344810E
:1012D000558166817781488359836A837B83408502
:1012E000518562857385488759876A877B87DF9137
:1012F000CF911F9108958F929F92AF92BF92CF92FC
:10130000DF92EF92FF920F931F93CF93C82F8B0121
:101310000E94EB06811183E1EC2FF0E0EE0FFF1F3E
:10132000EA51FE4F0190F081E02D9685913081F5D4
:1013300042855385648575850190F081E02D01908B
:10134000F081E02DC088D188E288F3884C155D05D6
:101350006E057F0540F484809580A680B780480D97
:10136000591D6A1D7B1D4C195D096E097F09F80125
:101370004083518362837383CF911F910F91FF90BC
:10138000EF90DF90CF90BF90AF909F908F90089597
:1013900085E0F2CFAF92BF92CF92DF92EF92FF92B1
:1013A0000F931F93CF93DF93A82E6A017B01B22E78
:1013B000D32F0E94EB06C82F8111C3E1EA2DF0E084
:1013C000EE0FFF1FEA51FE4F0190F081E02D868560
:1013D00081113CC0A081B1810D90BC91A02D50968F
:1013E0004D915D916D917C915397C40ED51EE61E73
:1013F000F71E14968D919D910D90BC91A02D8C158A
:101400009D05AE05BF0548F4C81AD90AEA0AFB0AC9
:1014100081E0C81AD108E108F108C286D386E486C3
:10142000F58606831783B086D18781E08687CF0152
:101430000E94AF048C2FDF91CF911F910F91FF90ED
:10144000EF90DF90CF90BF90AF900895C7E0F2CFBC
:10145000AF92BF92CF92DF92EF92FF920F931F93C2
:10146000CF93DF93C82F5A016B0179010E94EB06DD
:10147000D82F8111D3E1EC2FF0E0EE0FFF1FEA51DE
:10148000FE4F0190F081E02D8685811119C0A28662
:10149000B386C486D58606831783E086F18681E00D
:1014A0008687CF010E94AF048D2FDF91CF911F91CE
:1014B0000F91FF90EF90DF90CF90BF90AF90089585
:1014C000D7E0F2CF0F931F93CF93DF93C82F0E94E3
:1014D000EB06D82F8111D3E1EC2FF0E0EE0FFF1FC8
:1014E000EA51FE4F00811181F8018685813059F45F
:1014F000C8010E943305F80116868D2FDF91CF9128
:101500001F910F910895D5E0F8CFCF93DF93FC01A1
:10151000EE0FFF1FEC52FE4F0190F081E02D85850C
:10152000882369F0C285D385CF010A960E94C00640
:10153000892B49F08A81882319F08CE001C08AE068
:10154000DF91CF9108958DE0FBCF880F991FFC01AB
:10155000E253FE4F80819181DC01ED91FC91099471
:101560009B01FC01EE0FFF1FEC52FE4F6081718169
:10157000DB011696ED91FC91C9010994FC01EE0F77
:10158000FF1FE253FE4F80819181DC01ED91FC91C0
:1015900060E070E0099580E0089561E08CE00E94D1
:1015A000890B80E190E00E94B90D90938F028093A7
:1015B0008E020895AF92BF92CF92DF92EF92FF9288
:1015C0000F931F93CF93DF9300D000D0CDB7DEB73A
:1015D0008EE00E94840C9C01990F440B550B2983CB
:1015E0003A834B835C831F921F921F9282E38F93F7
:1015F000A12CB12C6501EE24EA9413E0F12E00E059
:1016000010E020E030E0A90169817A818B819C8122
:101610000E94060DE0918E02F0918F02862F972F87
:1016200091838083BF0180913402909135020E94A2
:10163000E7000F900F900F900F900F900F900F906A
:101640000F90DF91CF911F910F91FF90EF90DF905E
:10165000CF90BF90AF900C94B30080919002909186
:101660009102892B71F46CE872E0809136029091BE
:1016700037020E94EB0082E390E090939102809306
:10168000900280919002909191029C012150310929
:10169000309391022093900220918C0230918D0220
:1016A00061E08217930708F060E08CE00E94C30BB2
:1016B0000C94B3008BEA91E00C94340108958430CB
:1016C00099F038F48230C1F0833041F0813081F0FC
:1016D00008958730A1F08830C1F00895809180008E
:1016E0008F77809380000895809180008F7DF9CF5F
:1016F00084B58F7784BD089584B58F7DFBCF8091AD
:10170000B0008F778093B00008958091B0008F7DF6
:10171000F9CFCF93DF9390E0FC01E458FF4F249181
:1017200080579F4FFC0184918823C9F090E0880F77
:10173000991FFC01E255FF4FA591B491FC01EC55B6
:10174000FF4FC591D4919FB761110CC0F8948C9153
:10175000209582238C938881282328839FBFDF9143
:10176000CF910895623051F4F8943C91822F809586
:1017700083238C938881822B8883F0CFF8948C917B
:10178000822B8C93EBCF1F93CF93DF93162F282FB1
:1017900030E0F901E859FF4F8491F901E458FF4F17
:1017A000D491F901E057FF4FC491CC23A1F08111EE
:1017B0000E945F0BEC2FF0E0EE0FFF1FEC55FF4F88
:1017C000A591B4919FB7F8948C91111108C0D09550
:1017D000D823DC939FBFDF91CF911F9108958D2B6C
:1017E0008C93F8CF1F920F920FB60F9211242F9364
:1017F0003F934F935F936F937F938F939F93AF9399
:10180000BF93EF93FF938091FC049091FD04A0910E
:10181000FE04B091FF043091FB0423E0230F2D3729
:1018200098F50196A11DB11D2093FB048093FC0443
:101830009093FD04A093FE04B093FF0480910005F3
:1018400090910105A0910205B09103050196A11D9B
:10185000B11D8093000590930105A0930205B093FC
:1018600003050E945A0BFF91EF91BF91AF919F9199
:101870008F917F916F915F914F913F912F910F9039
:101880000FBE0F901F90189526E8230F0296A11DFA
:10189000B11DCACF84B5826084BD84B5816084BD2A
:1018A00085B5826085BD85B5816085BDEEE6F0E0D9
:1018B000808181608083E1E8F0E010828081826035
:1018C0008083808181608083E0E8F0E080818160B6
:1018D0008083E1EBF0E0808184608083E0EBF0E0E6
:1018E000808181608083EAE7F0E08081846080838A
:1018F0008081826080838081816080838081806834
:1019000080831092C10008958E3008F08E5020918F
:10191000C80190E4299F900111248770282B2093FF
:101920007C0080917A00806480937A0080917A00B4
:1019300086FDFCCF80917800909179000895FFCFCB
:10194000FFCFCF93DF93E82FEE0FFF0BEE5FFD4F3E
:10195000A081B18114968D919C9115970197129653
:10196000ED91FC911397E80FF91F1D968C911D972F
:101970002BEA30E0823011F027EC30E02083EF01D9
:101980002197388316969C91169717968C911797E6
:1019900021979883219788839F012950310986E0F8
:1019A000E90119928A95E9F7EF012A9780E888837F
:1019B0002D5031098CE0E90119928A95E9F70D90D3
:1019C000BC91A02D7797ED93FC93DF91CF91089573
:1019D000089578940895F894089578940895F89463
:1019E000089508950E944A0C0E94F10C0E945E0B1B
:1019F0000E94CD0A809104050E94DF0680E090E0FD
:101A0000089580913C028093040508954F925F925F
:101A10006F927F928F929F92AF92BF92CF92DF92FE
:101A2000EF92FF920F931F93CF93DF93CDB7DEB763
:101A300028970FB6F894DEBF0FBECDBF69837A83B7
:101A40008B839C8329013A01ED82FE820F831887E4
:101A50008A2C9B2C560129813A814B815C81241967
:101A60003509460957098B8D9C8DAD8DBE8D7C0146
:101A70008D01E818F9080A091B09C801B7010E947D
:101A8000E40E2D813E814F81588524193509460980
:101A900057090E94F40EDA01C901880D991DAA1D8B
:101AA000BB1DBC01CD0128960FB6F894DEBF0FBE5A
:101AB000CDBFDF91CF911F910F91FF90EF90DF90FD
:101AC000CF90BF90AF909F908F907F906F905F90DE
:101AD0004F90089508951F920F920FB60F92112400
:101AE0002F933F934F935F936F937F938F939F9326
:101AF000AF93BF93EF93FF93E091C901F091CA01B7
:101B00000995FF91EF91BF91AF919F918F917F9137
:101B10006F915F914F913F912F910F900FBE0F905A
:101B20001F9018951F920F920FB60F9211242F93AA
:101B30003F934F935F936F937F938F939F93AF9355
:101B4000BF93EF93FF93E091CB01F091CC01099506
:101B5000FF91EF91BF91AF919F918F917F916F9185
:101B60005F914F913F912F910F900FBE0F901F905B
:101B700018950F931F93CF93DF939C01029710F456
:101B800022E030E0E0917602F091770290E080E090
:101B9000B0E0A0E0309791F4009709F445C0821BB3
:101BA000930B84309105B8F58A819B81611571058D
:101BB00069F1FB0193838283FE0111C04081518151
:101BC0000281138142175307F0F04217530799F42B
:101BD000109761F012960C93129713961C933296FD
:101BE000CF01DF91CF911F910F910895009376025D
:101BF00010937702F4CF009719F04817590718F49B
:101C0000CA01BD01EF01DF01F801C4CF9093770253
:101C100080937602D1CFFE01E80FF91F2193319313
:101C2000029799838883DCCF809178029091790222
:101C3000892B41F480916A0190916B019093790214
:101C4000809378028091680190916901009741F436
:101C50008DB79EB740916C0150916D01841B950B1F
:101C600040917802509179024817590708F0B8CF8F
:101C7000841B950B8217930708F4B2CFB9016E5FEE
:101C80007F4F8617970708F4ABCF640F751F7093CB
:101C9000790260937802FA0121933193A1CFCF9317
:101CA000DF939C010097E9F0FC01329713821282C6
:101CB000C0917602D0917702DE0190E080E020971B
:101CC000A1F480819181280F391F80917802909131
:101CD00079028217930709F067C0F0937902E093C5
:101CE0007802DF91CF910895DA01AE17BF0708F0AF
:101CF00041C012964D915C911397CD01411551054C
:101D000099F7DC011396FC93EE9312974D915D9138
:101D1000A40FB51FEA17FB0781F4208131812E5FE4
:101D20003F4F240F351FDC0111963C932E932281E7
:101D3000338113963C932E931297B0E0A0E08A81F2
:101D40009B810097B1F5FE0181919191E80FF91FF8
:101D500080917802909179028E179F0711F6109763
:101D600059F51092770210927602D0937902C093BF
:101D70007802B7CFB383A28340815181240F351FEE
:101D8000A217B30771F44E5F5F4F2D913C911197ED
:101D9000240F351F3183208312962D913C9133837C
:101DA0002283009709F0ADCFF0937702E09376029B
:101DB00098CFDE01EC01C3CF13961C921E921297AE
:101DC000D4CFF8940C94550FDB018F939F930E940E
:101DD000130FBF91AF91A29F800D911DA39F900DF6
:101DE000B29F900D11240895052E97FB1EF40094C8
:101DF0000E940B0F57FD07D00E941E0F07FC03D057
:101E00004EF40C940B0F50954095309521953F4F13
:101E10004F4F5F4F089590958095709561957F4FD6
:101E20008F4F9F4F08950E94460FA59F900DB49F1E
:101E3000900DA49F800D911D11240895A1E21A2EEA
:101E4000AA1BBB1BFD010DC0AA1FBB1FEE1FFF1F5E
:101E5000A217B307E407F50720F0A21BB30BE40BAE
:101E6000F50B661F771F881F991F1A9469F76095F5
:101E70007095809590959B01AC01BD01CF010895AF
:101E8000EE0FFF1F0590F491E02D0994A29FB00181
:101E9000B39FC001A39F700D811D1124911DB29F9E
:0E1EA000700D811D1124911D0895F894FFCF3F
:101EAE000000000000000000000000000000000024
:101EBE000000000000000000000000000000000014
:101ECE000000000000000000000000000000000004
:101EDE0000000000000000000000000000000000F4
:101EEE0000000000000000000000000000000000E4
:101EFE0000000000000000000000000000000000D4
:101F0E000000000000000000000005052000FF009A
:101F1E000024020000A404FFFFFFFFFFFFFFFF00ED
:101F2E00005B06EA01000000000200000002000053
:101F3E000002F30100000000250100002501000051
:101F4E00020000000204000000010001000000FF7A
:101F5E00FF00000100000000000000000000000073
:101F6E000000000300FF0000016A0D6A0DFFD001A2
:101F7E005D06D601D601E30100008E06370681010B
:101F8E009E020233060092018301AB013E09F0016D
:101F9E00330600AB013E09F901330601A601A1018A
:101FAE00A404160208022402A002A2020001DA0A08
:101FBE00000001020100A203A40300012D0B00008A
:101FCE0000010100A904AB0450009F0C00000200A8
:101FDE000100C301000000000101000100E107AF94
:101FEE0007B807910798042E07850457076A081645
:101FFE0009DD06470920087B094708CA0990082809
:10200E000AD506620AD006A50A850AB00AE108BEFC
:06201E000AAA08300800C8
:00000001FF
