:100000000C945D000C947E0B0C94A50B0C94850055
:100010000C9485000C9485000C9485000C9485004C
:100020000C9485000C9485000C9485000C9485003C
:100030000C9485000C9485000C9485000C9485002C
:100040000C94840A0C9485000C9485000C94850013
:100050000C9485000C9485000C9485000C9485000C
:100060000C9485000C94850000000008000201003B
:100070000003040700000000000000000102040863
:100080001020408001020408102001020408102002
:10009000040404040404040402020202020203032E
:1000A0000303030300000000250028002B000000CC
:1000B0000000240027002A00780B11241FBECFEF78
:1000C000D8E0DEBFCDBF12E0A0E0B1E0EEEAF7E19C
:1000D00002C005900D92A834B107D9F724E0A8E436
:1000E000B2E001C01D92AB3CB207E1F710E0CDE5F4
:1000F000D0E004C02197FE010E94CF0BCC35D10780
:10010000C9F70E94690B0C94CC0B0C940000E2E13F
:100110000E942C010895E9E00E942C010895EAE074
:100120000E942C010895E1E00E942C010895E3E073
:100130000E942C010895E7E00E942C010895E5E05B
:100140000E942C010895E0E00E942C010895E2E055
:100150000E942C010895E4E00E942C010895ECE037
:100160000E942C010895E8E00E942C010895EEE021
:100170000E942C010895E4E10E942C010895E0E121
:100180000E942C010895E7E10E942C010895E6E009
:100190000E942C010895EBE00E942C010895EDE0EF
:1001A0000E942C010895EFE00E942C010895E1E1E6
:1001B0000E942C010895E3E10E942C010895E5E1DD
:1001C0000E942C010895E6E10E942C0108952196D9
:1001D0008A929A92AA92BA92CA92DA92EA92FA927F
:1001E0000A931A932197E0916901F0916A010080C6
:1001F000F181E02DC083D1830895C0916B01D0912E
:100200006C01E881F981C081D18121961991099110
:10021000F990E990D990C990B990A9909990899056
:10022000219708952F903F90E7E6F1E0CDB7DEB734
:10023000EDBFFEBF3F922F9208952F903F90CDBF0C
:10024000DEBF3F922F920895E0E80E942C010895AE
:10025000E0E40E942C0108952F923F924F925F920A
:100260006F927F922FB62F92CF93DF937E2EF894CA
:10027000E0910001EF5FE0930001E13011F40E9492
:100280001201E0E0E0937901E72DE07849F00E9467
:100290006105F0917A01F17071F00E941A040BC0AF
:1002A000E72DEC3140F4EE0FF0E0E85EFD4F0190F9
:1002B000F081E02D0995F0917901EF2FE17059F06F
:1002C000F27011F00E94E7008F938F2F0E94660357
:1002D0008F910E94FD002091000121502093000188
:1002E000222311F40E941D01DF91CF912F902FBE88
:1002F0007F906F905F904F903F902F900895FC01FA
:100300004081FB013081842F877090E0A0E0B0E055
:10031000B695A79597958795865A9D4FFC012081A4
:10032000F42FF21B2F2F21704670242B832F877000
:1003300090E0A0E0B0E0B695A79597958795865A8E
:100340009D4FFC019081F32FF91B9F2F9170367008
:10035000932B41E050E0291710F040E050E0CA0133
:1003600008958F929F92AF92BF92EF92FF920F9358
:100370001F93CF93DF938C01CA01DB014C015D0118
:10038000B694A7949794879482309105A105B105FE
:1003900080F0880F991FE801C80FD91F7401EE0C77
:1003A000FF1CE00EF11EBE01C7010E947F01892BD8
:1003B00059F4DF91CF911F910F91FF90EF90BF9073
:1003C000AF909F908F90089598818981F701208147
:1003D00031813983288390838183D501C401D0CFB3
:1003E0004F925F926F927F928F929F92AF92BF9245
:1003F000CF92DF92EF92FF920F931F93CF93DF93F1
:1004000000D000D000D0CDB7DEB78D839E836A01C7
:100410007B01AD81BE814C90842D90E0A0E0B0E0E6
:1004200089839A83AB83BC8346015701880C991C4E
:10043000AA1CBB1C89819A81AB81BC818815990556
:10044000AA05BB05B8F40F900F900F900F900F9076
:100450000F90DF91CF911F910F91FF90EF90DF9060
:10046000CF90BF90AF909F908F907F906F905F9054
:100470004F900895240135019FEF491A590A690ADE
:10048000790A89819A81AB81BC8184159505A6057D
:10049000B70590F0B201660F771FAD81BE816A0F7C
:1004A0007B1FC401880F991F8A0F9B1F0E947F0129
:1004B000892B11F0530142018401000F111FED81BE
:1004C000FE810E0F1F1FCC0CDD1CCE0EDF1EB801EF
:1004D000C6010E947F01892B09F4B5CFD6019C91FA
:1004E00011968C911197F801208131812D933C93C5
:1004F000908381837501640197CFEEE5F2E040813E
:100500004F5F408350E060E070E0E82FEE0FFF0B9C
:10051000EF51FE4F0190F081E02D238530E0F9018D
:10052000E65AFD4F908191509083FA01EE0FFF1F24
:10053000E25AFD4F9170220F331F292B20838183B4
:100540008EE592E00C94B101EEE5F2E040814F5F60
:10055000408350E060E070E0FA01EE0FFF1FE25AC6
:10056000FD4FA82FAA0FBB0BA552BE4F0D90BC91FB
:10057000A02D13969C91908381838EE592E00C943C
:10058000B1010F931F93CF93DF93CEE5D2E0888123
:100590009FEF980F98830A811B8190E0880F991F25
:1005A000FC01E25AFD4F808191819B838A8341E067
:1005B00050E060E070E0CE010E94F001C801DF91E0
:1005C000CF911F910F9108958091710190917201C7
:1005D000A0917301B09174018F3F2FEF9207A20792
:1005E000B20731F00297A105B10524F082E0089529
:1005F00080E0089581E00895CF93DF93880F990BF1
:10060000FC01EF51FE4F0190F081E02D0084F18557
:10061000E02D3097E1F02281211119C021E02283E1
:1006200085529E4FEC01A881B98113968C91139746
:100630008183808190E0FC01E65AFD4F20812150AA
:1006400020832170880F991F822B13968C93DF9142
:10065000CF910895CF93DF93880F990BFC01EF5151
:10066000FE4F0190F081E02D0084F185E02D309760
:1006700061F02281213049F4128285529E4FEC01B3
:10068000A881B981818113968C93DF91CF910895D0
:100690008091750190917601A0917701B0917801D8
:1006A00040917101509172016091730170917401D8
:1006B000481759076A077B0741F0E0916F01F091F5
:1006C000700121E024830C94A4020895CF93DF935A
:1006D000D0E0C0E0882389F0D0916901C0916A011F
:1006E000E0916D01F0916E018481833031F081E001
:1006F0008483809171010E94A402E0916F01F091C6
:100700007001F0936E01E0936D0180916B01909107
:100710006C0190936A018093690180917501309119
:100720007601209177019091780180937101309347
:100730007201209373019093740192E094830E945C
:10074000FC028D2F9C2FDF91CF9108958091710134
:100750000E942A03E0916D01F0916E018281811166
:1007600085E084830895CF93DF93282F220F330BE6
:10077000F901E552FE4FC081D1819A812F513E4F40
:10078000D901ED91FC912485921780F4911105C057
:1007900095E09C8391E090937A010E947D028A818A
:1007A0008F5F8A8380E0DF91CF91089584E0FBCF53
:1007B000E82FEE0FFF0BE552FE4F0190F081E02D88
:1007C000118210820C94180B1F93CF93DF930E9419
:1007D000C102182F892F492F092E000C550B660BCB
:1007E000770B409375015093760160937701709376
:1007F0007801292F220F330BF901E552FE4FC081FA
:10080000D181D0937001C0936F012F513E4FF901F8
:100810002081318130936C0120936B019C81953054
:1008200019F40E94D8031B8310927A01DF91CF91B3
:100830001F910895E0917501F0917601EE0FFF1F71
:10084000E552FE4F0190F081E02D9091600283818E
:10085000891740F40E9448030E94E40383E08093D8
:100860007901089580E0FBCF81E0809379010C94B9
:10087000E403CF93DF93C1E0D0E001C0CC0F8A95B1
:10088000EAF782E00E94B303809115028C2388234B
:1008900019F080E00E94B303809116028C23882314
:1008A00019F081E00E94B303809113028C23882306
:1008B00049F08091C5019091C60121E0FC01268795
:1008C0000E949F04809114028C23882359F0809108
:1008D000C7019091C80121E0FC012687DF91CF91EB
:1008E0000C949F04DF91CF9108950E9442068111DC
:1008F0000E946206E0916D01F0916E01808191810C
:10090000892B21F0809171010E941A080C948707AD
:100910000E94420681110E946206E0916D01F091F1
:100920006E0180819181892B21F0809171010E945B
:100930001A080C94720781E0809348020895CF92C0
:10094000DF92EF92FF920F931F93CF93DF93FC01FF
:10095000A081B1810D90BC91A02D54968D919C9158
:100960005597009709F445C0428553856485758580
:1009700020E030E0EC01CA84DB84EC84FD844C157B
:100980005D056E057F0508F049C08C011383028365
:10099000358324830115110519F0E801FD83EC83EB
:1009A0002115310509F444C0E901FB83EA83569619
:1009B000CD91DC9157970A851B852C853D855096F6
:1009C000CD90DD90ED90FC9053970C151D052E05F4
:1009D0003F0598F5C416D506E606F70628F0401739
:1009E00051076207730788F45796FC93EE93569766
:1009F0000CC05596FC93EE9354975796FC93EE9348
:100A000056971582148213821282DF91CF911F9123
:100A10000F91FF90EF90DF90CF900895EC010A8145
:100A20001B819C010115110509F4B0CFC801A2CFAB
:100A30005596FC93EE935497BACFC416D506E606A6
:100A4000F70618F7CCCFCF93DF93FC01A081B181DB
:100A50000D90BC91A02DC281D38154968D919C9113
:100A600055978E179F0721F45596DC93CE93549794
:100A700056968D919C9157978E179F0721F4579604
:100A8000DC93CE935697209721F0848195819D83A6
:100A90008C830480F581E02D309711F0D383C283DD
:100AA00056968D919C915797892B41F454968D9130
:100AB0009C91559757969C938E935697DF91CF9123
:100AC0000895EF92FF920F931F93CF93DF93EC0162
:100AD00080914802882309F4ADC08C859D85AE8540
:100AE000BF850196A11DB11D8C879D87AE87BF87ED
:100AF000488159816A817B8184179507A607B707CA
:100B000009F098C088899989AA89BB890196A11D95
:100B1000B11D4C815D816E817F81481759076A073D
:100B20007B0718F480E090E0DC01888B998BAA8B1E
:100B3000BB8B1C861D861E861F860E891F8901158C
:100B4000110509F477C0F8014285538564857585E0
:100B5000481759076A077B0709F06CC09F0102809C
:100B6000F381E02D309749F0428553856485758582
:100B700084179507A607B70789F3D80114964D91F6
:100B80005C914115510529F0DA011396FC93EE931F
:100B900012978C899D89309741F40817190711F431
:100BA0001D8A1C8AEC89FD8907C055834483081778
:100BB000190711F4FD8BEC8BFF8BEE8BF90113827F
:100BC00012827801D80112960D911C911397ED9124
:100BD000FC910280F381E02DC7010995F701868120
:100BE0009781A085B1850097A105B10551F1428596
:100BF000538564857585840F951FA61FB71F4C818B
:100C00005D816E817F81481759076A077B0738F439
:100C1000841B950BA60BB70B0197A109B109F7012E
:100C200082879387A487B587C7010E949F04011517
:100C3000110539F6DF91CF911F910F91FF90EF9041
:100C400008951686F4CFFC0182810C94B3030E94B0
:100C50004206809168010895809368010E943904DA
:100C60000E949B040C9434040C94170BCF93C82F50
:100C70000E94E402811102C00E945F0B8C2FCF9171
:100C80000C948B00209155022130D1F040914D02FF
:100C900050914E0260914F0270915002809151022A
:100CA00090915202A0915302B0915402842B952B43
:100CB000A62BB72B21E0892B8A2B8B2B09F420E064
:100CC000822F0895109255021092510210925202F2
:100CD000109253021092540210924D0210924E0242
:100CE00010924F02109250028091490290914A0254
:100CF000A0914B02B0914C02809356029093570200
:100D0000A0935802B093590208950E94620B8091FB
:100D1000560290915702A0915802B0915902019643
:100D2000A11DB11D8093560290935702A0935802C3
:100D3000B09359028091510290915202A0915302B6
:100D4000B09154020196A11DB11D80935102909360
:100D50005202A0935302B09354020895809151021D
:100D600090915202A0915302B09154020097A105B4
:100D7000B10569F1409156025091570260915802B5
:100D8000709159024150510961097109409356020D
:100D90005093570260935802709359020197A1092A
:100DA000B1098093510290935202A0935302B093E1
:100DB00054028091560290915702A0915802B0912E
:100DC0005902892B8A2B8B2B11F40C94600B0895FC
:100DD0008091510290915202A0915302B09154021D
:100DE00040914D0250914E0260914F02709150021D
:100DF000842B952BA62BB72B892B8A2B8B2B29F495
:100E00000E94620B81E08093550208958091550203
:100E1000882321F0109255020C94600B08950E94D3
:100E2000660B8091560290915702A0915802B091A2
:100E300059020196A11DB11D80935602909357024D
:100E4000A0935802B093590280914D0290914E02A6
:100E5000A0914F02B09150020196A11DB11D809347
:100E60004D0290934E02A0934F02B093500208950A
:100E700080914D0290914E02A0914F02B09150028C
:100E80000097A105B10569F14091560250915702B2
:100E900060915802709159024150510961097109DC
:100EA0004093560250935702609358027093590230
:100EB0000197A109B10980934D0290934E02A0932E
:100EC0004F02B09350028091560290915702A09128
:100ED0005802B0915902892B8A2B8B2B11F40C9458
:100EE000640B08950E944206811183E10895CF9317
:100EF000C82F0E9442068C2F0E94B303C82F8091F6
:100F00007A0181110E941A048C2FCF910895CF93FA
:100F10000E944206C82F8111C3E1E0916D01F0915A
:100F20006E018281815082830E94A60381E08093BA
:100F300079010E94E4038C2FCF910895CF93C82F9D
:100F40000E944206E0916D01F0916E018281815014
:100F500082838C2F0E94B303C82F81110AC00E9484
:100F6000A60381E0809379010E94E4038C2FCF9146
:100F70000895E0916D01F0916E0182818F5F82830F
:100F8000F5CFCF930E944206C82F8111C3E1809113
:100F900071010E942A030E941A04809171019091AC
:100FA0007201A0917301B09174014091750150914B
:100FB0007601609177017091780184179507A607F3
:100FC000B70711F40E94FC028C2FCF910895CF93A4
:100FD000DF93EC010E944206811183E1409171018F
:100FE000509172016091730170917401423051050A
:100FF0006105710514F04091C4014883DF91CF91E0
:1010000008950F931F93CF93C82F8B010E94420620
:10101000811183E1EC2FEE0FFF0BE552FE4F0190A3
:10102000F081E02D94819370F8019083CF911F910E
:101030000F910895E82FEE0FFF0BE552FE4FA081B0
:10104000B181ED91FC911197309789F01D921C921E
:101050008091C401DF010380F481E02D12968C930E
:10106000129714961C921E921397309799F7089531
:10107000CF93C82F0E944206811183E1EC2FF0E04C
:10108000EE0FFF1FEF5EFD4F0190F081E02D90917C
:1010900071019283A0916D01B0916E012D913C91EF
:1010A0001197348323831196FC93EE9313969C91AE
:1010B0001397918320819695921768F430E0F90197
:1010C000E65AFD4F9081915090839170220F331F0B
:1010D000292B13962C93CF910895CF93DF93C82F8C
:1010E0000E944206D82F8111D3E1EC2FF0E0EE0FE1
:1010F000FF1FEF5EFD4F0190F081E02DA0916D018B
:10110000B0916E01818113968C93139783819481A2
:101110008D939C93148213828091C40182830E94D8
:101120001A048D2FDF91CF910895DC01ED91FC9190
:1011300084819581DC01ED91FC9109941F93CF93FB
:10114000DF93182FEB010E944206811183E1E12F0A
:10115000F0E0EE0FFF1FEB53FE4F0190F081E02D0A
:101160000190F081E02D0190F081E02D40815181CE
:10117000628173814C835D836E837F83448155815B
:1011800066817781488359836A837B834085518553
:1011900062857385488759876A877B87DF91CF91FE
:1011A0001F9108958F929F92AF92BF92CF92DF923C
:1011B000EF92FF920F931F93CF93C82F8B010E9442
:1011C0004206811183E1EC2FF0E0EE0FFF1FEB539D
:1011D000FE4F0190F081E02D9685913081F542859A
:1011E0005385648575850190F081E02D0190F08133
:1011F000E02DC088D188E288F3884C155D056E0526
:101200007F0540F484809580A680B780480D591DE5
:101210006A1D7B1D4C195D096E097F09F801408329
:10122000518362837383CF911F910F91FF90EF9051
:10123000DF90CF90BF90AF909F908F90089585E002
:10124000F2CFAF92BF92CF92DF92EF92FF920F93C5
:101250001F93CF93DF93A82E6A017B01B22ED32F69
:101260000E944206C82F8111C3E1EA2DF0E0EE0F83
:10127000FF1FEB53FE4F0190F081E02D8685811119
:101280003CC0A081B1810D90BC91A02D50964D9194
:101290005D916D917C915397C40ED51EE61EF71E8D
:1012A00014968D919D910D90BC91A02D8C159D054E
:1012B000AE05BF0548F4C81AD90AEA0AFB0A81E05C
:1012C000C81AD108E108F108C286D386E486F586FB
:1012D00006831783B086D18781E08687CF010E947D
:1012E0009F048C2FDF91CF911F910F91FF90EF9072
:1012F000DF90CF90BF90AF900895C7E0F2CFAF924C
:10130000BF92CF92DF92EF92FF920F931F93CF93F2
:10131000DF93C82F5A016B0179010E944206D82F32
:101320008111D3E1EC2FF0E0EE0FFF1FEB53FE4FE6
:101330000190F081E02D8685811119C0A286B386C7
:10134000C486D58606831783E086F18681E086878A
:10135000CF010E949F048D2FDF91CF911F910F919C
:10136000FF90EF90DF90CF90BF90AF900895D7E0BF
:10137000F2CF0F931F93CF93DF93C82F0E944206A3
:10138000D82F8111D3E1EC2FF0E0EE0FFF1FEB53CC
:10139000FE4F00811181F8018685813059F4C80122
:1013A0000E942305F80116868D2FDF91CF911F91A2
:1013B0000F910895D5E0F8CF61E08DE00C941B0A01
:1013C00061E08DE00E94550A0C94B30060E08DE06E
:1013D0000E94550A0C94B30083EA91E00C94240116
:1013E0000895843099F038F48230C1F0833041F0B0
:1013F000813081F008958730A1F08830C1F00895E0
:10140000809180008F778093800008958091800084
:101410008F7DF9CF84B58F7784BD089584B58F7D96
:10142000FBCF8091B0008F778093B00008958091BA
:10143000B0008F7DF9CFCF93DF9390E0FC01E458AB
:10144000FF4F249180579F4FFC0184918823C9F05E
:1014500090E0880F991FFC01E255FF4FA591B491D0
:10146000FC01EC55FF4FC591D4919FB761110CC0A1
:10147000F8948C91209582238C938881282328834B
:101480009FBFDF91CF910895623051F4F8943C9161
:10149000822F809583238C938881822B8883F0CF41
:1014A000F8948C91822B8C93EBCF1F93CF93DF9387
:1014B000162F282F30E0F901E859FF4F8491F901E8
:1014C000E458FF4FD491F901E057FF4FC491CC236A
:1014D000A1F081110E94F109EC2FF0E0EE0FFF1F47
:1014E000EC55FF4FA591B4919FB7F8948C911111D1
:1014F00008C0D095D823DC939FBFDF91CF911F9177
:1015000008958D2B8C93F8CF1F920F920FB60F92E8
:1015100011242F933F934F935F936F937F938F93F8
:101520009F93AF93BF93EF93FF938091C2049091E9
:10153000C304A091C404B091C5043091C10423E058
:10154000230F2D3798F50196A11DB11D2093C104DD
:101550008093C2049093C304A093C404B093C504C1
:101560008091C6049091C704A091C804B091C904A9
:101570000196A11DB11D8093C6049093C704A0934A
:10158000C804B093C9040E94EC09FF91EF91BF9188
:10159000AF919F918F917F916F915F914F913F910B
:1015A0002F910F900FBE0F901F90189526E8230FD4
:1015B0000296A11DB11DCACF84B5826084BD84B5D9
:1015C000816084BD85B5826085BD85B5816085BD3E
:1015D000EEE6F0E0808181608083E1E8F0E0108257
:1015E000808182608083808181608083E0E8F0E098
:1015F000808181608083E1EBF0E080818460808382
:10160000E0EBF0E0808181608083EAE7F0E08081B8
:101610008460808380818260808380818160808318
:101620008081806880831092C1000895FFCFFFCF32
:10163000CF93DF93E82FEE0FFF0BEF51FE4FA0810A
:10164000B18114968D919C91159701971296ED9109
:10165000FC911397E80FF91F1D968C911D972BEAAB
:1016600030E0823011F027EC30E02083EF01219749
:10167000388316969C91169717968C9117972197F9
:101680009883219788839F012950310986E0E901D9
:1016900019928A95E9F7EF012A9780E888832D50FF
:1016A00031098CE0E90119928A95E9F70D90BC9116
:1016B000A02D7797ED93FC93DF91CF910895089536
:1016C00078940895F894089578940895F894089576
:1016D00008950E94DC0A0E94680B0E94F0090E9493
:1016E000DC098091CA040E94360680E090E00895EB
:1016F000809117028093CA04089508951F920F9253
:101700000FB60F9211242F933F934F935F936F93D4
:101710007F938F939F93AF93BF93EF93FF93E0914A
:10172000C001F091C1010995FF91EF91BF91AF9177
:101730009F918F917F916F915F914F913F912F91E9
:101740000F900FBE0F901F9018951F920F920FB61B
:101750000F9211242F933F934F935F936F937F9337
:101760008F939F93AF93BF93EF93FF93E091C20149
:10177000F091C3010995FF91EF91BF91AF919F91B6
:101780008F917F916F915F914F913F912F910F902A
:101790000FBE0F901F901895F8940C94D50BEE0F78
:0E17A000FF1F0590F491E02D0994F894FFCFFF
:1017AE00000000000000000000000000000000002B
:1017BE00000000000000000000000000000000001B
:1017CE00000000000000000000000000000000000B
:1017DE0000000000000000000000000000000000FB
:1017EE0000000000000000000000000000000000EB
:1017FE0000000000000000000000000000000000DB
:10180E000000000000000000FF0000030200006A5C
:10181E0004FFFFFFFFFFFFFFFF0000C901000000F4
:10182E0000DC020000B805000002D201000000003A
:10183E00E8010000E80100000200000002040000C0
:10184E0000010001000000FFFF0000010000000089
:10185E0000000000000000000000000300FF000078
:10186E007D0B7D0BFF8A017B01A3019508CF012320
:10187E000600A3019508D8012306019E0199016A6D
:10188E0004F501E7010302660268020001E00900A7
:10189E00000102010068036A030001E6090000006E
:1018AE000101006F0471045000160B0000020001CC
:1018BE0000BB010101000100380706070F07E8060B
:1018CE00880485067504AE0687072C06340638088C
:1018DE0077076D089E079E08E707D208270621099D
:0818EE00C1077F09B9090108D7
:00000001FF
